/**************************************
First Control URB = 159
/**************************************

No.     Time        Source                Destination           Protocol Info
      1 0.000000    host                  79.0                  USB      GET DESCRIPTOR Request DEVICE

Frame 1: 64 bytes on wire (512 bits), 64 bytes captured (512 bits)
    Arrival Time: Dec  5, 2011 16:26:16.046401000 CET
    Epoch Time: 1323098776.046401000 seconds
    [Time delta from previous captured frame: 0.000000000 seconds]
    [Time delta from previous displayed frame: 0.000000000 seconds]
    [Time since reference or first frame: 0.000000000 seconds]
    Frame Number: 1
    Frame Length: 64 bytes (512 bits)
    Capture Length: 64 bytes (512 bits)
    [Frame is marked: False]
    [Frame is ignored: False]
    [Protocols in frame: usb]
USB URB
    URB id: 0xffff88012dbe5480
    URB type: URB_SUBMIT ('S')
    URB transfer type: URB_CONTROL out (0x02)
    Endpoint: 0x80
    Device: 79
    URB bus id: 2
    Device setup request: relevant (0)
    Data: not present ('<')
    URB sec: 1323098776
    URB usec: 46401
    URB status: Operation now in progress (-EINPROGRESS) (-115)
    URB length [bytes]: 40
    Data length [bytes]: 0
    [Response in: 2]
    [bInterfaceClass: VENDOR_SPECIFIC (0xff)]
    URB setup
        bmRequestType: 0x80
            1... .... = Direction: Device-to-host
            .00. .... = Type: Standard (0x00)
            ...0 0000 = Recipient: Device (0x00)
        bRequest: GET DESCRIPTOR (6)
        Descriptor Index: 0x00
        bDescriptorType: DEVICE (1)
        Language Id: no language specified (0x0000)
        wLength: 40

0000  80 54 be 2d 01 88 ff ff 53 02 80 4f 02 00 00 3c   .T.-....S..O...<
0010  98 e2 dc 4e 00 00 00 00 41 b5 00 00 8d ff ff ff   ...N....A.......
0020  28 00 00 00 00 00 00 00 80 06 00 01 00 00 28 00   (.............(.
0030  00 00 00 00 00 00 00 00 00 02 00 00 00 00 00 00   ................

No.     Time        Source                Destination           Protocol Info
      2 0.000141    79.0                  host                  USB      GET DESCRIPTOR Response DEVICE

Frame 2: 82 bytes on wire (656 bits), 82 bytes captured (656 bits)
    Arrival Time: Dec  5, 2011 16:26:16.046542000 CET
    Epoch Time: 1323098776.046542000 seconds
    [Time delta from previous captured frame: 0.000141000 seconds]
    [Time delta from previous displayed frame: 0.000141000 seconds]
    [Time since reference or first frame: 0.000141000 seconds]
    Frame Number: 2
    Frame Length: 82 bytes (656 bits)
    Capture Length: 82 bytes (656 bits)
    [Frame is marked: False]
    [Frame is ignored: False]
    [Protocols in frame: usb]
USB URB
    URB id: 0xffff88012dbe5480
    URB type: URB_COMPLETE ('C')
    URB transfer type: URB_CONTROL out (0x02)
    Endpoint: 0x80
    Device: 79
    URB bus id: 2
    Device setup request: not relevant ('-')
    Data: present (0)
    URB sec: 1323098776
    URB usec: 46542
    URB status: Success (0)
    URB length [bytes]: 18
    Data length [bytes]: 18
    [Request in: 1]
    [Time from request: 0.000141000 seconds]
    [bInterfaceClass: VENDOR_SPECIFIC (0xff)]
    DEVICE DESCRIPTOR
        bLength: 18
        bDescriptorType: DEVICE (1)
        bcdUSB: 0x0200
        bDeviceClass: 0
        bDeviceSubClass: 0
        bDeviceProtocol: 0
        bMaxPacketSize0: 64
        idVendor: 0x1c88
        idProduct: 0x0007
        bcdDevice: 0x0100
        iManufacturer: 1
        iProduct: 2
        iSerialNumber: 3
        bNumConfigurations: 1

0000  80 54 be 2d 01 88 ff ff 43 02 80 4f 02 00 2d 00   .T.-....C..O..-.
0010  98 e2 dc 4e 00 00 00 00 ce b5 00 00 00 00 00 00   ...N............
0020  12 00 00 00 12 00 00 00 00 00 00 00 00 00 00 00   ................
0030  00 00 00 00 00 00 00 00 00 02 00 00 00 00 00 00   ................
0040  12 01 00 02 00 00 00 40 88 1c 07 00 00 01 01 02   .......@........
0050  03 01                                             ..

No.     Time        Source                Destination           Protocol Info
     33 45.450501   host                  0.0                   USB      SET ADDRESS Request

Frame 33: 64 bytes on wire (512 bits), 64 bytes captured (512 bits)
    Arrival Time: Dec  5, 2011 16:27:01.496902000 CET
    Epoch Time: 1323098821.496902000 seconds
    [Time delta from previous captured frame: 0.000020000 seconds]
    [Time delta from previous displayed frame: 45.450360000 seconds]
    [Time since reference or first frame: 45.450501000 seconds]
    Frame Number: 33
    Frame Length: 64 bytes (512 bits)
    Capture Length: 64 bytes (512 bits)
    [Frame is marked: False]
    [Frame is ignored: False]
    [Protocols in frame: usb]
USB URB
    URB id: 0xffff88012dbe5840
    URB type: URB_SUBMIT ('S')
    URB transfer type: URB_CONTROL out (0x02)
    Endpoint: 0x00
    Device: 0
    URB bus id: 2
    Device setup request: relevant (0)
    Data: present (0)
    URB sec: 1323098821
    URB usec: 496902
    URB status: Operation now in progress (-EINPROGRESS) (-115)
    URB length [bytes]: 0
    Data length [bytes]: 0
    [Response in: 34]
    [bInterfaceClass: Unknown (0xffff)]
    URB setup
        bmRequestType: 0x00
            0... .... = Direction: Host-to-device
            .00. .... = Type: Standard (0x00)
            ...0 0000 = Recipient: Device (0x00)
        bRequest: SET ADDRESS (5)
        Device: 79
        wIndex: 0
        wLength: 0

0000  40 58 be 2d 01 88 ff ff 53 02 00 00 02 00 00 00   @X.-....S.......
0010  c5 e2 dc 4e 00 00 00 00 06 95 07 00 8d ff ff ff   ...N............
0020  00 00 00 00 00 00 00 00 00 05 4f 00 00 00 00 00   ..........O.....
0030  00 00 00 00 00 00 00 00 00 00 00 00 00 00 00 00   ................

No.     Time        Source                Destination           Protocol Info
     35 45.462392   host                  79.0                  USB      GET DESCRIPTOR Request DEVICE

Frame 35: 64 bytes on wire (512 bits), 64 bytes captured (512 bits)
    Arrival Time: Dec  5, 2011 16:27:01.508793000 CET
    Epoch Time: 1323098821.508793000 seconds
    [Time delta from previous captured frame: 0.011787000 seconds]
    [Time delta from previous displayed frame: 0.011891000 seconds]
    [Time since reference or first frame: 45.462392000 seconds]
    Frame Number: 35
    Frame Length: 64 bytes (512 bits)
    Capture Length: 64 bytes (512 bits)
    [Frame is marked: False]
    [Frame is ignored: False]
    [Protocols in frame: usb]
USB URB
    URB id: 0xffff88012dbe5840
    URB type: URB_SUBMIT ('S')
    URB transfer type: URB_CONTROL out (0x02)
    Endpoint: 0x80
    Device: 79
    URB bus id: 2
    Device setup request: relevant (0)
    Data: not present ('<')
    URB sec: 1323098821
    URB usec: 508793
    URB status: Operation now in progress (-EINPROGRESS) (-115)
    URB length [bytes]: 18
    Data length [bytes]: 0
    [Response in: 36]
    [bInterfaceClass: VENDOR_SPECIFIC (0xff)]
    URB setup
        bmRequestType: 0x80
            1... .... = Direction: Device-to-host
            .00. .... = Type: Standard (0x00)
            ...0 0000 = Recipient: Device (0x00)
        bRequest: GET DESCRIPTOR (6)
        Descriptor Index: 0x00
        bDescriptorType: DEVICE (1)
        Language Id: no language specified (0x0000)
        wLength: 18

0000  40 58 be 2d 01 88 ff ff 53 02 80 4f 02 00 00 3c   @X.-....S..O...<
0010  c5 e2 dc 4e 00 00 00 00 79 c3 07 00 8d ff ff ff   ...N....y.......
0020  12 00 00 00 00 00 00 00 80 06 00 01 00 00 12 00   ................
0030  00 00 00 00 00 00 00 00 00 02 00 00 00 00 00 00   ................

No.     Time        Source                Destination           Protocol Info
     36 45.462606   79.0                  host                  USB      GET DESCRIPTOR Response DEVICE

Frame 36: 82 bytes on wire (656 bits), 82 bytes captured (656 bits)
    Arrival Time: Dec  5, 2011 16:27:01.509007000 CET
    Epoch Time: 1323098821.509007000 seconds
    [Time delta from previous captured frame: 0.000214000 seconds]
    [Time delta from previous displayed frame: 0.000214000 seconds]
    [Time since reference or first frame: 45.462606000 seconds]
    Frame Number: 36
    Frame Length: 82 bytes (656 bits)
    Capture Length: 82 bytes (656 bits)
    [Frame is marked: False]
    [Frame is ignored: False]
    [Protocols in frame: usb]
USB URB
    URB id: 0xffff88012dbe5840
    URB type: URB_COMPLETE ('C')
    URB transfer type: URB_CONTROL out (0x02)
    Endpoint: 0x80
    Device: 79
    URB bus id: 2
    Device setup request: not relevant ('-')
    Data: present (0)
    URB sec: 1323098821
    URB usec: 509007
    URB status: Success (0)
    URB length [bytes]: 18
    Data length [bytes]: 18
    [Request in: 35]
    [Time from request: 0.000214000 seconds]
    [bInterfaceClass: VENDOR_SPECIFIC (0xff)]
    DEVICE DESCRIPTOR
        bLength: 18
        bDescriptorType: DEVICE (1)
        bcdUSB: 0x0200
        bDeviceClass: 0
        bDeviceSubClass: 0
        bDeviceProtocol: 0
        bMaxPacketSize0: 64
        idVendor: 0x1c88
        idProduct: 0x0007
        bcdDevice: 0x0100
        iManufacturer: 1
        iProduct: 2
        iSerialNumber: 3
        bNumConfigurations: 1

0000  40 58 be 2d 01 88 ff ff 43 02 80 4f 02 00 2d 00   @X.-....C..O..-.
0010  c5 e2 dc 4e 00 00 00 00 4f c4 07 00 00 00 00 00   ...N....O.......
0020  12 00 00 00 12 00 00 00 00 00 00 00 00 00 00 00   ................
0030  00 00 00 00 00 00 00 00 00 02 00 00 00 00 00 00   ................
0040  12 01 00 02 00 00 00 40 88 1c 07 00 00 01 01 02   .......@........
0050  03 01                                             ..

No.     Time        Source                Destination           Protocol Info
     37 45.462627   host                  79.0                  USB      GET DESCRIPTOR Request CONFIGURATION

Frame 37: 64 bytes on wire (512 bits), 64 bytes captured (512 bits)
    Arrival Time: Dec  5, 2011 16:27:01.509028000 CET
    Epoch Time: 1323098821.509028000 seconds
    [Time delta from previous captured frame: 0.000021000 seconds]
    [Time delta from previous displayed frame: 0.000021000 seconds]
    [Time since reference or first frame: 45.462627000 seconds]
    Frame Number: 37
    Frame Length: 64 bytes (512 bits)
    Capture Length: 64 bytes (512 bits)
    [Frame is marked: False]
    [Frame is ignored: False]
    [Protocols in frame: usb]
USB URB
    URB id: 0xffff88012dbe5840
    URB type: URB_SUBMIT ('S')
    URB transfer type: URB_CONTROL out (0x02)
    Endpoint: 0x80
    Device: 79
    URB bus id: 2
    Device setup request: relevant (0)
    Data: not present ('<')
    URB sec: 1323098821
    URB usec: 509028
    URB status: Operation now in progress (-EINPROGRESS) (-115)
    URB length [bytes]: 18
    Data length [bytes]: 0
    [Response in: 38]
    [bInterfaceClass: VENDOR_SPECIFIC (0xff)]
    URB setup
        bmRequestType: 0x80
            1... .... = Direction: Device-to-host
            .00. .... = Type: Standard (0x00)
            ...0 0000 = Recipient: Device (0x00)
        bRequest: GET DESCRIPTOR (6)
        Descriptor Index: 0x00
        bDescriptorType: CONFIGURATION (2)
        Language Id: no language specified (0x0000)
        wLength: 18

0000  40 58 be 2d 01 88 ff ff 53 02 80 4f 02 00 00 3c   @X.-....S..O...<
0010  c5 e2 dc 4e 00 00 00 00 64 c4 07 00 8d ff ff ff   ...N....d.......
0020  12 00 00 00 00 00 00 00 80 06 00 02 00 00 12 00   ................
0030  00 00 00 00 00 00 00 00 00 02 00 00 00 00 00 00   ................

No.     Time        Source                Destination           Protocol Info
     38 45.462730   79.0                  host                  USB      GET DESCRIPTOR Response CONFIGURATION

Frame 38: 82 bytes on wire (656 bits), 82 bytes captured (656 bits)
    Arrival Time: Dec  5, 2011 16:27:01.509131000 CET
    Epoch Time: 1323098821.509131000 seconds
    [Time delta from previous captured frame: 0.000103000 seconds]
    [Time delta from previous displayed frame: 0.000103000 seconds]
    [Time since reference or first frame: 45.462730000 seconds]
    Frame Number: 38
    Frame Length: 82 bytes (656 bits)
    Capture Length: 82 bytes (656 bits)
    [Frame is marked: False]
    [Frame is ignored: False]
    [Protocols in frame: usb]
USB URB
    URB id: 0xffff88012dbe5840
    URB type: URB_COMPLETE ('C')
    URB transfer type: URB_CONTROL out (0x02)
    Endpoint: 0x80
    Device: 79
    URB bus id: 2
    Device setup request: not relevant ('-')
    Data: present (0)
    URB sec: 1323098821
    URB usec: 509131
    URB status: Success (0)
    URB length [bytes]: 18
    Data length [bytes]: 18
    [Request in: 37]
    [Time from request: 0.000103000 seconds]
    [bInterfaceClass: VENDOR_SPECIFIC (0xff)]
    CONFIGURATION DESCRIPTOR
        bLength: 9
        bDescriptorType: CONFIGURATION (2)
        wTotalLength: 18
        bNumInterfaces: 1
        bConfigurationValue: 1
        iConfiguration: 0
        Configuration bmAttributes: 0x80  NOT SELF-POWERED  NO REMOTE-WAKEUP
            1... .... = Must be 1: Must be 1 for USB 1.1 and higher
            .0.. .... = Self-Powered: This device is powered from the USB bus
            ..0. .... = Remote Wakeup: This device does NOT support remote wakeup
        bMaxPower: 100  (200mA)
    INTERFACE DESCRIPTOR
        bLength: 9
        bDescriptorType: INTERFACE (4)
        bInterfaceNumber: 0
        bAlternateSetting: 0
        bNumEndpoints: 0
        bInterfaceClass: VENDOR_SPECIFIC (0xff)
        bInterfaceSubClass: 0xff
        bInterfaceProtocol: 0xff
        iInterface: 0

0000  40 58 be 2d 01 88 ff ff 43 02 80 4f 02 00 2d 00   @X.-....C..O..-.
0010  c5 e2 dc 4e 00 00 00 00 cb c4 07 00 00 00 00 00   ...N............
0020  12 00 00 00 12 00 00 00 00 00 00 00 00 00 00 00   ................
0030  00 00 00 00 00 00 00 00 00 02 00 00 00 00 00 00   ................
0040  09 02 12 00 01 01 00 80 64 09 04 00 00 00 ff ff   ........d.......
0050  ff 00                                             ..

No.     Time        Source                Destination           Protocol Info
     39 45.462749   host                  79.0                  USB      GET DESCRIPTOR Request STRING

Frame 39: 64 bytes on wire (512 bits), 64 bytes captured (512 bits)
    Arrival Time: Dec  5, 2011 16:27:01.509150000 CET
    Epoch Time: 1323098821.509150000 seconds
    [Time delta from previous captured frame: 0.000019000 seconds]
    [Time delta from previous displayed frame: 0.000019000 seconds]
    [Time since reference or first frame: 45.462749000 seconds]
    Frame Number: 39
    Frame Length: 64 bytes (512 bits)
    Capture Length: 64 bytes (512 bits)
    [Frame is marked: False]
    [Frame is ignored: False]
    [Protocols in frame: usb]
USB URB
    URB id: 0xffff88012dbe5840
    URB type: URB_SUBMIT ('S')
    URB transfer type: URB_CONTROL out (0x02)
    Endpoint: 0x80
    Device: 79
    URB bus id: 2
    Device setup request: relevant (0)
    Data: not present ('<')
    URB sec: 1323098821
    URB usec: 509150
    URB status: Operation now in progress (-EINPROGRESS) (-115)
    URB length [bytes]: 255
    Data length [bytes]: 0
    [Response in: 40]
    [bInterfaceClass: VENDOR_SPECIFIC (0xff)]
    URB setup
        bmRequestType: 0x80
            1... .... = Direction: Device-to-host
            .00. .... = Type: Standard (0x00)
            ...0 0000 = Recipient: Device (0x00)
        bRequest: GET DESCRIPTOR (6)
        Descriptor Index: 0x03
        bDescriptorType: STRING (3)
        Language Id: English (United States) (0x0409)
        wLength: 255

0000  40 58 be 2d 01 88 ff ff 53 02 80 4f 02 00 00 3c   @X.-....S..O...<
0010  c5 e2 dc 4e 00 00 00 00 de c4 07 00 8d ff ff ff   ...N............
0020  ff 00 00 00 00 00 00 00 80 06 03 03 09 04 ff 00   ................
0030  00 00 00 00 00 00 00 00 00 02 00 00 00 00 00 00   ................

No.     Time        Source                Destination           Protocol Info
     40 45.462855   79.0                  host                  USB      GET DESCRIPTOR Response STRING

Frame 40: 80 bytes on wire (640 bits), 80 bytes captured (640 bits)
    Arrival Time: Dec  5, 2011 16:27:01.509256000 CET
    Epoch Time: 1323098821.509256000 seconds
    [Time delta from previous captured frame: 0.000106000 seconds]
    [Time delta from previous displayed frame: 0.000106000 seconds]
    [Time since reference or first frame: 45.462855000 seconds]
    Frame Number: 40
    Frame Length: 80 bytes (640 bits)
    Capture Length: 80 bytes (640 bits)
    [Frame is marked: False]
    [Frame is ignored: False]
    [Protocols in frame: usb]
USB URB
    URB id: 0xffff88012dbe5840
    URB type: URB_COMPLETE ('C')
    URB transfer type: URB_CONTROL out (0x02)
    Endpoint: 0x80
    Device: 79
    URB bus id: 2
    Device setup request: not relevant ('-')
    Data: present (0)
    URB sec: 1323098821
    URB usec: 509256
    URB status: Success (0)
    URB length [bytes]: 16
    Data length [bytes]: 16
    [Request in: 39]
    [Time from request: 0.000106000 seconds]
    [bInterfaceClass: VENDOR_SPECIFIC (0xff)]
    STRING DESCRIPTOR
        bLength: 16
        bDescriptorType: STRING (3)
        bString: SMBL007

0000  40 58 be 2d 01 88 ff ff 43 02 80 4f 02 00 2d 00   @X.-....C..O..-.
0010  c5 e2 dc 4e 00 00 00 00 48 c5 07 00 00 00 00 00   ...N....H.......
0020  10 00 00 00 10 00 00 00 00 00 00 00 00 00 00 00   ................
0030  00 00 00 00 00 00 00 00 00 02 00 00 00 00 00 00   ................
0040  10 03 53 00 4d 00 42 00 4c 00 30 00 30 00 37 00   ..S.M.B.L.0.0.7.

No.     Time        Source                Destination           Protocol Info
     41 45.462874   host                  79.0                  USB      SET CONFIGURATION Request

Frame 41: 64 bytes on wire (512 bits), 64 bytes captured (512 bits)
    Arrival Time: Dec  5, 2011 16:27:01.509275000 CET
    Epoch Time: 1323098821.509275000 seconds
    [Time delta from previous captured frame: 0.000019000 seconds]
    [Time delta from previous displayed frame: 0.000019000 seconds]
    [Time since reference or first frame: 45.462874000 seconds]
    Frame Number: 41
    Frame Length: 64 bytes (512 bits)
    Capture Length: 64 bytes (512 bits)
    [Frame is marked: False]
    [Frame is ignored: False]
    [Protocols in frame: usb]
USB URB
    URB id: 0xffff88012dbe5840
    URB type: URB_SUBMIT ('S')
    URB transfer type: URB_CONTROL out (0x02)
    Endpoint: 0x00
    Device: 79
    URB bus id: 2
    Device setup request: relevant (0)
    Data: present (0)
    URB sec: 1323098821
    URB usec: 509275
    URB status: Operation now in progress (-EINPROGRESS) (-115)
    URB length [bytes]: 0
    Data length [bytes]: 0
    [Response in: 42]
    [bInterfaceClass: VENDOR_SPECIFIC (0xff)]
    URB setup
        bmRequestType: 0x00
            0... .... = Direction: Host-to-device
            .00. .... = Type: Standard (0x00)
            ...0 0000 = Recipient: Device (0x00)
        bRequest: SET CONFIGURATION (9)
        bConfigurationValue: 1
        wIndex: 0
        wLength: 0

0000  40 58 be 2d 01 88 ff ff 53 02 00 4f 02 00 00 00   @X.-....S..O....
0010  c5 e2 dc 4e 00 00 00 00 5b c5 07 00 8d ff ff ff   ...N....[.......
0020  00 00 00 00 00 00 00 00 00 09 01 00 00 00 00 00   ................
0030  00 00 00 00 00 00 00 00 00 00 00 00 00 00 00 00   ................

No.     Time        Source                Destination           Protocol Info
     42 45.462980   79.0                  host                  USB      SET CONFIGURATION Response

Frame 42: 64 bytes on wire (512 bits), 64 bytes captured (512 bits)
    Arrival Time: Dec  5, 2011 16:27:01.509381000 CET
    Epoch Time: 1323098821.509381000 seconds
    [Time delta from previous captured frame: 0.000106000 seconds]
    [Time delta from previous displayed frame: 0.000106000 seconds]
    [Time since reference or first frame: 45.462980000 seconds]
    Frame Number: 42
    Frame Length: 64 bytes (512 bits)
    Capture Length: 64 bytes (512 bits)
    [Frame is marked: False]
    [Frame is ignored: False]
    [Protocols in frame: usb]
USB URB
    URB id: 0xffff88012dbe5840
    URB type: URB_COMPLETE ('C')
    URB transfer type: URB_CONTROL out (0x02)
    Endpoint: 0x00
    Device: 79
    URB bus id: 2
    Device setup request: not relevant ('-')
    Data: not present ('>')
    URB sec: 1323098821
    URB usec: 509381
    URB status: Success (0)
    URB length [bytes]: 0
    Data length [bytes]: 0
    [Request in: 41]
    [Time from request: 0.000106000 seconds]
    [bInterfaceClass: VENDOR_SPECIFIC (0xff)]

0000  40 58 be 2d 01 88 ff ff 43 02 00 4f 02 00 2d 3e   @X.-....C..O..->
0010  c5 e2 dc 4e 00 00 00 00 c5 c5 07 00 00 00 00 00   ...N............
0020  00 00 00 00 00 00 00 00 00 00 00 00 00 00 00 00   ................
0030  00 00 00 00 00 00 00 00 00 00 00 00 00 00 00 00   ................

No.     Time        Source                Destination           Protocol Info
     43 45.563095   host                  79.0                  USB      GET DESCRIPTOR Request DEVICE

Frame 43: 64 bytes on wire (512 bits), 64 bytes captured (512 bits)
    Arrival Time: Dec  5, 2011 16:27:01.609496000 CET
    Epoch Time: 1323098821.609496000 seconds
    [Time delta from previous captured frame: 0.100115000 seconds]
    [Time delta from previous displayed frame: 0.100115000 seconds]
    [Time since reference or first frame: 45.563095000 seconds]
    Frame Number: 43
    Frame Length: 64 bytes (512 bits)
    Capture Length: 64 bytes (512 bits)
    [Frame is marked: False]
    [Frame is ignored: False]
    [Protocols in frame: usb]
USB URB
    URB id: 0xffff88012eb38440
    URB type: URB_SUBMIT ('S')
    URB transfer type: URB_CONTROL out (0x02)
    Endpoint: 0x80
    Device: 79
    URB bus id: 2
    Device setup request: relevant (0)
    Data: not present ('<')
    URB sec: 1323098821
    URB usec: 609496
    URB status: Operation now in progress (-EINPROGRESS) (-115)
    URB length [bytes]: 8
    Data length [bytes]: 0
    [Response in: 44]
    [bInterfaceClass: VENDOR_SPECIFIC (0xff)]
    URB setup
        bmRequestType: 0x80
            1... .... = Direction: Device-to-host
            .00. .... = Type: Standard (0x00)
            ...0 0000 = Recipient: Device (0x00)
        bRequest: GET DESCRIPTOR (6)
        Descriptor Index: 0x00
        bDescriptorType: DEVICE (1)
        Language Id: no language specified (0x0000)
        wLength: 8

0000  40 84 b3 2e 01 88 ff ff 53 02 80 4f 02 00 00 3c   @.......S..O...<
0010  c5 e2 dc 4e 00 00 00 00 d8 4c 09 00 8d ff ff ff   ...N.....L......
0020  08 00 00 00 00 00 00 00 80 06 00 01 00 00 08 00   ................
0030  00 00 00 00 00 00 00 00 00 02 00 00 00 00 00 00   ................

No.     Time        Source                Destination           Protocol Info
     44 45.563233   79.0                  host                  USB      GET DESCRIPTOR Response DEVICE[Malformed Packet]

Frame 44: 72 bytes on wire (576 bits), 72 bytes captured (576 bits)
    Arrival Time: Dec  5, 2011 16:27:01.609634000 CET
    Epoch Time: 1323098821.609634000 seconds
    [Time delta from previous captured frame: 0.000138000 seconds]
    [Time delta from previous displayed frame: 0.000138000 seconds]
    [Time since reference or first frame: 45.563233000 seconds]
    Frame Number: 44
    Frame Length: 72 bytes (576 bits)
    Capture Length: 72 bytes (576 bits)
    [Frame is marked: False]
    [Frame is ignored: False]
    [Protocols in frame: usb]
USB URB
    URB id: 0xffff88012eb38440
    URB type: URB_COMPLETE ('C')
    URB transfer type: URB_CONTROL out (0x02)
    Endpoint: 0x80
    Device: 79
    URB bus id: 2
    Device setup request: not relevant ('-')
    Data: present (0)
    URB sec: 1323098821
    URB usec: 609634
    URB status: Success (0)
    URB length [bytes]: 8
    Data length [bytes]: 8
    [Request in: 43]
    [Time from request: 0.000138000 seconds]
    [bInterfaceClass: VENDOR_SPECIFIC (0xff)]
    DEVICE DESCRIPTOR
        bLength: 18
        bDescriptorType: DEVICE (1)
        bcdUSB: 0x0200
        bDeviceClass: 0
        bDeviceSubClass: 0
        bDeviceProtocol: 0
        bMaxPacketSize0: 64
[Malformed Packet: USB]
    [Expert Info (Error/Malformed): Malformed Packet (Exception occurred)]
        [Message: Malformed Packet (Exception occurred)]
        [Severity level: Error]
        [Group: Malformed]

0000  40 84 b3 2e 01 88 ff ff 43 02 80 4f 02 00 2d 00   @.......C..O..-.
0010  c5 e2 dc 4e 00 00 00 00 62 4d 09 00 00 00 00 00   ...N....bM......
0020  08 00 00 00 08 00 00 00 00 00 00 00 00 00 00 00   ................
0030  00 00 00 00 00 00 00 00 00 02 00 00 00 00 00 00   ................
0040  12 01 00 02 00 00 00 40                           .......@

No.     Time        Source                Destination           Protocol Info
     45 45.565028   host                  79.0                  USB      GET DESCRIPTOR Request CONFIGURATION

Frame 45: 64 bytes on wire (512 bits), 64 bytes captured (512 bits)
    Arrival Time: Dec  5, 2011 16:27:01.611429000 CET
    Epoch Time: 1323098821.611429000 seconds
    [Time delta from previous captured frame: 0.001795000 seconds]
    [Time delta from previous displayed frame: 0.001795000 seconds]
    [Time since reference or first frame: 45.565028000 seconds]
    Frame Number: 45
    Frame Length: 64 bytes (512 bits)
    Capture Length: 64 bytes (512 bits)
    [Frame is marked: False]
    [Frame is ignored: False]
    [Protocols in frame: usb]
USB URB
    URB id: 0xffff88012dbe5840
    URB type: URB_SUBMIT ('S')
    URB transfer type: URB_CONTROL out (0x02)
    Endpoint: 0x80
    Device: 79
    URB bus id: 2
    Device setup request: relevant (0)
    Data: not present ('<')
    URB sec: 1323098821
    URB usec: 611429
    URB status: Operation now in progress (-EINPROGRESS) (-115)
    URB length [bytes]: 9
    Data length [bytes]: 0
    [Response in: 46]
    [bInterfaceClass: VENDOR_SPECIFIC (0xff)]
    URB setup
        bmRequestType: 0x80
            1... .... = Direction: Device-to-host
            .00. .... = Type: Standard (0x00)
            ...0 0000 = Recipient: Device (0x00)
        bRequest: GET DESCRIPTOR (6)
        Descriptor Index: 0x00
        bDescriptorType: CONFIGURATION (2)
        Language Id: no language specified (0x0000)
        wLength: 9

0000  40 58 be 2d 01 88 ff ff 53 02 80 4f 02 00 00 3c   @X.-....S..O...<
0010  c5 e2 dc 4e 00 00 00 00 65 54 09 00 8d ff ff ff   ...N....eT......
0020  09 00 00 00 00 00 00 00 80 06 00 02 00 00 09 00   ................
0030  00 00 00 00 00 00 00 00 00 02 00 00 00 00 00 00   ................

No.     Time        Source                Destination           Protocol Info
     46 45.565109   79.0                  host                  USB      GET DESCRIPTOR Response CONFIGURATION

Frame 46: 73 bytes on wire (584 bits), 73 bytes captured (584 bits)
    Arrival Time: Dec  5, 2011 16:27:01.611510000 CET
    Epoch Time: 1323098821.611510000 seconds
    [Time delta from previous captured frame: 0.000081000 seconds]
    [Time delta from previous displayed frame: 0.000081000 seconds]
    [Time since reference or first frame: 45.565109000 seconds]
    Frame Number: 46
    Frame Length: 73 bytes (584 bits)
    Capture Length: 73 bytes (584 bits)
    [Frame is marked: False]
    [Frame is ignored: False]
    [Protocols in frame: usb]
USB URB
    URB id: 0xffff88012dbe5840
    URB type: URB_COMPLETE ('C')
    URB transfer type: URB_CONTROL out (0x02)
    Endpoint: 0x80
    Device: 79
    URB bus id: 2
    Device setup request: not relevant ('-')
    Data: present (0)
    URB sec: 1323098821
    URB usec: 611510
    URB status: Success (0)
    URB length [bytes]: 9
    Data length [bytes]: 9
    [Request in: 45]
    [Time from request: 0.000081000 seconds]
    [bInterfaceClass: VENDOR_SPECIFIC (0xff)]
    CONFIGURATION DESCRIPTOR
        bLength: 9
        bDescriptorType: CONFIGURATION (2)
        wTotalLength: 18
        bNumInterfaces: 1
        bConfigurationValue: 1
        iConfiguration: 0
        Configuration bmAttributes: 0x80  NOT SELF-POWERED  NO REMOTE-WAKEUP
            1... .... = Must be 1: Must be 1 for USB 1.1 and higher
            .0.. .... = Self-Powered: This device is powered from the USB bus
            ..0. .... = Remote Wakeup: This device does NOT support remote wakeup
        bMaxPower: 100  (200mA)

0000  40 58 be 2d 01 88 ff ff 43 02 80 4f 02 00 2d 00   @X.-....C..O..-.
0010  c5 e2 dc 4e 00 00 00 00 b6 54 09 00 00 00 00 00   ...N.....T......
0020  09 00 00 00 09 00 00 00 00 00 00 00 00 00 00 00   ................
0030  00 00 00 00 00 00 00 00 00 02 00 00 00 00 00 00   ................
0040  09 02 12 00 01 01 00 80 64                        ........d

No.     Time        Source                Destination           Protocol Info
     47 45.567115   host                  79.0                  USB      GET DESCRIPTOR Request CONFIGURATION

Frame 47: 64 bytes on wire (512 bits), 64 bytes captured (512 bits)
    Arrival Time: Dec  5, 2011 16:27:01.613516000 CET
    Epoch Time: 1323098821.613516000 seconds
    [Time delta from previous captured frame: 0.002006000 seconds]
    [Time delta from previous displayed frame: 0.002006000 seconds]
    [Time since reference or first frame: 45.567115000 seconds]
    Frame Number: 47
    Frame Length: 64 bytes (512 bits)
    Capture Length: 64 bytes (512 bits)
    [Frame is marked: False]
    [Frame is ignored: False]
    [Protocols in frame: usb]
USB URB
    URB id: 0xffff88012eeee680
    URB type: URB_SUBMIT ('S')
    URB transfer type: URB_CONTROL out (0x02)
    Endpoint: 0x80
    Device: 79
    URB bus id: 2
    Device setup request: relevant (0)
    Data: not present ('<')
    URB sec: 1323098821
    URB usec: 613516
    URB status: Operation now in progress (-EINPROGRESS) (-115)
    URB length [bytes]: 18
    Data length [bytes]: 0
    [Response in: 48]
    [bInterfaceClass: VENDOR_SPECIFIC (0xff)]
    URB setup
        bmRequestType: 0x80
            1... .... = Direction: Device-to-host
            .00. .... = Type: Standard (0x00)
            ...0 0000 = Recipient: Device (0x00)
        bRequest: GET DESCRIPTOR (6)
        Descriptor Index: 0x00
        bDescriptorType: CONFIGURATION (2)
        Language Id: no language specified (0x0000)
        wLength: 18

0000  80 e6 ee 2e 01 88 ff ff 53 02 80 4f 02 00 00 3c   ........S..O...<
0010  c5 e2 dc 4e 00 00 00 00 8c 5c 09 00 8d ff ff ff   ...N.....\......
0020  12 00 00 00 00 00 00 00 80 06 00 02 00 00 12 00   ................
0030  00 00 00 00 00 00 00 00 00 02 00 00 00 00 00 00   ................

No.     Time        Source                Destination           Protocol Info
     48 45.567234   79.0                  host                  USB      GET DESCRIPTOR Response CONFIGURATION

Frame 48: 82 bytes on wire (656 bits), 82 bytes captured (656 bits)
    Arrival Time: Dec  5, 2011 16:27:01.613635000 CET
    Epoch Time: 1323098821.613635000 seconds
    [Time delta from previous captured frame: 0.000119000 seconds]
    [Time delta from previous displayed frame: 0.000119000 seconds]
    [Time since reference or first frame: 45.567234000 seconds]
    Frame Number: 48
    Frame Length: 82 bytes (656 bits)
    Capture Length: 82 bytes (656 bits)
    [Frame is marked: False]
    [Frame is ignored: False]
    [Protocols in frame: usb]
USB URB
    URB id: 0xffff88012eeee680
    URB type: URB_COMPLETE ('C')
    URB transfer type: URB_CONTROL out (0x02)
    Endpoint: 0x80
    Device: 79
    URB bus id: 2
    Device setup request: not relevant ('-')
    Data: present (0)
    URB sec: 1323098821
    URB usec: 613635
    URB status: Success (0)
    URB length [bytes]: 18
    Data length [bytes]: 18
    [Request in: 47]
    [Time from request: 0.000119000 seconds]
    [bInterfaceClass: VENDOR_SPECIFIC (0xff)]
    CONFIGURATION DESCRIPTOR
        bLength: 9
        bDescriptorType: CONFIGURATION (2)
        wTotalLength: 18
        bNumInterfaces: 1
        bConfigurationValue: 1
        iConfiguration: 0
        Configuration bmAttributes: 0x80  NOT SELF-POWERED  NO REMOTE-WAKEUP
            1... .... = Must be 1: Must be 1 for USB 1.1 and higher
            .0.. .... = Self-Powered: This device is powered from the USB bus
            ..0. .... = Remote Wakeup: This device does NOT support remote wakeup
        bMaxPower: 100  (200mA)
    INTERFACE DESCRIPTOR
        bLength: 9
        bDescriptorType: INTERFACE (4)
        bInterfaceNumber: 0
        bAlternateSetting: 0
        bNumEndpoints: 0
        bInterfaceClass: VENDOR_SPECIFIC (0xff)
        bInterfaceSubClass: 0xff
        bInterfaceProtocol: 0xff
        iInterface: 0

0000  80 e6 ee 2e 01 88 ff ff 43 02 80 4f 02 00 2d 00   ........C..O..-.
0010  c5 e2 dc 4e 00 00 00 00 03 5d 09 00 00 00 00 00   ...N.....]......
0020  12 00 00 00 12 00 00 00 00 00 00 00 00 00 00 00   ................
0030  00 00 00 00 00 00 00 00 00 02 00 00 00 00 00 00   ................
0040  09 02 12 00 01 01 00 80 64 09 04 00 00 00 ff ff   ........d.......
0050  ff 00                                             ..

No.     Time        Source                Destination           Protocol Info
     69 68.849642   host                  0.0                   USB      SET ADDRESS Request

Frame 69: 64 bytes on wire (512 bits), 64 bytes captured (512 bits)
    Arrival Time: Dec  5, 2011 16:27:24.896043000 CET
    Epoch Time: 1323098844.896043000 seconds
    [Time delta from previous captured frame: 0.000027000 seconds]
    [Time delta from previous displayed frame: 23.282408000 seconds]
    [Time since reference or first frame: 68.849642000 seconds]
    Frame Number: 69
    Frame Length: 64 bytes (512 bits)
    Capture Length: 64 bytes (512 bits)
    [Frame is marked: False]
    [Frame is ignored: False]
    [Protocols in frame: usb]
USB URB
    URB id: 0xffff88012746b680
    URB type: URB_SUBMIT ('S')
    URB transfer type: URB_CONTROL out (0x02)
    Endpoint: 0x00
    Device: 0
    URB bus id: 2
    Device setup request: relevant (0)
    Data: present (0)
    URB sec: 1323098844
    URB usec: 896043
    URB status: Operation now in progress (-EINPROGRESS) (-115)
    URB length [bytes]: 0
    Data length [bytes]: 0
    [Response in: 70]
    [bInterfaceClass: Unknown (0xffff)]
    URB setup
        bmRequestType: 0x00
            0... .... = Direction: Host-to-device
            .00. .... = Type: Standard (0x00)
            ...0 0000 = Recipient: Device (0x00)
        bRequest: SET ADDRESS (5)
        Device: 79
        wIndex: 0
        wLength: 0

0000  80 b6 46 27 01 88 ff ff 53 02 00 00 02 00 00 00   ..F'....S.......
0010  dc e2 dc 4e 00 00 00 00 2b ac 0d 00 8d ff ff ff   ...N....+.......
0020  00 00 00 00 00 00 00 00 00 05 4f 00 00 00 00 00   ..........O.....
0030  00 00 00 00 00 00 00 00 00 00 00 00 00 00 00 00   ................

No.     Time        Source                Destination           Protocol Info
     71 68.861444   host                  79.0                  USB      GET DESCRIPTOR Request DEVICE

Frame 71: 64 bytes on wire (512 bits), 64 bytes captured (512 bits)
    Arrival Time: Dec  5, 2011 16:27:24.907845000 CET
    Epoch Time: 1323098844.907845000 seconds
    [Time delta from previous captured frame: 0.011704000 seconds]
    [Time delta from previous displayed frame: 0.011802000 seconds]
    [Time since reference or first frame: 68.861444000 seconds]
    Frame Number: 71
    Frame Length: 64 bytes (512 bits)
    Capture Length: 64 bytes (512 bits)
    [Frame is marked: False]
    [Frame is ignored: False]
    [Protocols in frame: usb]
USB URB
    URB id: 0xffff88012746b440
    URB type: URB_SUBMIT ('S')
    URB transfer type: URB_CONTROL out (0x02)
    Endpoint: 0x80
    Device: 79
    URB bus id: 2
    Device setup request: relevant (0)
    Data: not present ('<')
    URB sec: 1323098844
    URB usec: 907845
    URB status: Operation now in progress (-EINPROGRESS) (-115)
    URB length [bytes]: 18
    Data length [bytes]: 0
    [Response in: 72]
    [bInterfaceClass: VENDOR_SPECIFIC (0xff)]
    URB setup
        bmRequestType: 0x80
            1... .... = Direction: Device-to-host
            .00. .... = Type: Standard (0x00)
            ...0 0000 = Recipient: Device (0x00)
        bRequest: GET DESCRIPTOR (6)
        Descriptor Index: 0x00
        bDescriptorType: DEVICE (1)
        Language Id: no language specified (0x0000)
        wLength: 18

0000  40 b4 46 27 01 88 ff ff 53 02 80 4f 02 00 00 3c   @.F'....S..O...<
0010  dc e2 dc 4e 00 00 00 00 45 da 0d 00 8d ff ff ff   ...N....E.......
0020  12 00 00 00 00 00 00 00 80 06 00 01 00 00 12 00   ................
0030  00 00 00 00 00 00 00 00 00 02 00 00 00 00 00 00   ................

No.     Time        Source                Destination           Protocol Info
     72 68.861616   79.0                  host                  USB      GET DESCRIPTOR Response DEVICE

Frame 72: 82 bytes on wire (656 bits), 82 bytes captured (656 bits)
    Arrival Time: Dec  5, 2011 16:27:24.908017000 CET
    Epoch Time: 1323098844.908017000 seconds
    [Time delta from previous captured frame: 0.000172000 seconds]
    [Time delta from previous displayed frame: 0.000172000 seconds]
    [Time since reference or first frame: 68.861616000 seconds]
    Frame Number: 72
    Frame Length: 82 bytes (656 bits)
    Capture Length: 82 bytes (656 bits)
    [Frame is marked: False]
    [Frame is ignored: False]
    [Protocols in frame: usb]
USB URB
    URB id: 0xffff88012746b440
    URB type: URB_COMPLETE ('C')
    URB transfer type: URB_CONTROL out (0x02)
    Endpoint: 0x80
    Device: 79
    URB bus id: 2
    Device setup request: not relevant ('-')
    Data: present (0)
    URB sec: 1323098844
    URB usec: 908017
    URB status: Success (0)
    URB length [bytes]: 18
    Data length [bytes]: 18
    [Request in: 71]
    [Time from request: 0.000172000 seconds]
    [bInterfaceClass: VENDOR_SPECIFIC (0xff)]
    DEVICE DESCRIPTOR
        bLength: 18
        bDescriptorType: DEVICE (1)
        bcdUSB: 0x0200
        bDeviceClass: 0
        bDeviceSubClass: 0
        bDeviceProtocol: 0
        bMaxPacketSize0: 64
        idVendor: 0x1c88
        idProduct: 0x0007
        bcdDevice: 0x0100
        iManufacturer: 1
        iProduct: 2
        iSerialNumber: 3
        bNumConfigurations: 1

0000  40 b4 46 27 01 88 ff ff 43 02 80 4f 02 00 2d 00   @.F'....C..O..-.
0010  dc e2 dc 4e 00 00 00 00 f1 da 0d 00 00 00 00 00   ...N............
0020  12 00 00 00 12 00 00 00 00 00 00 00 00 00 00 00   ................
0030  00 00 00 00 00 00 00 00 00 02 00 00 00 00 00 00   ................
0040  12 01 00 02 00 00 00 40 88 1c 07 00 00 01 01 02   .......@........
0050  03 01                                             ..

No.     Time        Source                Destination           Protocol Info
     73 68.861662   host                  79.0                  USB      GET DESCRIPTOR Request CONFIGURATION

Frame 73: 64 bytes on wire (512 bits), 64 bytes captured (512 bits)
    Arrival Time: Dec  5, 2011 16:27:24.908063000 CET
    Epoch Time: 1323098844.908063000 seconds
    [Time delta from previous captured frame: 0.000046000 seconds]
    [Time delta from previous displayed frame: 0.000046000 seconds]
    [Time since reference or first frame: 68.861662000 seconds]
    Frame Number: 73
    Frame Length: 64 bytes (512 bits)
    Capture Length: 64 bytes (512 bits)
    [Frame is marked: False]
    [Frame is ignored: False]
    [Protocols in frame: usb]
USB URB
    URB id: 0xffff88012746b440
    URB type: URB_SUBMIT ('S')
    URB transfer type: URB_CONTROL out (0x02)
    Endpoint: 0x80
    Device: 79
    URB bus id: 2
    Device setup request: relevant (0)
    Data: not present ('<')
    URB sec: 1323098844
    URB usec: 908063
    URB status: Operation now in progress (-EINPROGRESS) (-115)
    URB length [bytes]: 18
    Data length [bytes]: 0
    [Response in: 74]
    [bInterfaceClass: VENDOR_SPECIFIC (0xff)]
    URB setup
        bmRequestType: 0x80
            1... .... = Direction: Device-to-host
            .00. .... = Type: Standard (0x00)
            ...0 0000 = Recipient: Device (0x00)
        bRequest: GET DESCRIPTOR (6)
        Descriptor Index: 0x00
        bDescriptorType: CONFIGURATION (2)
        Language Id: no language specified (0x0000)
        wLength: 18

0000  40 b4 46 27 01 88 ff ff 53 02 80 4f 02 00 00 3c   @.F'....S..O...<
0010  dc e2 dc 4e 00 00 00 00 1f db 0d 00 8d ff ff ff   ...N............
0020  12 00 00 00 00 00 00 00 80 06 00 02 00 00 12 00   ................
0030  00 00 00 00 00 00 00 00 00 02 00 00 00 00 00 00   ................

No.     Time        Source                Destination           Protocol Info
     74 68.861868   79.0                  host                  USB      GET DESCRIPTOR Response CONFIGURATION

Frame 74: 82 bytes on wire (656 bits), 82 bytes captured (656 bits)
    Arrival Time: Dec  5, 2011 16:27:24.908269000 CET
    Epoch Time: 1323098844.908269000 seconds
    [Time delta from previous captured frame: 0.000206000 seconds]
    [Time delta from previous displayed frame: 0.000206000 seconds]
    [Time since reference or first frame: 68.861868000 seconds]
    Frame Number: 74
    Frame Length: 82 bytes (656 bits)
    Capture Length: 82 bytes (656 bits)
    [Frame is marked: False]
    [Frame is ignored: False]
    [Protocols in frame: usb]
USB URB
    URB id: 0xffff88012746b440
    URB type: URB_COMPLETE ('C')
    URB transfer type: URB_CONTROL out (0x02)
    Endpoint: 0x80
    Device: 79
    URB bus id: 2
    Device setup request: not relevant ('-')
    Data: present (0)
    URB sec: 1323098844
    URB usec: 908269
    URB status: Success (0)
    URB length [bytes]: 18
    Data length [bytes]: 18
    [Request in: 73]
    [Time from request: 0.000206000 seconds]
    [bInterfaceClass: VENDOR_SPECIFIC (0xff)]
    CONFIGURATION DESCRIPTOR
        bLength: 9
        bDescriptorType: CONFIGURATION (2)
        wTotalLength: 18
        bNumInterfaces: 1
        bConfigurationValue: 1
        iConfiguration: 0
        Configuration bmAttributes: 0x80  NOT SELF-POWERED  NO REMOTE-WAKEUP
            1... .... = Must be 1: Must be 1 for USB 1.1 and higher
            .0.. .... = Self-Powered: This device is powered from the USB bus
            ..0. .... = Remote Wakeup: This device does NOT support remote wakeup
        bMaxPower: 100  (200mA)
    INTERFACE DESCRIPTOR
        bLength: 9
        bDescriptorType: INTERFACE (4)
        bInterfaceNumber: 0
        bAlternateSetting: 0
        bNumEndpoints: 0
        bInterfaceClass: VENDOR_SPECIFIC (0xff)
        bInterfaceSubClass: 0xff
        bInterfaceProtocol: 0xff
        iInterface: 0

0000  40 b4 46 27 01 88 ff ff 43 02 80 4f 02 00 2d 00   @.F'....C..O..-.
0010  dc e2 dc 4e 00 00 00 00 ed db 0d 00 00 00 00 00   ...N............
0020  12 00 00 00 12 00 00 00 00 00 00 00 00 00 00 00   ................
0030  00 00 00 00 00 00 00 00 00 02 00 00 00 00 00 00   ................
0040  09 02 12 00 01 01 00 80 64 09 04 00 00 00 ff ff   ........d.......
0050  ff 00                                             ..

No.     Time        Source                Destination           Protocol Info
     75 68.861901   host                  79.0                  USB      GET DESCRIPTOR Request STRING

Frame 75: 64 bytes on wire (512 bits), 64 bytes captured (512 bits)
    Arrival Time: Dec  5, 2011 16:27:24.908302000 CET
    Epoch Time: 1323098844.908302000 seconds
    [Time delta from previous captured frame: 0.000033000 seconds]
    [Time delta from previous displayed frame: 0.000033000 seconds]
    [Time since reference or first frame: 68.861901000 seconds]
    Frame Number: 75
    Frame Length: 64 bytes (512 bits)
    Capture Length: 64 bytes (512 bits)
    [Frame is marked: False]
    [Frame is ignored: False]
    [Protocols in frame: usb]
USB URB
    URB id: 0xffff88012746b440
    URB type: URB_SUBMIT ('S')
    URB transfer type: URB_CONTROL out (0x02)
    Endpoint: 0x80
    Device: 79
    URB bus id: 2
    Device setup request: relevant (0)
    Data: not present ('<')
    URB sec: 1323098844
    URB usec: 908302
    URB status: Operation now in progress (-EINPROGRESS) (-115)
    URB length [bytes]: 255
    Data length [bytes]: 0
    [Response in: 76]
    [bInterfaceClass: VENDOR_SPECIFIC (0xff)]
    URB setup
        bmRequestType: 0x80
            1... .... = Direction: Device-to-host
            .00. .... = Type: Standard (0x00)
            ...0 0000 = Recipient: Device (0x00)
        bRequest: GET DESCRIPTOR (6)
        Descriptor Index: 0x03
        bDescriptorType: STRING (3)
        Language Id: English (United States) (0x0409)
        wLength: 255

0000  40 b4 46 27 01 88 ff ff 53 02 80 4f 02 00 00 3c   @.F'....S..O...<
0010  dc e2 dc 4e 00 00 00 00 0e dc 0d 00 8d ff ff ff   ...N............
0020  ff 00 00 00 00 00 00 00 80 06 03 03 09 04 ff 00   ................
0030  00 00 00 00 00 00 00 00 00 02 00 00 00 00 00 00   ................

No.     Time        Source                Destination           Protocol Info
     76 68.861988   79.0                  host                  USB      GET DESCRIPTOR Response STRING

Frame 76: 80 bytes on wire (640 bits), 80 bytes captured (640 bits)
    Arrival Time: Dec  5, 2011 16:27:24.908389000 CET
    Epoch Time: 1323098844.908389000 seconds
    [Time delta from previous captured frame: 0.000087000 seconds]
    [Time delta from previous displayed frame: 0.000087000 seconds]
    [Time since reference or first frame: 68.861988000 seconds]
    Frame Number: 76
    Frame Length: 80 bytes (640 bits)
    Capture Length: 80 bytes (640 bits)
    [Frame is marked: False]
    [Frame is ignored: False]
    [Protocols in frame: usb]
USB URB
    URB id: 0xffff88012746b440
    URB type: URB_COMPLETE ('C')
    URB transfer type: URB_CONTROL out (0x02)
    Endpoint: 0x80
    Device: 79
    URB bus id: 2
    Device setup request: not relevant ('-')
    Data: present (0)
    URB sec: 1323098844
    URB usec: 908389
    URB status: Success (0)
    URB length [bytes]: 16
    Data length [bytes]: 16
    [Request in: 75]
    [Time from request: 0.000087000 seconds]
    [bInterfaceClass: VENDOR_SPECIFIC (0xff)]
    STRING DESCRIPTOR
        bLength: 16
        bDescriptorType: STRING (3)
        bString: SMBL007

0000  40 b4 46 27 01 88 ff ff 43 02 80 4f 02 00 2d 00   @.F'....C..O..-.
0010  dc e2 dc 4e 00 00 00 00 65 dc 0d 00 00 00 00 00   ...N....e.......
0020  10 00 00 00 10 00 00 00 00 00 00 00 00 00 00 00   ................
0030  00 00 00 00 00 00 00 00 00 02 00 00 00 00 00 00   ................
0040  10 03 53 00 4d 00 42 00 4c 00 30 00 30 00 37 00   ..S.M.B.L.0.0.7.

No.     Time        Source                Destination           Protocol Info
     77 68.862016   host                  79.0                  USB      SET CONFIGURATION Request

Frame 77: 64 bytes on wire (512 bits), 64 bytes captured (512 bits)
    Arrival Time: Dec  5, 2011 16:27:24.908417000 CET
    Epoch Time: 1323098844.908417000 seconds
    [Time delta from previous captured frame: 0.000028000 seconds]
    [Time delta from previous displayed frame: 0.000028000 seconds]
    [Time since reference or first frame: 68.862016000 seconds]
    Frame Number: 77
    Frame Length: 64 bytes (512 bits)
    Capture Length: 64 bytes (512 bits)
    [Frame is marked: False]
    [Frame is ignored: False]
    [Protocols in frame: usb]
USB URB
    URB id: 0xffff88012746b440
    URB type: URB_SUBMIT ('S')
    URB transfer type: URB_CONTROL out (0x02)
    Endpoint: 0x00
    Device: 79
    URB bus id: 2
    Device setup request: relevant (0)
    Data: present (0)
    URB sec: 1323098844
    URB usec: 908417
    URB status: Operation now in progress (-EINPROGRESS) (-115)
    URB length [bytes]: 0
    Data length [bytes]: 0
    [Response in: 78]
    [bInterfaceClass: VENDOR_SPECIFIC (0xff)]
    URB setup
        bmRequestType: 0x00
            0... .... = Direction: Host-to-device
            .00. .... = Type: Standard (0x00)
            ...0 0000 = Recipient: Device (0x00)
        bRequest: SET CONFIGURATION (9)
        bConfigurationValue: 1
        wIndex: 0
        wLength: 0

0000  40 b4 46 27 01 88 ff ff 53 02 00 4f 02 00 00 00   @.F'....S..O....
0010  dc e2 dc 4e 00 00 00 00 81 dc 0d 00 8d ff ff ff   ...N............
0020  00 00 00 00 00 00 00 00 00 09 01 00 00 00 00 00   ................
0030  00 00 00 00 00 00 00 00 00 00 00 00 00 00 00 00   ................

No.     Time        Source                Destination           Protocol Info
     78 68.862116   79.0                  host                  USB      SET CONFIGURATION Response

Frame 78: 64 bytes on wire (512 bits), 64 bytes captured (512 bits)
    Arrival Time: Dec  5, 2011 16:27:24.908517000 CET
    Epoch Time: 1323098844.908517000 seconds
    [Time delta from previous captured frame: 0.000100000 seconds]
    [Time delta from previous displayed frame: 0.000100000 seconds]
    [Time since reference or first frame: 68.862116000 seconds]
    Frame Number: 78
    Frame Length: 64 bytes (512 bits)
    Capture Length: 64 bytes (512 bits)
    [Frame is marked: False]
    [Frame is ignored: False]
    [Protocols in frame: usb]
USB URB
    URB id: 0xffff88012746b440
    URB type: URB_COMPLETE ('C')
    URB transfer type: URB_CONTROL out (0x02)
    Endpoint: 0x00
    Device: 79
    URB bus id: 2
    Device setup request: not relevant ('-')
    Data: not present ('>')
    URB sec: 1323098844
    URB usec: 908517
    URB status: Success (0)
    URB length [bytes]: 0
    Data length [bytes]: 0
    [Request in: 77]
    [Time from request: 0.000100000 seconds]
    [bInterfaceClass: VENDOR_SPECIFIC (0xff)]

0000  40 b4 46 27 01 88 ff ff 43 02 00 4f 02 00 2d 3e   @.F'....C..O..->
0010  dc e2 dc 4e 00 00 00 00 e5 dc 0d 00 00 00 00 00   ...N............
0020  00 00 00 00 00 00 00 00 00 00 00 00 00 00 00 00   ................
0030  00 00 00 00 00 00 00 00 00 00 00 00 00 00 00 00   ................

No.     Time        Source                Destination           Protocol Info
     95 69.137725   host                  0.0                   USB      SET ADDRESS Request

Frame 95: 64 bytes on wire (512 bits), 64 bytes captured (512 bits)
    Arrival Time: Dec  5, 2011 16:27:25.184126000 CET
    Epoch Time: 1323098845.184126000 seconds
    [Time delta from previous captured frame: 0.000076000 seconds]
    [Time delta from previous displayed frame: 0.275609000 seconds]
    [Time since reference or first frame: 69.137725000 seconds]
    Frame Number: 95
    Frame Length: 64 bytes (512 bits)
    Capture Length: 64 bytes (512 bits)
    [Frame is marked: False]
    [Frame is ignored: False]
    [Protocols in frame: usb]
USB URB
    URB id: 0xffff88012746b440
    URB type: URB_SUBMIT ('S')
    URB transfer type: URB_CONTROL out (0x02)
    Endpoint: 0x00
    Device: 0
    URB bus id: 2
    Device setup request: relevant (0)
    Data: present (0)
    URB sec: 1323098845
    URB usec: 184126
    URB status: Operation now in progress (-EINPROGRESS) (-115)
    URB length [bytes]: 0
    Data length [bytes]: 0
    [Response in: 96]
    [bInterfaceClass: Unknown (0xffff)]
    URB setup
        bmRequestType: 0x00
            0... .... = Direction: Host-to-device
            .00. .... = Type: Standard (0x00)
            ...0 0000 = Recipient: Device (0x00)
        bRequest: SET ADDRESS (5)
        Device: 79
        wIndex: 0
        wLength: 0

0000  40 b4 46 27 01 88 ff ff 53 02 00 00 02 00 00 00   @.F'....S.......
0010  dd e2 dc 4e 00 00 00 00 3e cf 02 00 8d ff ff ff   ...N....>.......
0020  00 00 00 00 00 00 00 00 00 05 4f 00 00 00 00 00   ..........O.....
0030  00 00 00 00 00 00 00 00 00 00 00 00 00 00 00 00   ................

No.     Time        Source                Destination           Protocol Info
     97 69.149512   host                  79.0                  USB      GET DESCRIPTOR Request DEVICE

Frame 97: 64 bytes on wire (512 bits), 64 bytes captured (512 bits)
    Arrival Time: Dec  5, 2011 16:27:25.195913000 CET
    Epoch Time: 1323098845.195913000 seconds
    [Time delta from previous captured frame: 0.011646000 seconds]
    [Time delta from previous displayed frame: 0.011787000 seconds]
    [Time since reference or first frame: 69.149512000 seconds]
    Frame Number: 97
    Frame Length: 64 bytes (512 bits)
    Capture Length: 64 bytes (512 bits)
    [Frame is marked: False]
    [Frame is ignored: False]
    [Protocols in frame: usb]
USB URB
    URB id: 0xffff88012746b440
    URB type: URB_SUBMIT ('S')
    URB transfer type: URB_CONTROL out (0x02)
    Endpoint: 0x80
    Device: 79
    URB bus id: 2
    Device setup request: relevant (0)
    Data: not present ('<')
    URB sec: 1323098845
    URB usec: 195913
    URB status: Operation now in progress (-EINPROGRESS) (-115)
    URB length [bytes]: 18
    Data length [bytes]: 0
    [Response in: 98]
    [bInterfaceClass: VENDOR_SPECIFIC (0xff)]
    URB setup
        bmRequestType: 0x80
            1... .... = Direction: Device-to-host
            .00. .... = Type: Standard (0x00)
            ...0 0000 = Recipient: Device (0x00)
        bRequest: GET DESCRIPTOR (6)
        Descriptor Index: 0x00
        bDescriptorType: DEVICE (1)
        Language Id: no language specified (0x0000)
        wLength: 18

0000  40 b4 46 27 01 88 ff ff 53 02 80 4f 02 00 00 3c   @.F'....S..O...<
0010  dd e2 dc 4e 00 00 00 00 49 fd 02 00 8d ff ff ff   ...N....I.......
0020  12 00 00 00 00 00 00 00 80 06 00 01 00 00 12 00   ................
0030  00 00 00 00 00 00 00 00 00 02 00 00 00 00 00 00   ................

No.     Time        Source                Destination           Protocol Info
     98 69.149662   79.0                  host                  USB      GET DESCRIPTOR Response DEVICE

Frame 98: 82 bytes on wire (656 bits), 82 bytes captured (656 bits)
    Arrival Time: Dec  5, 2011 16:27:25.196063000 CET
    Epoch Time: 1323098845.196063000 seconds
    [Time delta from previous captured frame: 0.000150000 seconds]
    [Time delta from previous displayed frame: 0.000150000 seconds]
    [Time since reference or first frame: 69.149662000 seconds]
    Frame Number: 98
    Frame Length: 82 bytes (656 bits)
    Capture Length: 82 bytes (656 bits)
    [Frame is marked: False]
    [Frame is ignored: False]
    [Protocols in frame: usb]
USB URB
    URB id: 0xffff88012746b440
    URB type: URB_COMPLETE ('C')
    URB transfer type: URB_CONTROL out (0x02)
    Endpoint: 0x80
    Device: 79
    URB bus id: 2
    Device setup request: not relevant ('-')
    Data: present (0)
    URB sec: 1323098845
    URB usec: 196063
    URB status: Success (0)
    URB length [bytes]: 18
    Data length [bytes]: 18
    [Request in: 97]
    [Time from request: 0.000150000 seconds]
    [bInterfaceClass: VENDOR_SPECIFIC (0xff)]
    DEVICE DESCRIPTOR
        bLength: 18
        bDescriptorType: DEVICE (1)
        bcdUSB: 0x0200
        bDeviceClass: 0
        bDeviceSubClass: 0
        bDeviceProtocol: 0
        bMaxPacketSize0: 64
        idVendor: 0x1c88
        idProduct: 0x0007
        bcdDevice: 0x0100
        iManufacturer: 1
        iProduct: 2
        iSerialNumber: 3
        bNumConfigurations: 1

0000  40 b4 46 27 01 88 ff ff 43 02 80 4f 02 00 2d 00   @.F'....C..O..-.
0010  dd e2 dc 4e 00 00 00 00 df fd 02 00 00 00 00 00   ...N............
0020  12 00 00 00 12 00 00 00 00 00 00 00 00 00 00 00   ................
0030  00 00 00 00 00 00 00 00 00 02 00 00 00 00 00 00   ................
0040  12 01 00 02 00 00 00 40 88 1c 07 00 00 01 01 02   .......@........
0050  03 01                                             ..

No.     Time        Source                Destination           Protocol Info
     99 69.149715   host                  79.0                  USB      GET DESCRIPTOR Request CONFIGURATION

Frame 99: 64 bytes on wire (512 bits), 64 bytes captured (512 bits)
    Arrival Time: Dec  5, 2011 16:27:25.196116000 CET
    Epoch Time: 1323098845.196116000 seconds
    [Time delta from previous captured frame: 0.000053000 seconds]
    [Time delta from previous displayed frame: 0.000053000 seconds]
    [Time since reference or first frame: 69.149715000 seconds]
    Frame Number: 99
    Frame Length: 64 bytes (512 bits)
    Capture Length: 64 bytes (512 bits)
    [Frame is marked: False]
    [Frame is ignored: False]
    [Protocols in frame: usb]
USB URB
    URB id: 0xffff88012746b440
    URB type: URB_SUBMIT ('S')
    URB transfer type: URB_CONTROL out (0x02)
    Endpoint: 0x80
    Device: 79
    URB bus id: 2
    Device setup request: relevant (0)
    Data: not present ('<')
    URB sec: 1323098845
    URB usec: 196116
    URB status: Operation now in progress (-EINPROGRESS) (-115)
    URB length [bytes]: 18
    Data length [bytes]: 0
    [Response in: 100]
    [bInterfaceClass: VENDOR_SPECIFIC (0xff)]
    URB setup
        bmRequestType: 0x80
            1... .... = Direction: Device-to-host
            .00. .... = Type: Standard (0x00)
            ...0 0000 = Recipient: Device (0x00)
        bRequest: GET DESCRIPTOR (6)
        Descriptor Index: 0x00
        bDescriptorType: CONFIGURATION (2)
        Language Id: no language specified (0x0000)
        wLength: 18

0000  40 b4 46 27 01 88 ff ff 53 02 80 4f 02 00 00 3c   @.F'....S..O...<
0010  dd e2 dc 4e 00 00 00 00 14 fe 02 00 8d ff ff ff   ...N............
0020  12 00 00 00 00 00 00 00 80 06 00 02 00 00 12 00   ................
0030  00 00 00 00 00 00 00 00 00 02 00 00 00 00 00 00   ................

No.     Time        Source                Destination           Protocol Info
    100 69.149900   79.0                  host                  USB      GET DESCRIPTOR Response CONFIGURATION

Frame 100: 82 bytes on wire (656 bits), 82 bytes captured (656 bits)
    Arrival Time: Dec  5, 2011 16:27:25.196301000 CET
    Epoch Time: 1323098845.196301000 seconds
    [Time delta from previous captured frame: 0.000185000 seconds]
    [Time delta from previous displayed frame: 0.000185000 seconds]
    [Time since reference or first frame: 69.149900000 seconds]
    Frame Number: 100
    Frame Length: 82 bytes (656 bits)
    Capture Length: 82 bytes (656 bits)
    [Frame is marked: False]
    [Frame is ignored: False]
    [Protocols in frame: usb]
USB URB
    URB id: 0xffff88012746b440
    URB type: URB_COMPLETE ('C')
    URB transfer type: URB_CONTROL out (0x02)
    Endpoint: 0x80
    Device: 79
    URB bus id: 2
    Device setup request: not relevant ('-')
    Data: present (0)
    URB sec: 1323098845
    URB usec: 196301
    URB status: Success (0)
    URB length [bytes]: 18
    Data length [bytes]: 18
    [Request in: 99]
    [Time from request: 0.000185000 seconds]
    [bInterfaceClass: VENDOR_SPECIFIC (0xff)]
    CONFIGURATION DESCRIPTOR
        bLength: 9
        bDescriptorType: CONFIGURATION (2)
        wTotalLength: 18
        bNumInterfaces: 1
        bConfigurationValue: 1
        iConfiguration: 0
        Configuration bmAttributes: 0x80  NOT SELF-POWERED  NO REMOTE-WAKEUP
            1... .... = Must be 1: Must be 1 for USB 1.1 and higher
            .0.. .... = Self-Powered: This device is powered from the USB bus
            ..0. .... = Remote Wakeup: This device does NOT support remote wakeup
        bMaxPower: 100  (200mA)
    INTERFACE DESCRIPTOR
        bLength: 9
        bDescriptorType: INTERFACE (4)
        bInterfaceNumber: 0
        bAlternateSetting: 0
        bNumEndpoints: 0
        bInterfaceClass: VENDOR_SPECIFIC (0xff)
        bInterfaceSubClass: 0xff
        bInterfaceProtocol: 0xff
        iInterface: 0

0000  40 b4 46 27 01 88 ff ff 43 02 80 4f 02 00 2d 00   @.F'....C..O..-.
0010  dd e2 dc 4e 00 00 00 00 cd fe 02 00 00 00 00 00   ...N............
0020  12 00 00 00 12 00 00 00 00 00 00 00 00 00 00 00   ................
0030  00 00 00 00 00 00 00 00 00 02 00 00 00 00 00 00   ................
0040  09 02 12 00 01 01 00 80 64 09 04 00 00 00 ff ff   ........d.......
0050  ff 00                                             ..

No.     Time        Source                Destination           Protocol Info
    101 69.149953   host                  79.0                  USB      GET DESCRIPTOR Request STRING

Frame 101: 64 bytes on wire (512 bits), 64 bytes captured (512 bits)
    Arrival Time: Dec  5, 2011 16:27:25.196354000 CET
    Epoch Time: 1323098845.196354000 seconds
    [Time delta from previous captured frame: 0.000053000 seconds]
    [Time delta from previous displayed frame: 0.000053000 seconds]
    [Time since reference or first frame: 69.149953000 seconds]
    Frame Number: 101
    Frame Length: 64 bytes (512 bits)
    Capture Length: 64 bytes (512 bits)
    [Frame is marked: False]
    [Frame is ignored: False]
    [Protocols in frame: usb]
USB URB
    URB id: 0xffff88012746b440
    URB type: URB_SUBMIT ('S')
    URB transfer type: URB_CONTROL out (0x02)
    Endpoint: 0x80
    Device: 79
    URB bus id: 2
    Device setup request: relevant (0)
    Data: not present ('<')
    URB sec: 1323098845
    URB usec: 196354
    URB status: Operation now in progress (-EINPROGRESS) (-115)
    URB length [bytes]: 255
    Data length [bytes]: 0
    [Response in: 102]
    [bInterfaceClass: VENDOR_SPECIFIC (0xff)]
    URB setup
        bmRequestType: 0x80
            1... .... = Direction: Device-to-host
            .00. .... = Type: Standard (0x00)
            ...0 0000 = Recipient: Device (0x00)
        bRequest: GET DESCRIPTOR (6)
        Descriptor Index: 0x03
        bDescriptorType: STRING (3)
        Language Id: English (United States) (0x0409)
        wLength: 255

0000  40 b4 46 27 01 88 ff ff 53 02 80 4f 02 00 00 3c   @.F'....S..O...<
0010  dd e2 dc 4e 00 00 00 00 02 ff 02 00 8d ff ff ff   ...N............
0020  ff 00 00 00 00 00 00 00 80 06 03 03 09 04 ff 00   ................
0030  00 00 00 00 00 00 00 00 00 02 00 00 00 00 00 00   ................

No.     Time        Source                Destination           Protocol Info
    102 69.150112   79.0                  host                  USB      GET DESCRIPTOR Response STRING

Frame 102: 80 bytes on wire (640 bits), 80 bytes captured (640 bits)
    Arrival Time: Dec  5, 2011 16:27:25.196513000 CET
    Epoch Time: 1323098845.196513000 seconds
    [Time delta from previous captured frame: 0.000159000 seconds]
    [Time delta from previous displayed frame: 0.000159000 seconds]
    [Time since reference or first frame: 69.150112000 seconds]
    Frame Number: 102
    Frame Length: 80 bytes (640 bits)
    Capture Length: 80 bytes (640 bits)
    [Frame is marked: False]
    [Frame is ignored: False]
    [Protocols in frame: usb]
USB URB
    URB id: 0xffff88012746b440
    URB type: URB_COMPLETE ('C')
    URB transfer type: URB_CONTROL out (0x02)
    Endpoint: 0x80
    Device: 79
    URB bus id: 2
    Device setup request: not relevant ('-')
    Data: present (0)
    URB sec: 1323098845
    URB usec: 196513
    URB status: Success (0)
    URB length [bytes]: 16
    Data length [bytes]: 16
    [Request in: 101]
    [Time from request: 0.000159000 seconds]
    [bInterfaceClass: VENDOR_SPECIFIC (0xff)]
    STRING DESCRIPTOR
        bLength: 16
        bDescriptorType: STRING (3)
        bString: SMBL007

0000  40 b4 46 27 01 88 ff ff 43 02 80 4f 02 00 2d 00   @.F'....C..O..-.
0010  dd e2 dc 4e 00 00 00 00 a1 ff 02 00 00 00 00 00   ...N............
0020  10 00 00 00 10 00 00 00 00 00 00 00 00 00 00 00   ................
0030  00 00 00 00 00 00 00 00 00 02 00 00 00 00 00 00   ................
0040  10 03 53 00 4d 00 42 00 4c 00 30 00 30 00 37 00   ..S.M.B.L.0.0.7.

No.     Time        Source                Destination           Protocol Info
    103 69.150171   host                  79.0                  USB      SET CONFIGURATION Request

Frame 103: 64 bytes on wire (512 bits), 64 bytes captured (512 bits)
    Arrival Time: Dec  5, 2011 16:27:25.196572000 CET
    Epoch Time: 1323098845.196572000 seconds
    [Time delta from previous captured frame: 0.000059000 seconds]
    [Time delta from previous displayed frame: 0.000059000 seconds]
    [Time since reference or first frame: 69.150171000 seconds]
    Frame Number: 103
    Frame Length: 64 bytes (512 bits)
    Capture Length: 64 bytes (512 bits)
    [Frame is marked: False]
    [Frame is ignored: False]
    [Protocols in frame: usb]
USB URB
    URB id: 0xffff88012746b440
    URB type: URB_SUBMIT ('S')
    URB transfer type: URB_CONTROL out (0x02)
    Endpoint: 0x00
    Device: 79
    URB bus id: 2
    Device setup request: relevant (0)
    Data: present (0)
    URB sec: 1323098845
    URB usec: 196572
    URB status: Operation now in progress (-EINPROGRESS) (-115)
    URB length [bytes]: 0
    Data length [bytes]: 0
    [Response in: 104]
    [bInterfaceClass: VENDOR_SPECIFIC (0xff)]
    URB setup
        bmRequestType: 0x00
            0... .... = Direction: Host-to-device
            .00. .... = Type: Standard (0x00)
            ...0 0000 = Recipient: Device (0x00)
        bRequest: SET CONFIGURATION (9)
        bConfigurationValue: 1
        wIndex: 0
        wLength: 0

0000  40 b4 46 27 01 88 ff ff 53 02 00 4f 02 00 00 00   @.F'....S..O....
0010  dd e2 dc 4e 00 00 00 00 dc ff 02 00 8d ff ff ff   ...N............
0020  00 00 00 00 00 00 00 00 00 09 01 00 00 00 00 00   ................
0030  00 00 00 00 00 00 00 00 00 00 00 00 00 00 00 00   ................

No.     Time        Source                Destination           Protocol Info
    104 69.150236   79.0                  host                  USB      SET CONFIGURATION Response

Frame 104: 64 bytes on wire (512 bits), 64 bytes captured (512 bits)
    Arrival Time: Dec  5, 2011 16:27:25.196637000 CET
    Epoch Time: 1323098845.196637000 seconds
    [Time delta from previous captured frame: 0.000065000 seconds]
    [Time delta from previous displayed frame: 0.000065000 seconds]
    [Time since reference or first frame: 69.150236000 seconds]
    Frame Number: 104
    Frame Length: 64 bytes (512 bits)
    Capture Length: 64 bytes (512 bits)
    [Frame is marked: False]
    [Frame is ignored: False]
    [Protocols in frame: usb]
USB URB
    URB id: 0xffff88012746b440
    URB type: URB_COMPLETE ('C')
    URB transfer type: URB_CONTROL out (0x02)
    Endpoint: 0x00
    Device: 79
    URB bus id: 2
    Device setup request: not relevant ('-')
    Data: not present ('>')
    URB sec: 1323098845
    URB usec: 196637
    URB status: Success (0)
    URB length [bytes]: 0
    Data length [bytes]: 0
    [Request in: 103]
    [Time from request: 0.000065000 seconds]
    [bInterfaceClass: VENDOR_SPECIFIC (0xff)]

0000  40 b4 46 27 01 88 ff ff 43 02 00 4f 02 00 2d 3e   @.F'....C..O..->
0010  dd e2 dc 4e 00 00 00 00 1d 00 03 00 00 00 00 00   ...N............
0020  00 00 00 00 00 00 00 00 00 00 00 00 00 00 00 00   ................
0030  00 00 00 00 00 00 00 00 00 00 00 00 00 00 00 00   ................

No.     Time        Source                Destination           Protocol Info
    105 69.250454   host                  79.0                  USB      GET DESCRIPTOR Request DEVICE

Frame 105: 64 bytes on wire (512 bits), 64 bytes captured (512 bits)
    Arrival Time: Dec  5, 2011 16:27:25.296855000 CET
    Epoch Time: 1323098845.296855000 seconds
    [Time delta from previous captured frame: 0.100218000 seconds]
    [Time delta from previous displayed frame: 0.100218000 seconds]
    [Time since reference or first frame: 69.250454000 seconds]
    Frame Number: 105
    Frame Length: 64 bytes (512 bits)
    Capture Length: 64 bytes (512 bits)
    [Frame is marked: False]
    [Frame is ignored: False]
    [Protocols in frame: usb]
USB URB
    URB id: 0xffff88012746b440
    URB type: URB_SUBMIT ('S')
    URB transfer type: URB_CONTROL out (0x02)
    Endpoint: 0x80
    Device: 79
    URB bus id: 2
    Device setup request: relevant (0)
    Data: not present ('<')
    URB sec: 1323098845
    URB usec: 296855
    URB status: Operation now in progress (-EINPROGRESS) (-115)
    URB length [bytes]: 64
    Data length [bytes]: 0
    [Response in: 106]
    [bInterfaceClass: VENDOR_SPECIFIC (0xff)]
    URB setup
        bmRequestType: 0x80
            1... .... = Direction: Device-to-host
            .00. .... = Type: Standard (0x00)
            ...0 0000 = Recipient: Device (0x00)
        bRequest: GET DESCRIPTOR (6)
        Descriptor Index: 0x00
        bDescriptorType: DEVICE (1)
        Language Id: no language specified (0x0000)
        wLength: 64

0000  40 b4 46 27 01 88 ff ff 53 02 80 4f 02 00 00 3c   @.F'....S..O...<
0010  dd e2 dc 4e 00 00 00 00 97 87 04 00 8d ff ff ff   ...N............
0020  40 00 00 00 00 00 00 00 80 06 00 01 00 00 40 00   @.............@.
0030  00 00 00 00 00 00 00 00 00 02 00 00 00 00 00 00   ................

No.     Time        Source                Destination           Protocol Info
    106 69.250612   79.0                  host                  USB      GET DESCRIPTOR Response DEVICE

Frame 106: 82 bytes on wire (656 bits), 82 bytes captured (656 bits)
    Arrival Time: Dec  5, 2011 16:27:25.297013000 CET
    Epoch Time: 1323098845.297013000 seconds
    [Time delta from previous captured frame: 0.000158000 seconds]
    [Time delta from previous displayed frame: 0.000158000 seconds]
    [Time since reference or first frame: 69.250612000 seconds]
    Frame Number: 106
    Frame Length: 82 bytes (656 bits)
    Capture Length: 82 bytes (656 bits)
    [Frame is marked: False]
    [Frame is ignored: False]
    [Protocols in frame: usb]
USB URB
    URB id: 0xffff88012746b440
    URB type: URB_COMPLETE ('C')
    URB transfer type: URB_CONTROL out (0x02)
    Endpoint: 0x80
    Device: 79
    URB bus id: 2
    Device setup request: not relevant ('-')
    Data: present (0)
    URB sec: 1323098845
    URB usec: 297013
    URB status: Success (0)
    URB length [bytes]: 18
    Data length [bytes]: 18
    [Request in: 105]
    [Time from request: 0.000158000 seconds]
    [bInterfaceClass: VENDOR_SPECIFIC (0xff)]
    DEVICE DESCRIPTOR
        bLength: 18
        bDescriptorType: DEVICE (1)
        bcdUSB: 0x0200
        bDeviceClass: 0
        bDeviceSubClass: 0
        bDeviceProtocol: 0
        bMaxPacketSize0: 64
        idVendor: 0x1c88
        idProduct: 0x0007
        bcdDevice: 0x0100
        iManufacturer: 1
        iProduct: 2
        iSerialNumber: 3
        bNumConfigurations: 1

0000  40 b4 46 27 01 88 ff ff 43 02 80 4f 02 00 2d 00   @.F'....C..O..-.
0010  dd e2 dc 4e 00 00 00 00 35 88 04 00 00 00 00 00   ...N....5.......
0020  12 00 00 00 12 00 00 00 00 00 00 00 00 00 00 00   ................
0030  00 00 00 00 00 00 00 00 00 02 00 00 00 00 00 00   ................
0040  12 01 00 02 00 00 00 40 88 1c 07 00 00 01 01 02   .......@........
0050  03 01                                             ..

No.     Time        Source                Destination           Protocol Info
    125 69.474665   host                  0.0                   USB      SET ADDRESS Request

Frame 125: 64 bytes on wire (512 bits), 64 bytes captured (512 bits)
    Arrival Time: Dec  5, 2011 16:27:25.521066000 CET
    Epoch Time: 1323098845.521066000 seconds
    [Time delta from previous captured frame: 0.000033000 seconds]
    [Time delta from previous displayed frame: 0.224053000 seconds]
    [Time since reference or first frame: 69.474665000 seconds]
    Frame Number: 125
    Frame Length: 64 bytes (512 bits)
    Capture Length: 64 bytes (512 bits)
    [Frame is marked: False]
    [Frame is ignored: False]
    [Protocols in frame: usb]
USB URB
    URB id: 0xffff88012eb38380
    URB type: URB_SUBMIT ('S')
    URB transfer type: URB_CONTROL out (0x02)
    Endpoint: 0x00
    Device: 0
    URB bus id: 2
    Device setup request: relevant (0)
    Data: present (0)
    URB sec: 1323098845
    URB usec: 521066
    URB status: Operation now in progress (-EINPROGRESS) (-115)
    URB length [bytes]: 0
    Data length [bytes]: 0
    [Response in: 126]
    [bInterfaceClass: Unknown (0xffff)]
    URB setup
        bmRequestType: 0x00
            0... .... = Direction: Host-to-device
            .00. .... = Type: Standard (0x00)
            ...0 0000 = Recipient: Device (0x00)
        bRequest: SET ADDRESS (5)
        Device: 79
        wIndex: 0
        wLength: 0

0000  80 83 b3 2e 01 88 ff ff 53 02 00 00 02 00 00 00   ........S.......
0010  dd e2 dc 4e 00 00 00 00 6a f3 07 00 8d ff ff ff   ...N....j.......
0020  00 00 00 00 00 00 00 00 00 05 4f 00 00 00 00 00   ..........O.....
0030  00 00 00 00 00 00 00 00 00 00 00 00 00 00 00 00   ................

No.     Time        Source                Destination           Protocol Info
    127 69.486475   host                  79.0                  USB      GET DESCRIPTOR Request DEVICE

Frame 127: 64 bytes on wire (512 bits), 64 bytes captured (512 bits)
    Arrival Time: Dec  5, 2011 16:27:25.532876000 CET
    Epoch Time: 1323098845.532876000 seconds
    [Time delta from previous captured frame: 0.011721000 seconds]
    [Time delta from previous displayed frame: 0.011810000 seconds]
    [Time since reference or first frame: 69.486475000 seconds]
    Frame Number: 127
    Frame Length: 64 bytes (512 bits)
    Capture Length: 64 bytes (512 bits)
    [Frame is marked: False]
    [Frame is ignored: False]
    [Protocols in frame: usb]
USB URB
    URB id: 0xffff88012eb38380
    URB type: URB_SUBMIT ('S')
    URB transfer type: URB_CONTROL out (0x02)
    Endpoint: 0x80
    Device: 79
    URB bus id: 2
    Device setup request: relevant (0)
    Data: not present ('<')
    URB sec: 1323098845
    URB usec: 532876
    URB status: Operation now in progress (-EINPROGRESS) (-115)
    URB length [bytes]: 18
    Data length [bytes]: 0
    [Response in: 128]
    [bInterfaceClass: VENDOR_SPECIFIC (0xff)]
    URB setup
        bmRequestType: 0x80
            1... .... = Direction: Device-to-host
            .00. .... = Type: Standard (0x00)
            ...0 0000 = Recipient: Device (0x00)
        bRequest: GET DESCRIPTOR (6)
        Descriptor Index: 0x00
        bDescriptorType: DEVICE (1)
        Language Id: no language specified (0x0000)
        wLength: 18

0000  80 83 b3 2e 01 88 ff ff 53 02 80 4f 02 00 00 3c   ........S..O...<
0010  dd e2 dc 4e 00 00 00 00 8c 21 08 00 8d ff ff ff   ...N.....!......
0020  12 00 00 00 00 00 00 00 80 06 00 01 00 00 12 00   ................
0030  00 00 00 00 00 00 00 00 00 02 00 00 00 00 00 00   ................

No.     Time        Source                Destination           Protocol Info
    128 69.486638   79.0                  host                  USB      GET DESCRIPTOR Response DEVICE

Frame 128: 82 bytes on wire (656 bits), 82 bytes captured (656 bits)
    Arrival Time: Dec  5, 2011 16:27:25.533039000 CET
    Epoch Time: 1323098845.533039000 seconds
    [Time delta from previous captured frame: 0.000163000 seconds]
    [Time delta from previous displayed frame: 0.000163000 seconds]
    [Time since reference or first frame: 69.486638000 seconds]
    Frame Number: 128
    Frame Length: 82 bytes (656 bits)
    Capture Length: 82 bytes (656 bits)
    [Frame is marked: False]
    [Frame is ignored: False]
    [Protocols in frame: usb]
USB URB
    URB id: 0xffff88012eb38380
    URB type: URB_COMPLETE ('C')
    URB transfer type: URB_CONTROL out (0x02)
    Endpoint: 0x80
    Device: 79
    URB bus id: 2
    Device setup request: not relevant ('-')
    Data: present (0)
    URB sec: 1323098845
    URB usec: 533039
    URB status: Success (0)
    URB length [bytes]: 18
    Data length [bytes]: 18
    [Request in: 127]
    [Time from request: 0.000163000 seconds]
    [bInterfaceClass: VENDOR_SPECIFIC (0xff)]
    DEVICE DESCRIPTOR
        bLength: 18
        bDescriptorType: DEVICE (1)
        bcdUSB: 0x0200
        bDeviceClass: 0
        bDeviceSubClass: 0
        bDeviceProtocol: 0
        bMaxPacketSize0: 64
        idVendor: 0x1c88
        idProduct: 0x0007
        bcdDevice: 0x0100
        iManufacturer: 1
        iProduct: 2
        iSerialNumber: 3
        bNumConfigurations: 1

0000  80 83 b3 2e 01 88 ff ff 43 02 80 4f 02 00 2d 00   ........C..O..-.
0010  dd e2 dc 4e 00 00 00 00 2f 22 08 00 00 00 00 00   ...N..../"......
0020  12 00 00 00 12 00 00 00 00 00 00 00 00 00 00 00   ................
0030  00 00 00 00 00 00 00 00 00 02 00 00 00 00 00 00   ................
0040  12 01 00 02 00 00 00 40 88 1c 07 00 00 01 01 02   .......@........
0050  03 01                                             ..

No.     Time        Source                Destination           Protocol Info
    129 69.486688   host                  79.0                  USB      GET DESCRIPTOR Request CONFIGURATION

Frame 129: 64 bytes on wire (512 bits), 64 bytes captured (512 bits)
    Arrival Time: Dec  5, 2011 16:27:25.533089000 CET
    Epoch Time: 1323098845.533089000 seconds
    [Time delta from previous captured frame: 0.000050000 seconds]
    [Time delta from previous displayed frame: 0.000050000 seconds]
    [Time since reference or first frame: 69.486688000 seconds]
    Frame Number: 129
    Frame Length: 64 bytes (512 bits)
    Capture Length: 64 bytes (512 bits)
    [Frame is marked: False]
    [Frame is ignored: False]
    [Protocols in frame: usb]
USB URB
    URB id: 0xffff88012eb38380
    URB type: URB_SUBMIT ('S')
    URB transfer type: URB_CONTROL out (0x02)
    Endpoint: 0x80
    Device: 79
    URB bus id: 2
    Device setup request: relevant (0)
    Data: not present ('<')
    URB sec: 1323098845
    URB usec: 533089
    URB status: Operation now in progress (-EINPROGRESS) (-115)
    URB length [bytes]: 18
    Data length [bytes]: 0
    [Response in: 130]
    [bInterfaceClass: VENDOR_SPECIFIC (0xff)]
    URB setup
        bmRequestType: 0x80
            1... .... = Direction: Device-to-host
            .00. .... = Type: Standard (0x00)
            ...0 0000 = Recipient: Device (0x00)
        bRequest: GET DESCRIPTOR (6)
        Descriptor Index: 0x00
        bDescriptorType: CONFIGURATION (2)
        Language Id: no language specified (0x0000)
        wLength: 18

0000  80 83 b3 2e 01 88 ff ff 53 02 80 4f 02 00 00 3c   ........S..O...<
0010  dd e2 dc 4e 00 00 00 00 61 22 08 00 8d ff ff ff   ...N....a"......
0020  12 00 00 00 00 00 00 00 80 06 00 02 00 00 12 00   ................
0030  00 00 00 00 00 00 00 00 00 02 00 00 00 00 00 00   ................

No.     Time        Source                Destination           Protocol Info
    130 69.486863   79.0                  host                  USB      GET DESCRIPTOR Response CONFIGURATION

Frame 130: 82 bytes on wire (656 bits), 82 bytes captured (656 bits)
    Arrival Time: Dec  5, 2011 16:27:25.533264000 CET
    Epoch Time: 1323098845.533264000 seconds
    [Time delta from previous captured frame: 0.000175000 seconds]
    [Time delta from previous displayed frame: 0.000175000 seconds]
    [Time since reference or first frame: 69.486863000 seconds]
    Frame Number: 130
    Frame Length: 82 bytes (656 bits)
    Capture Length: 82 bytes (656 bits)
    [Frame is marked: False]
    [Frame is ignored: False]
    [Protocols in frame: usb]
USB URB
    URB id: 0xffff88012eb38380
    URB type: URB_COMPLETE ('C')
    URB transfer type: URB_CONTROL out (0x02)
    Endpoint: 0x80
    Device: 79
    URB bus id: 2
    Device setup request: not relevant ('-')
    Data: present (0)
    URB sec: 1323098845
    URB usec: 533264
    URB status: Success (0)
    URB length [bytes]: 18
    Data length [bytes]: 18
    [Request in: 129]
    [Time from request: 0.000175000 seconds]
    [bInterfaceClass: VENDOR_SPECIFIC (0xff)]
    CONFIGURATION DESCRIPTOR
        bLength: 9
        bDescriptorType: CONFIGURATION (2)
        wTotalLength: 18
        bNumInterfaces: 1
        bConfigurationValue: 1
        iConfiguration: 0
        Configuration bmAttributes: 0x80  NOT SELF-POWERED  NO REMOTE-WAKEUP
            1... .... = Must be 1: Must be 1 for USB 1.1 and higher
            .0.. .... = Self-Powered: This device is powered from the USB bus
            ..0. .... = Remote Wakeup: This device does NOT support remote wakeup
        bMaxPower: 100  (200mA)
    INTERFACE DESCRIPTOR
        bLength: 9
        bDescriptorType: INTERFACE (4)
        bInterfaceNumber: 0
        bAlternateSetting: 0
        bNumEndpoints: 0
        bInterfaceClass: VENDOR_SPECIFIC (0xff)
        bInterfaceSubClass: 0xff
        bInterfaceProtocol: 0xff
        iInterface: 0

0000  80 83 b3 2e 01 88 ff ff 43 02 80 4f 02 00 2d 00   ........C..O..-.
0010  dd e2 dc 4e 00 00 00 00 10 23 08 00 00 00 00 00   ...N.....#......
0020  12 00 00 00 12 00 00 00 00 00 00 00 00 00 00 00   ................
0030  00 00 00 00 00 00 00 00 00 02 00 00 00 00 00 00   ................
0040  09 02 12 00 01 01 00 80 64 09 04 00 00 00 ff ff   ........d.......
0050  ff 00                                             ..

No.     Time        Source                Destination           Protocol Info
    131 69.486924   host                  79.0                  USB      GET DESCRIPTOR Request STRING

Frame 131: 64 bytes on wire (512 bits), 64 bytes captured (512 bits)
    Arrival Time: Dec  5, 2011 16:27:25.533325000 CET
    Epoch Time: 1323098845.533325000 seconds
    [Time delta from previous captured frame: 0.000061000 seconds]
    [Time delta from previous displayed frame: 0.000061000 seconds]
    [Time since reference or first frame: 69.486924000 seconds]
    Frame Number: 131
    Frame Length: 64 bytes (512 bits)
    Capture Length: 64 bytes (512 bits)
    [Frame is marked: False]
    [Frame is ignored: False]
    [Protocols in frame: usb]
USB URB
    URB id: 0xffff88012eb38380
    URB type: URB_SUBMIT ('S')
    URB transfer type: URB_CONTROL out (0x02)
    Endpoint: 0x80
    Device: 79
    URB bus id: 2
    Device setup request: relevant (0)
    Data: not present ('<')
    URB sec: 1323098845
    URB usec: 533325
    URB status: Operation now in progress (-EINPROGRESS) (-115)
    URB length [bytes]: 255
    Data length [bytes]: 0
    [Response in: 132]
    [bInterfaceClass: VENDOR_SPECIFIC (0xff)]
    URB setup
        bmRequestType: 0x80
            1... .... = Direction: Device-to-host
            .00. .... = Type: Standard (0x00)
            ...0 0000 = Recipient: Device (0x00)
        bRequest: GET DESCRIPTOR (6)
        Descriptor Index: 0x03
        bDescriptorType: STRING (3)
        Language Id: English (United States) (0x0409)
        wLength: 255

0000  80 83 b3 2e 01 88 ff ff 53 02 80 4f 02 00 00 3c   ........S..O...<
0010  dd e2 dc 4e 00 00 00 00 4d 23 08 00 8d ff ff ff   ...N....M#......
0020  ff 00 00 00 00 00 00 00 80 06 03 03 09 04 ff 00   ................
0030  00 00 00 00 00 00 00 00 00 02 00 00 00 00 00 00   ................

No.     Time        Source                Destination           Protocol Info
    132 69.487112   79.0                  host                  USB      GET DESCRIPTOR Response STRING

Frame 132: 80 bytes on wire (640 bits), 80 bytes captured (640 bits)
    Arrival Time: Dec  5, 2011 16:27:25.533513000 CET
    Epoch Time: 1323098845.533513000 seconds
    [Time delta from previous captured frame: 0.000188000 seconds]
    [Time delta from previous displayed frame: 0.000188000 seconds]
    [Time since reference or first frame: 69.487112000 seconds]
    Frame Number: 132
    Frame Length: 80 bytes (640 bits)
    Capture Length: 80 bytes (640 bits)
    [Frame is marked: False]
    [Frame is ignored: False]
    [Protocols in frame: usb]
USB URB
    URB id: 0xffff88012eb38380
    URB type: URB_COMPLETE ('C')
    URB transfer type: URB_CONTROL out (0x02)
    Endpoint: 0x80
    Device: 79
    URB bus id: 2
    Device setup request: not relevant ('-')
    Data: present (0)
    URB sec: 1323098845
    URB usec: 533513
    URB status: Success (0)
    URB length [bytes]: 16
    Data length [bytes]: 16
    [Request in: 131]
    [Time from request: 0.000188000 seconds]
    [bInterfaceClass: VENDOR_SPECIFIC (0xff)]
    STRING DESCRIPTOR
        bLength: 16
        bDescriptorType: STRING (3)
        bString: SMBL007

0000  80 83 b3 2e 01 88 ff ff 43 02 80 4f 02 00 2d 00   ........C..O..-.
0010  dd e2 dc 4e 00 00 00 00 09 24 08 00 00 00 00 00   ...N.....$......
0020  10 00 00 00 10 00 00 00 00 00 00 00 00 00 00 00   ................
0030  00 00 00 00 00 00 00 00 00 02 00 00 00 00 00 00   ................
0040  10 03 53 00 4d 00 42 00 4c 00 30 00 30 00 37 00   ..S.M.B.L.0.0.7.

No.     Time        Source                Destination           Protocol Info
    133 69.487147   host                  79.0                  USB      SET CONFIGURATION Request

Frame 133: 64 bytes on wire (512 bits), 64 bytes captured (512 bits)
    Arrival Time: Dec  5, 2011 16:27:25.533548000 CET
    Epoch Time: 1323098845.533548000 seconds
    [Time delta from previous captured frame: 0.000035000 seconds]
    [Time delta from previous displayed frame: 0.000035000 seconds]
    [Time since reference or first frame: 69.487147000 seconds]
    Frame Number: 133
    Frame Length: 64 bytes (512 bits)
    Capture Length: 64 bytes (512 bits)
    [Frame is marked: False]
    [Frame is ignored: False]
    [Protocols in frame: usb]
USB URB
    URB id: 0xffff88012eb38380
    URB type: URB_SUBMIT ('S')
    URB transfer type: URB_CONTROL out (0x02)
    Endpoint: 0x00
    Device: 79
    URB bus id: 2
    Device setup request: relevant (0)
    Data: present (0)
    URB sec: 1323098845
    URB usec: 533548
    URB status: Operation now in progress (-EINPROGRESS) (-115)
    URB length [bytes]: 0
    Data length [bytes]: 0
    [Response in: 134]
    [bInterfaceClass: VENDOR_SPECIFIC (0xff)]
    URB setup
        bmRequestType: 0x00
            0... .... = Direction: Host-to-device
            .00. .... = Type: Standard (0x00)
            ...0 0000 = Recipient: Device (0x00)
        bRequest: SET CONFIGURATION (9)
        bConfigurationValue: 1
        wIndex: 0
        wLength: 0

0000  80 83 b3 2e 01 88 ff ff 53 02 00 4f 02 00 00 00   ........S..O....
0010  dd e2 dc 4e 00 00 00 00 2c 24 08 00 8d ff ff ff   ...N....,$......
0020  00 00 00 00 00 00 00 00 00 09 01 00 00 00 00 00   ................
0030  00 00 00 00 00 00 00 00 00 00 00 00 00 00 00 00   ................

No.     Time        Source                Destination           Protocol Info
    134 69.487239   79.0                  host                  USB      SET CONFIGURATION Response

Frame 134: 64 bytes on wire (512 bits), 64 bytes captured (512 bits)
    Arrival Time: Dec  5, 2011 16:27:25.533640000 CET
    Epoch Time: 1323098845.533640000 seconds
    [Time delta from previous captured frame: 0.000092000 seconds]
    [Time delta from previous displayed frame: 0.000092000 seconds]
    [Time since reference or first frame: 69.487239000 seconds]
    Frame Number: 134
    Frame Length: 64 bytes (512 bits)
    Capture Length: 64 bytes (512 bits)
    [Frame is marked: False]
    [Frame is ignored: False]
    [Protocols in frame: usb]
USB URB
    URB id: 0xffff88012eb38380
    URB type: URB_COMPLETE ('C')
    URB transfer type: URB_CONTROL out (0x02)
    Endpoint: 0x00
    Device: 79
    URB bus id: 2
    Device setup request: not relevant ('-')
    Data: not present ('>')
    URB sec: 1323098845
    URB usec: 533640
    URB status: Success (0)
    URB length [bytes]: 0
    Data length [bytes]: 0
    [Request in: 133]
    [Time from request: 0.000092000 seconds]
    [bInterfaceClass: VENDOR_SPECIFIC (0xff)]

0000  80 83 b3 2e 01 88 ff ff 43 02 00 4f 02 00 2d 3e   ........C..O..->
0010  dd e2 dc 4e 00 00 00 00 88 24 08 00 00 00 00 00   ...N.....$......
0020  00 00 00 00 00 00 00 00 00 00 00 00 00 00 00 00   ................
0030  00 00 00 00 00 00 00 00 00 00 00 00 00 00 00 00   ................

No.     Time        Source                Destination           Protocol Info
    135 69.587552   host                  79.0                  USB      GET DESCRIPTOR Request DEVICE

Frame 135: 64 bytes on wire (512 bits), 64 bytes captured (512 bits)
    Arrival Time: Dec  5, 2011 16:27:25.633953000 CET
    Epoch Time: 1323098845.633953000 seconds
    [Time delta from previous captured frame: 0.100313000 seconds]
    [Time delta from previous displayed frame: 0.100313000 seconds]
    [Time since reference or first frame: 69.587552000 seconds]
    Frame Number: 135
    Frame Length: 64 bytes (512 bits)
    Capture Length: 64 bytes (512 bits)
    [Frame is marked: False]
    [Frame is ignored: False]
    [Protocols in frame: usb]
USB URB
    URB id: 0xffff88012eb38380
    URB type: URB_SUBMIT ('S')
    URB transfer type: URB_CONTROL out (0x02)
    Endpoint: 0x80
    Device: 79
    URB bus id: 2
    Device setup request: relevant (0)
    Data: not present ('<')
    URB sec: 1323098845
    URB usec: 633953
    URB status: Operation now in progress (-EINPROGRESS) (-115)
    URB length [bytes]: 18
    Data length [bytes]: 0
    [Response in: 136]
    [bInterfaceClass: VENDOR_SPECIFIC (0xff)]
    URB setup
        bmRequestType: 0x80
            1... .... = Direction: Device-to-host
            .00. .... = Type: Standard (0x00)
            ...0 0000 = Recipient: Device (0x00)
        bRequest: GET DESCRIPTOR (6)
        Descriptor Index: 0x00
        bDescriptorType: DEVICE (1)
        Language Id: no language specified (0x0000)
        wLength: 18

0000  80 83 b3 2e 01 88 ff ff 53 02 80 4f 02 00 00 3c   ........S..O...<
0010  dd e2 dc 4e 00 00 00 00 61 ac 09 00 8d ff ff ff   ...N....a.......
0020  12 00 00 00 00 00 00 00 80 06 00 01 00 00 12 00   ................
0030  00 00 00 00 00 00 00 00 00 02 00 00 00 00 00 00   ................

No.     Time        Source                Destination           Protocol Info
    136 69.587769   79.0                  host                  USB      GET DESCRIPTOR Response DEVICE

Frame 136: 82 bytes on wire (656 bits), 82 bytes captured (656 bits)
    Arrival Time: Dec  5, 2011 16:27:25.634170000 CET
    Epoch Time: 1323098845.634170000 seconds
    [Time delta from previous captured frame: 0.000217000 seconds]
    [Time delta from previous displayed frame: 0.000217000 seconds]
    [Time since reference or first frame: 69.587769000 seconds]
    Frame Number: 136
    Frame Length: 82 bytes (656 bits)
    Capture Length: 82 bytes (656 bits)
    [Frame is marked: False]
    [Frame is ignored: False]
    [Protocols in frame: usb]
USB URB
    URB id: 0xffff88012eb38380
    URB type: URB_COMPLETE ('C')
    URB transfer type: URB_CONTROL out (0x02)
    Endpoint: 0x80
    Device: 79
    URB bus id: 2
    Device setup request: not relevant ('-')
    Data: present (0)
    URB sec: 1323098845
    URB usec: 634170
    URB status: Success (0)
    URB length [bytes]: 18
    Data length [bytes]: 18
    [Request in: 135]
    [Time from request: 0.000217000 seconds]
    [bInterfaceClass: VENDOR_SPECIFIC (0xff)]
    DEVICE DESCRIPTOR
        bLength: 18
        bDescriptorType: DEVICE (1)
        bcdUSB: 0x0200
        bDeviceClass: 0
        bDeviceSubClass: 0
        bDeviceProtocol: 0
        bMaxPacketSize0: 64
        idVendor: 0x1c88
        idProduct: 0x0007
        bcdDevice: 0x0100
        iManufacturer: 1
        iProduct: 2
        iSerialNumber: 3
        bNumConfigurations: 1

0000  80 83 b3 2e 01 88 ff ff 43 02 80 4f 02 00 2d 00   ........C..O..-.
0010  dd e2 dc 4e 00 00 00 00 3a ad 09 00 00 00 00 00   ...N....:.......
0020  12 00 00 00 12 00 00 00 00 00 00 00 00 00 00 00   ................
0030  00 00 00 00 00 00 00 00 00 02 00 00 00 00 00 00   ................
0040  12 01 00 02 00 00 00 40 88 1c 07 00 00 01 01 02   .......@........
0050  03 01                                             ..

No.     Time        Source                Destination           Protocol Info
    137 69.592579   host                  79.0                  USB      GET DESCRIPTOR Request CONFIGURATION

Frame 137: 64 bytes on wire (512 bits), 64 bytes captured (512 bits)
    Arrival Time: Dec  5, 2011 16:27:25.638980000 CET
    Epoch Time: 1323098845.638980000 seconds
    [Time delta from previous captured frame: 0.004810000 seconds]
    [Time delta from previous displayed frame: 0.004810000 seconds]
    [Time since reference or first frame: 69.592579000 seconds]
    Frame Number: 137
    Frame Length: 64 bytes (512 bits)
    Capture Length: 64 bytes (512 bits)
    [Frame is marked: False]
    [Frame is ignored: False]
    [Protocols in frame: usb]
USB URB
    URB id: 0xffff88012eeee2c0
    URB type: URB_SUBMIT ('S')
    URB transfer type: URB_CONTROL out (0x02)
    Endpoint: 0x80
    Device: 79
    URB bus id: 2
    Device setup request: relevant (0)
    Data: not present ('<')
    URB sec: 1323098845
    URB usec: 638980
    URB status: Operation now in progress (-EINPROGRESS) (-115)
    URB length [bytes]: 9
    Data length [bytes]: 0
    [Response in: 138]
    [bInterfaceClass: VENDOR_SPECIFIC (0xff)]
    URB setup
        bmRequestType: 0x80
            1... .... = Direction: Device-to-host
            .00. .... = Type: Standard (0x00)
            ...0 0000 = Recipient: Device (0x00)
        bRequest: GET DESCRIPTOR (6)
        Descriptor Index: 0x00
        bDescriptorType: CONFIGURATION (2)
        Language Id: no language specified (0x0000)
        wLength: 9

0000  c0 e2 ee 2e 01 88 ff ff 53 02 80 4f 02 00 00 3c   ........S..O...<
0010  dd e2 dc 4e 00 00 00 00 04 c0 09 00 8d ff ff ff   ...N............
0020  09 00 00 00 00 00 00 00 80 06 00 02 00 00 09 00   ................
0030  00 00 00 00 00 00 00 00 00 02 00 00 00 00 00 00   ................

No.     Time        Source                Destination           Protocol Info
    138 69.592736   79.0                  host                  USB      GET DESCRIPTOR Response CONFIGURATION

Frame 138: 73 bytes on wire (584 bits), 73 bytes captured (584 bits)
    Arrival Time: Dec  5, 2011 16:27:25.639137000 CET
    Epoch Time: 1323098845.639137000 seconds
    [Time delta from previous captured frame: 0.000157000 seconds]
    [Time delta from previous displayed frame: 0.000157000 seconds]
    [Time since reference or first frame: 69.592736000 seconds]
    Frame Number: 138
    Frame Length: 73 bytes (584 bits)
    Capture Length: 73 bytes (584 bits)
    [Frame is marked: False]
    [Frame is ignored: False]
    [Protocols in frame: usb]
USB URB
    URB id: 0xffff88012eeee2c0
    URB type: URB_COMPLETE ('C')
    URB transfer type: URB_CONTROL out (0x02)
    Endpoint: 0x80
    Device: 79
    URB bus id: 2
    Device setup request: not relevant ('-')
    Data: present (0)
    URB sec: 1323098845
    URB usec: 639137
    URB status: Success (0)
    URB length [bytes]: 9
    Data length [bytes]: 9
    [Request in: 137]
    [Time from request: 0.000157000 seconds]
    [bInterfaceClass: VENDOR_SPECIFIC (0xff)]
    CONFIGURATION DESCRIPTOR
        bLength: 9
        bDescriptorType: CONFIGURATION (2)
        wTotalLength: 18
        bNumInterfaces: 1
        bConfigurationValue: 1
        iConfiguration: 0
        Configuration bmAttributes: 0x80  NOT SELF-POWERED  NO REMOTE-WAKEUP
            1... .... = Must be 1: Must be 1 for USB 1.1 and higher
            .0.. .... = Self-Powered: This device is powered from the USB bus
            ..0. .... = Remote Wakeup: This device does NOT support remote wakeup
        bMaxPower: 100  (200mA)

0000  c0 e2 ee 2e 01 88 ff ff 43 02 80 4f 02 00 2d 00   ........C..O..-.
0010  dd e2 dc 4e 00 00 00 00 a1 c0 09 00 00 00 00 00   ...N............
0020  09 00 00 00 09 00 00 00 00 00 00 00 00 00 00 00   ................
0030  00 00 00 00 00 00 00 00 00 02 00 00 00 00 00 00   ................
0040  09 02 12 00 01 01 00 80 64                        ........d

No.     Time        Source                Destination           Protocol Info
    139 69.597192   host                  79.0                  USB      GET DESCRIPTOR Request STRING

Frame 139: 64 bytes on wire (512 bits), 64 bytes captured (512 bits)
    Arrival Time: Dec  5, 2011 16:27:25.643593000 CET
    Epoch Time: 1323098845.643593000 seconds
    [Time delta from previous captured frame: 0.004456000 seconds]
    [Time delta from previous displayed frame: 0.004456000 seconds]
    [Time since reference or first frame: 69.597192000 seconds]
    Frame Number: 139
    Frame Length: 64 bytes (512 bits)
    Capture Length: 64 bytes (512 bits)
    [Frame is marked: False]
    [Frame is ignored: False]
    [Protocols in frame: usb]
USB URB
    URB id: 0xffff88012eeee2c0
    URB type: URB_SUBMIT ('S')
    URB transfer type: URB_CONTROL out (0x02)
    Endpoint: 0x80
    Device: 79
    URB bus id: 2
    Device setup request: relevant (0)
    Data: not present ('<')
    URB sec: 1323098845
    URB usec: 643593
    URB status: Operation now in progress (-EINPROGRESS) (-115)
    URB length [bytes]: 255
    Data length [bytes]: 0
    [Response in: 140]
    [bInterfaceClass: VENDOR_SPECIFIC (0xff)]
    URB setup
        bmRequestType: 0x80
            1... .... = Direction: Device-to-host
            .00. .... = Type: Standard (0x00)
            ...0 0000 = Recipient: Device (0x00)
        bRequest: GET DESCRIPTOR (6)
        Descriptor Index: 0x00
        bDescriptorType: STRING (3)
        Language Id: no language specified (0x0000)
        wLength: 255

0000  c0 e2 ee 2e 01 88 ff ff 53 02 80 4f 02 00 00 3c   ........S..O...<
0010  dd e2 dc 4e 00 00 00 00 09 d2 09 00 8d ff ff ff   ...N............
0020  ff 00 00 00 00 00 00 00 80 06 00 03 00 00 ff 00   ................
0030  00 00 00 00 00 00 00 00 00 02 00 00 00 00 00 00   ................

No.     Time        Source                Destination           Protocol Info
    140 69.597364   79.0                  host                  USB      GET DESCRIPTOR Response STRING

Frame 140: 68 bytes on wire (544 bits), 68 bytes captured (544 bits)
    Arrival Time: Dec  5, 2011 16:27:25.643765000 CET
    Epoch Time: 1323098845.643765000 seconds
    [Time delta from previous captured frame: 0.000172000 seconds]
    [Time delta from previous displayed frame: 0.000172000 seconds]
    [Time since reference or first frame: 69.597364000 seconds]
    Frame Number: 140
    Frame Length: 68 bytes (544 bits)
    Capture Length: 68 bytes (544 bits)
    [Frame is marked: False]
    [Frame is ignored: False]
    [Protocols in frame: usb]
USB URB
    URB id: 0xffff88012eeee2c0
    URB type: URB_COMPLETE ('C')
    URB transfer type: URB_CONTROL out (0x02)
    Endpoint: 0x80
    Device: 79
    URB bus id: 2
    Device setup request: not relevant ('-')
    Data: present (0)
    URB sec: 1323098845
    URB usec: 643765
    URB status: Success (0)
    URB length [bytes]: 4
    Data length [bytes]: 4
    [Request in: 139]
    [Time from request: 0.000172000 seconds]
    [bInterfaceClass: VENDOR_SPECIFIC (0xff)]
    STRING DESCRIPTOR
        bLength: 4
        bDescriptorType: STRING (3)
        wLANGID: English (United States) (0x0409)

0000  c0 e2 ee 2e 01 88 ff ff 43 02 80 4f 02 00 2d 00   ........C..O..-.
0010  dd e2 dc 4e 00 00 00 00 b5 d2 09 00 00 00 00 00   ...N............
0020  04 00 00 00 04 00 00 00 00 00 00 00 00 00 00 00   ................
0030  00 00 00 00 00 00 00 00 00 02 00 00 00 00 00 00   ................
0040  04 03 09 04                                       ....

No.     Time        Source                Destination           Protocol Info
    141 69.601959   host                  79.0                  USB      GET DESCRIPTOR Request STRING

Frame 141: 64 bytes on wire (512 bits), 64 bytes captured (512 bits)
    Arrival Time: Dec  5, 2011 16:27:25.648360000 CET
    Epoch Time: 1323098845.648360000 seconds
    [Time delta from previous captured frame: 0.004595000 seconds]
    [Time delta from previous displayed frame: 0.004595000 seconds]
    [Time since reference or first frame: 69.601959000 seconds]
    Frame Number: 141
    Frame Length: 64 bytes (512 bits)
    Capture Length: 64 bytes (512 bits)
    [Frame is marked: False]
    [Frame is ignored: False]
    [Protocols in frame: usb]
USB URB
    URB id: 0xffff88012eeee2c0
    URB type: URB_SUBMIT ('S')
    URB transfer type: URB_CONTROL out (0x02)
    Endpoint: 0x80
    Device: 79
    URB bus id: 2
    Device setup request: relevant (0)
    Data: not present ('<')
    URB sec: 1323098845
    URB usec: 648360
    URB status: Operation now in progress (-EINPROGRESS) (-115)
    URB length [bytes]: 255
    Data length [bytes]: 0
