No.     Time        Source                Destination           Protocol Info
      1 0.000000    host                  78.0                  USB      GET DESCRIPTOR Request DEVICE

Frame 1: 64 bytes on wire (512 bits), 64 bytes captured (512 bits)
    Arrival Time: Dec  5, 2011 08:41:37.586479000 CET
    Epoch Time: 1323070897.586479000 seconds
    [Time delta from previous captured frame: 0.000000000 seconds]
    [Time delta from previous displayed frame: 0.000000000 seconds]
    [Time since reference or first frame: 0.000000000 seconds]
    Frame Number: 1
    Frame Length: 64 bytes (512 bits)
    Capture Length: 64 bytes (512 bits)
    [Frame is marked: False]
    [Frame is ignored: False]
    [Protocols in frame: usb]
USB URB
    URB id: 0xffff8801043d8bc0
    URB type: URB_SUBMIT ('S')
    URB transfer type: URB_CONTROL out (0x02)
    Endpoint: 0x80
    Device: 78
    URB bus id: 2
    Device setup request: relevant (0)
    Data: not present ('<')
    URB sec: 1323070897
    URB usec: 586479
    URB status: Operation now in progress (-EINPROGRESS) (-115)
    URB length [bytes]: 40
    Data length [bytes]: 0
    [Response in: 2]
    [bInterfaceClass: VENDOR_SPECIFIC (0xff)]
    URB setup
        bmRequestType: 0x80
            1... .... = Direction: Device-to-host
            .00. .... = Type: Standard (0x00)
            ...0 0000 = Recipient: Device (0x00)
        bRequest: GET DESCRIPTOR (6)
        Descriptor Index: 0x00
        bDescriptorType: DEVICE (1)
        Language Id: no language specified (0x0000)
        wLength: 40

0000  c0 8b 3d 04 01 88 ff ff 53 02 80 4e 02 00 00 3c   ..=.....S..N...<
0010  b1 75 dc 4e 00 00 00 00 ef f2 08 00 8d ff ff ff   .u.N............
0020  28 00 00 00 00 00 00 00 80 06 00 01 00 00 28 00   (.............(.
0030  00 00 00 00 00 00 00 00 00 02 00 00 00 00 00 00   ................

No.     Time        Source                Destination           Protocol Info
      2 0.000254    78.0                  host                  USB      GET DESCRIPTOR Response DEVICE

Frame 2: 82 bytes on wire (656 bits), 82 bytes captured (656 bits)
    Arrival Time: Dec  5, 2011 08:41:37.586733000 CET
    Epoch Time: 1323070897.586733000 seconds
    [Time delta from previous captured frame: 0.000254000 seconds]
    [Time delta from previous displayed frame: 0.000254000 seconds]
    [Time since reference or first frame: 0.000254000 seconds]
    Frame Number: 2
    Frame Length: 82 bytes (656 bits)
    Capture Length: 82 bytes (656 bits)
    [Frame is marked: False]
    [Frame is ignored: False]
    [Protocols in frame: usb]
USB URB
    URB id: 0xffff8801043d8bc0
    URB type: URB_COMPLETE ('C')
    URB transfer type: URB_CONTROL out (0x02)
    Endpoint: 0x80
    Device: 78
    URB bus id: 2
    Device setup request: not relevant ('-')
    Data: present (0)
    URB sec: 1323070897
    URB usec: 586733
    URB status: Success (0)
    URB length [bytes]: 18
    Data length [bytes]: 18
    [Request in: 1]
    [Time from request: 0.000254000 seconds]
    [bInterfaceClass: VENDOR_SPECIFIC (0xff)]
    DEVICE DESCRIPTOR
        bLength: 18
        bDescriptorType: DEVICE (1)
        bcdUSB: 0x0200
        bDeviceClass: 0
        bDeviceSubClass: 0
        bDeviceProtocol: 0
        bMaxPacketSize0: 64
        idVendor: 0x1c88
        idProduct: 0x003c
        bcdDevice: 0x0100
        iManufacturer: 1
        iProduct: 2
        iSerialNumber: 3
        bNumConfigurations: 1

0000  c0 8b 3d 04 01 88 ff ff 43 02 80 4e 02 00 2d 00   ..=.....C..N..-.
0010  b1 75 dc 4e 00 00 00 00 ed f3 08 00 00 00 00 00   .u.N............
0020  12 00 00 00 12 00 00 00 00 00 00 00 00 00 00 00   ................
0030  00 00 00 00 00 00 00 00 00 02 00 00 00 00 00 00   ................
0040  12 01 00 02 00 00 00 40 88 1c 3c 00 00 01 01 02   .......@..<.....
0050  03 01                                             ..

No.     Time        Source                Destination           Protocol Info
     35 48.916747   host                  0.0                   USB      SET ADDRESS Request

Frame 35: 64 bytes on wire (512 bits), 64 bytes captured (512 bits)
    Arrival Time: Dec  5, 2011 08:42:26.503226000 CET
    Epoch Time: 1323070946.503226000 seconds
    [Time delta from previous captured frame: 0.000034000 seconds]
    [Time delta from previous displayed frame: 48.916493000 seconds]
    [Time since reference or first frame: 48.916747000 seconds]
    Frame Number: 35
    Frame Length: 64 bytes (512 bits)
    Capture Length: 64 bytes (512 bits)
    [Frame is marked: False]
    [Frame is ignored: False]
    [Protocols in frame: usb]
USB URB
    URB id: 0xffff88003783b780
    URB type: URB_SUBMIT ('S')
    URB transfer type: URB_CONTROL out (0x02)
    Endpoint: 0x00
    Device: 0
    URB bus id: 2
    Device setup request: relevant (0)
    Data: present (0)
    URB sec: 1323070946
    URB usec: 503226
    URB status: Operation now in progress (-EINPROGRESS) (-115)
    URB length [bytes]: 0
    Data length [bytes]: 0
    [Response in: 36]
    [bInterfaceClass: Unknown (0xffff)]
    URB setup
        bmRequestType: 0x00
            0... .... = Direction: Host-to-device
            .00. .... = Type: Standard (0x00)
            ...0 0000 = Recipient: Device (0x00)
        bRequest: SET ADDRESS (5)
        Device: 78
        wIndex: 0
        wLength: 0

0000  80 b7 83 37 00 88 ff ff 53 02 00 00 02 00 00 00   ...7....S.......
0010  e2 75 dc 4e 00 00 00 00 ba ad 07 00 8d ff ff ff   .u.N............
0020  00 00 00 00 00 00 00 00 00 05 4e 00 00 00 00 00   ..........N.....
0030  00 00 00 00 00 00 00 00 00 00 00 00 00 00 00 00   ................

No.     Time        Source                Destination           Protocol Info
     37 48.928605   host                  78.0                  USB      GET DESCRIPTOR Request DEVICE

Frame 37: 64 bytes on wire (512 bits), 64 bytes captured (512 bits)
    Arrival Time: Dec  5, 2011 08:42:26.515084000 CET
    Epoch Time: 1323070946.515084000 seconds
    [Time delta from previous captured frame: 0.011765000 seconds]
    [Time delta from previous displayed frame: 0.011858000 seconds]
    [Time since reference or first frame: 48.928605000 seconds]
    Frame Number: 37
    Frame Length: 64 bytes (512 bits)
    Capture Length: 64 bytes (512 bits)
    [Frame is marked: False]
    [Frame is ignored: False]
    [Protocols in frame: usb]
USB URB
    URB id: 0xffff88003783b780
    URB type: URB_SUBMIT ('S')
    URB transfer type: URB_CONTROL out (0x02)
    Endpoint: 0x80
    Device: 78
    URB bus id: 2
    Device setup request: relevant (0)
    Data: not present ('<')
    URB sec: 1323070946
    URB usec: 515084
    URB status: Operation now in progress (-EINPROGRESS) (-115)
    URB length [bytes]: 18
    Data length [bytes]: 0
    [Response in: 38]
    [bInterfaceClass: VENDOR_SPECIFIC (0xff)]
    URB setup
        bmRequestType: 0x80
            1... .... = Direction: Device-to-host
            .00. .... = Type: Standard (0x00)
            ...0 0000 = Recipient: Device (0x00)
        bRequest: GET DESCRIPTOR (6)
        Descriptor Index: 0x00
        bDescriptorType: DEVICE (1)
        Language Id: no language specified (0x0000)
        wLength: 18

0000  80 b7 83 37 00 88 ff ff 53 02 80 4e 02 00 00 3c   ...7....S..N...<
0010  e2 75 dc 4e 00 00 00 00 0c dc 07 00 8d ff ff ff   .u.N............
0020  12 00 00 00 00 00 00 00 80 06 00 01 00 00 12 00   ................
0030  00 00 00 00 00 00 00 00 00 02 00 00 00 00 00 00   ................

No.     Time        Source                Destination           Protocol Info
     38 48.928715   78.0                  host                  USB      GET DESCRIPTOR Response DEVICE

Frame 38: 82 bytes on wire (656 bits), 82 bytes captured (656 bits)
    Arrival Time: Dec  5, 2011 08:42:26.515194000 CET
    Epoch Time: 1323070946.515194000 seconds
    [Time delta from previous captured frame: 0.000110000 seconds]
    [Time delta from previous displayed frame: 0.000110000 seconds]
    [Time since reference or first frame: 48.928715000 seconds]
    Frame Number: 38
    Frame Length: 82 bytes (656 bits)
    Capture Length: 82 bytes (656 bits)
    [Frame is marked: False]
    [Frame is ignored: False]
    [Protocols in frame: usb]
USB URB
    URB id: 0xffff88003783b780
    URB type: URB_COMPLETE ('C')
    URB transfer type: URB_CONTROL out (0x02)
    Endpoint: 0x80
    Device: 78
    URB bus id: 2
    Device setup request: not relevant ('-')
    Data: present (0)
    URB sec: 1323070946
    URB usec: 515194
    URB status: Success (0)
    URB length [bytes]: 18
    Data length [bytes]: 18
    [Request in: 37]
    [Time from request: 0.000110000 seconds]
    [bInterfaceClass: VENDOR_SPECIFIC (0xff)]
    DEVICE DESCRIPTOR
        bLength: 18
        bDescriptorType: DEVICE (1)
        bcdUSB: 0x0200
        bDeviceClass: 0
        bDeviceSubClass: 0
        bDeviceProtocol: 0
        bMaxPacketSize0: 64
        idVendor: 0x1c88
        idProduct: 0x003c
        bcdDevice: 0x0100
        iManufacturer: 1
        iProduct: 2
        iSerialNumber: 3
        bNumConfigurations: 1

0000  80 b7 83 37 00 88 ff ff 43 02 80 4e 02 00 2d 00   ...7....C..N..-.
0010  e2 75 dc 4e 00 00 00 00 7a dc 07 00 00 00 00 00   .u.N....z.......
0020  12 00 00 00 12 00 00 00 00 00 00 00 00 00 00 00   ................
0030  00 00 00 00 00 00 00 00 00 02 00 00 00 00 00 00   ................
0040  12 01 00 02 00 00 00 40 88 1c 3c 00 00 01 01 02   .......@..<.....
0050  03 01                                             ..

No.     Time        Source                Destination           Protocol Info
     39 48.928745   host                  78.0                  USB      GET DESCRIPTOR Request CONFIGURATION

Frame 39: 64 bytes on wire (512 bits), 64 bytes captured (512 bits)
    Arrival Time: Dec  5, 2011 08:42:26.515224000 CET
    Epoch Time: 1323070946.515224000 seconds
    [Time delta from previous captured frame: 0.000030000 seconds]
    [Time delta from previous displayed frame: 0.000030000 seconds]
    [Time since reference or first frame: 48.928745000 seconds]
    Frame Number: 39
    Frame Length: 64 bytes (512 bits)
    Capture Length: 64 bytes (512 bits)
    [Frame is marked: False]
    [Frame is ignored: False]
    [Protocols in frame: usb]
USB URB
    URB id: 0xffff88003783b780
    URB type: URB_SUBMIT ('S')
    URB transfer type: URB_CONTROL out (0x02)
    Endpoint: 0x80
    Device: 78
    URB bus id: 2
    Device setup request: relevant (0)
    Data: not present ('<')
    URB sec: 1323070946
    URB usec: 515224
    URB status: Operation now in progress (-EINPROGRESS) (-115)
    URB length [bytes]: 50
    Data length [bytes]: 0
    [Response in: 40]
    [bInterfaceClass: VENDOR_SPECIFIC (0xff)]
    URB setup
        bmRequestType: 0x80
            1... .... = Direction: Device-to-host
            .00. .... = Type: Standard (0x00)
            ...0 0000 = Recipient: Device (0x00)
        bRequest: GET DESCRIPTOR (6)
        Descriptor Index: 0x00
        bDescriptorType: CONFIGURATION (2)
        Language Id: no language specified (0x0000)
        wLength: 50

0000  80 b7 83 37 00 88 ff ff 53 02 80 4e 02 00 00 3c   ...7....S..N...<
0010  e2 75 dc 4e 00 00 00 00 98 dc 07 00 8d ff ff ff   .u.N............
0020  32 00 00 00 00 00 00 00 80 06 00 02 00 00 32 00   2.............2.
0030  00 00 00 00 00 00 00 00 00 02 00 00 00 00 00 00   ................

No.     Time        Source                Destination           Protocol Info
     40 48.928965   78.0                  host                  USB      GET DESCRIPTOR Response CONFIGURATION

Frame 40: 114 bytes on wire (912 bits), 114 bytes captured (912 bits)
    Arrival Time: Dec  5, 2011 08:42:26.515444000 CET
    Epoch Time: 1323070946.515444000 seconds
    [Time delta from previous captured frame: 0.000220000 seconds]
    [Time delta from previous displayed frame: 0.000220000 seconds]
    [Time since reference or first frame: 48.928965000 seconds]
    Frame Number: 40
    Frame Length: 114 bytes (912 bits)
    Capture Length: 114 bytes (912 bits)
    [Frame is marked: False]
    [Frame is ignored: False]
    [Protocols in frame: usb]
USB URB
    URB id: 0xffff88003783b780
    URB type: URB_COMPLETE ('C')
    URB transfer type: URB_CONTROL out (0x02)
    Endpoint: 0x80
    Device: 78
    URB bus id: 2
    Device setup request: not relevant ('-')
    Data: present (0)
    URB sec: 1323070946
    URB usec: 515444
    URB status: Success (0)
    URB length [bytes]: 50
    Data length [bytes]: 50
    [Request in: 39]
    [Time from request: 0.000220000 seconds]
    [bInterfaceClass: VENDOR_SPECIFIC (0xff)]
    CONFIGURATION DESCRIPTOR
        bLength: 9
        bDescriptorType: CONFIGURATION (2)
        wTotalLength: 50
        bNumInterfaces: 1
        bConfigurationValue: 1
        iConfiguration: 0
        Configuration bmAttributes: 0x80  NOT SELF-POWERED  NO REMOTE-WAKEUP
            1... .... = Must be 1: Must be 1 for USB 1.1 and higher
            .0.. .... = Self-Powered: This device is powered from the USB bus
            ..0. .... = Remote Wakeup: This device does NOT support remote wakeup
        bMaxPower: 250  (500mA)
    INTERFACE DESCRIPTOR
        bLength: 9
        bDescriptorType: INTERFACE (4)
        bInterfaceNumber: 0
        bAlternateSetting: 0
        bNumEndpoints: 0
        bInterfaceClass: VENDOR_SPECIFIC (0xff)
        bInterfaceSubClass: 0xff
        bInterfaceProtocol: 0xff
        iInterface: 0
    INTERFACE DESCRIPTOR
        bLength: 9
        bDescriptorType: INTERFACE (4)
        bInterfaceNumber: 0
        bAlternateSetting: 1
        bNumEndpoints: 1
        bInterfaceClass: VENDOR_SPECIFIC (0xff)
        bInterfaceSubClass: 0xff
        bInterfaceProtocol: 0xff
        iInterface: 0
    ENDPOINT DESCRIPTOR
        bLength: 7
        bDescriptorType: ENDPOINT (5)
        bEndpointAddress: 0x82  IN  Endpoint:2
            1... .... = Direction: IN Endpoint
            .... 0010 = Endpoint Number: 0x02
        bmAttributes: 0x05
            .... ..01 = Transfertype: Isochronous-Transfer (0x01)
            .... 01.. = Synchronisationtype: Unknown (0x01)
            ..00 .... = Behaviourtype: Data-Endpoint (0x00)
        wMaxPacketSize: 1023
        bInterval: 1
    INTERFACE DESCRIPTOR
        bLength: 9
        bDescriptorType: INTERFACE (4)
        bInterfaceNumber: 0
        bAlternateSetting: 2
        bNumEndpoints: 1
        bInterfaceClass: VENDOR_SPECIFIC (0xff)
        bInterfaceSubClass: 0xff
        bInterfaceProtocol: 0xff
        iInterface: 0
    ENDPOINT DESCRIPTOR
        bLength: 7
        bDescriptorType: ENDPOINT (5)
        bEndpointAddress: 0x82  IN  Endpoint:2
            1... .... = Direction: IN Endpoint
            .... 0010 = Endpoint Number: 0x02
        bmAttributes: 0x05
            .... ..01 = Transfertype: Isochronous-Transfer (0x01)
            .... 01.. = Synchronisationtype: Unknown (0x01)
            ..00 .... = Behaviourtype: Data-Endpoint (0x00)
        wMaxPacketSize: 5120
        bInterval: 1

0000  80 b7 83 37 00 88 ff ff 43 02 80 4e 02 00 2d 00   ...7....C..N..-.
0010  e2 75 dc 4e 00 00 00 00 74 dd 07 00 00 00 00 00   .u.N....t.......
0020  32 00 00 00 32 00 00 00 00 00 00 00 00 00 00 00   2...2...........
0030  00 00 00 00 00 00 00 00 00 02 00 00 00 00 00 00   ................
0040  09 02 32 00 01 01 00 80 fa 09 04 00 00 00 ff ff   ..2.............
0050  ff 00 09 04 00 01 01 ff ff ff 00 07 05 82 05 ff   ................
0060  03 01 09 04 00 02 01 ff ff ff 00 07 05 82 05 00   ................
0070  14 01                                             ..

No.     Time        Source                Destination           Protocol Info
     41 48.929007   host                  78.0                  USB      GET DESCRIPTOR Request STRING

Frame 41: 64 bytes on wire (512 bits), 64 bytes captured (512 bits)
    Arrival Time: Dec  5, 2011 08:42:26.515486000 CET
    Epoch Time: 1323070946.515486000 seconds
    [Time delta from previous captured frame: 0.000042000 seconds]
    [Time delta from previous displayed frame: 0.000042000 seconds]
    [Time since reference or first frame: 48.929007000 seconds]
    Frame Number: 41
    Frame Length: 64 bytes (512 bits)
    Capture Length: 64 bytes (512 bits)
    [Frame is marked: False]
    [Frame is ignored: False]
    [Protocols in frame: usb]
USB URB
    URB id: 0xffff88003783b780
    URB type: URB_SUBMIT ('S')
    URB transfer type: URB_CONTROL out (0x02)
    Endpoint: 0x80
    Device: 78
    URB bus id: 2
    Device setup request: relevant (0)
    Data: not present ('<')
    URB sec: 1323070946
    URB usec: 515486
    URB status: Operation now in progress (-EINPROGRESS) (-115)
    URB length [bytes]: 255
    Data length [bytes]: 0
    [Response in: 42]
    [bInterfaceClass: VENDOR_SPECIFIC (0xff)]
    URB setup
        bmRequestType: 0x80
            1... .... = Direction: Device-to-host
            .00. .... = Type: Standard (0x00)
            ...0 0000 = Recipient: Device (0x00)
        bRequest: GET DESCRIPTOR (6)
        Descriptor Index: 0x03
        bDescriptorType: STRING (3)
        Language Id: English (United States) (0x0409)
        wLength: 255

0000  80 b7 83 37 00 88 ff ff 53 02 80 4e 02 00 00 3c   ...7....S..N...<
0010  e2 75 dc 4e 00 00 00 00 9e dd 07 00 8d ff ff ff   .u.N............
0020  ff 00 00 00 00 00 00 00 80 06 03 03 09 04 ff 00   ................
0030  00 00 00 00 00 00 00 00 00 02 00 00 00 00 00 00   ................

No.     Time        Source                Destination           Protocol Info
     42 48.929216   78.0                  host                  USB      GET DESCRIPTOR Response STRING

Frame 42: 106 bytes on wire (848 bits), 106 bytes captured (848 bits)
    Arrival Time: Dec  5, 2011 08:42:26.515695000 CET
    Epoch Time: 1323070946.515695000 seconds
    [Time delta from previous captured frame: 0.000209000 seconds]
    [Time delta from previous displayed frame: 0.000209000 seconds]
    [Time since reference or first frame: 48.929216000 seconds]
    Frame Number: 42
    Frame Length: 106 bytes (848 bits)
    Capture Length: 106 bytes (848 bits)
    [Frame is marked: False]
    [Frame is ignored: False]
    [Protocols in frame: usb]
USB URB
    URB id: 0xffff88003783b780
    URB type: URB_COMPLETE ('C')
    URB transfer type: URB_CONTROL out (0x02)
    Endpoint: 0x80
    Device: 78
    URB bus id: 2
    Device setup request: not relevant ('-')
    Data: present (0)
    URB sec: 1323070946
    URB usec: 515695
    URB status: Success (0)
    URB length [bytes]: 42
    Data length [bytes]: 42
    [Request in: 41]
    [Time from request: 0.000209000 seconds]
    [bInterfaceClass: VENDOR_SPECIFIC (0xff)]
    STRING DESCRIPTOR
        bLength: 42
        bDescriptorType: STRING (3)
        bString: SMIGRABBER9876543210

0000  80 b7 83 37 00 88 ff ff 43 02 80 4e 02 00 2d 00   ...7....C..N..-.
0010  e2 75 dc 4e 00 00 00 00 6f de 07 00 00 00 00 00   .u.N....o.......
0020  2a 00 00 00 2a 00 00 00 00 00 00 00 00 00 00 00   *...*...........
0030  00 00 00 00 00 00 00 00 00 02 00 00 00 00 00 00   ................
0040  2a 03 53 00 4d 00 49 00 47 00 52 00 41 00 42 00   *.S.M.I.G.R.A.B.
0050  42 00 45 00 52 00 39 00 38 00 37 00 36 00 35 00   B.E.R.9.8.7.6.5.
0060  34 00 33 00 32 00 31 00 30 00                     4.3.2.1.0.

No.     Time        Source                Destination           Protocol Info
     43 48.929246   host                  78.0                  USB      SET CONFIGURATION Request

Frame 43: 64 bytes on wire (512 bits), 64 bytes captured (512 bits)
    Arrival Time: Dec  5, 2011 08:42:26.515725000 CET
    Epoch Time: 1323070946.515725000 seconds
    [Time delta from previous captured frame: 0.000030000 seconds]
    [Time delta from previous displayed frame: 0.000030000 seconds]
    [Time since reference or first frame: 48.929246000 seconds]
    Frame Number: 43
    Frame Length: 64 bytes (512 bits)
    Capture Length: 64 bytes (512 bits)
    [Frame is marked: False]
    [Frame is ignored: False]
    [Protocols in frame: usb]
USB URB
    URB id: 0xffff88003783b780
    URB type: URB_SUBMIT ('S')
    URB transfer type: URB_CONTROL out (0x02)
    Endpoint: 0x00
    Device: 78
    URB bus id: 2
    Device setup request: relevant (0)
    Data: present (0)
    URB sec: 1323070946
    URB usec: 515725
    URB status: Operation now in progress (-EINPROGRESS) (-115)
    URB length [bytes]: 0
    Data length [bytes]: 0
    [Response in: 44]
    [bInterfaceClass: VENDOR_SPECIFIC (0xff)]
    URB setup
        bmRequestType: 0x00
            0... .... = Direction: Host-to-device
            .00. .... = Type: Standard (0x00)
            ...0 0000 = Recipient: Device (0x00)
        bRequest: SET CONFIGURATION (9)
        bConfigurationValue: 1
        wIndex: 0
        wLength: 0

0000  80 b7 83 37 00 88 ff ff 53 02 00 4e 02 00 00 00   ...7....S..N....
0010  e2 75 dc 4e 00 00 00 00 8d de 07 00 8d ff ff ff   .u.N............
0020  00 00 00 00 00 00 00 00 00 09 01 00 00 00 00 00   ................
0030  00 00 00 00 00 00 00 00 00 00 00 00 00 00 00 00   ................

No.     Time        Source                Destination           Protocol Info
     44 48.929340   78.0                  host                  USB      SET CONFIGURATION Response

Frame 44: 64 bytes on wire (512 bits), 64 bytes captured (512 bits)
    Arrival Time: Dec  5, 2011 08:42:26.515819000 CET
    Epoch Time: 1323070946.515819000 seconds
    [Time delta from previous captured frame: 0.000094000 seconds]
    [Time delta from previous displayed frame: 0.000094000 seconds]
    [Time since reference or first frame: 48.929340000 seconds]
    Frame Number: 44
    Frame Length: 64 bytes (512 bits)
    Capture Length: 64 bytes (512 bits)
    [Frame is marked: False]
    [Frame is ignored: False]
    [Protocols in frame: usb]
USB URB
    URB id: 0xffff88003783b780
    URB type: URB_COMPLETE ('C')
    URB transfer type: URB_CONTROL out (0x02)
    Endpoint: 0x00
    Device: 78
    URB bus id: 2
    Device setup request: not relevant ('-')
    Data: not present ('>')
    URB sec: 1323070946
    URB usec: 515819
    URB status: Success (0)
    URB length [bytes]: 0
    Data length [bytes]: 0
    [Request in: 43]
    [Time from request: 0.000094000 seconds]
    [bInterfaceClass: VENDOR_SPECIFIC (0xff)]

0000  80 b7 83 37 00 88 ff ff 43 02 00 4e 02 00 2d 3e   ...7....C..N..->
0010  e2 75 dc 4e 00 00 00 00 eb de 07 00 00 00 00 00   .u.N............
0020  00 00 00 00 00 00 00 00 00 00 00 00 00 00 00 00   ................
0030  00 00 00 00 00 00 00 00 00 00 00 00 00 00 00 00   ................

No.     Time        Source                Destination           Protocol Info
     45 49.029454   host                  78.0                  USB      GET DESCRIPTOR Request DEVICE

Frame 45: 64 bytes on wire (512 bits), 64 bytes captured (512 bits)
    Arrival Time: Dec  5, 2011 08:42:26.615933000 CET
    Epoch Time: 1323070946.615933000 seconds
    [Time delta from previous captured frame: 0.100114000 seconds]
    [Time delta from previous displayed frame: 0.100114000 seconds]
    [Time since reference or first frame: 49.029454000 seconds]
    Frame Number: 45
    Frame Length: 64 bytes (512 bits)
    Capture Length: 64 bytes (512 bits)
    [Frame is marked: False]
    [Frame is ignored: False]
    [Protocols in frame: usb]
USB URB
    URB id: 0xffff88003783b780
    URB type: URB_SUBMIT ('S')
    URB transfer type: URB_CONTROL out (0x02)
    Endpoint: 0x80
    Device: 78
    URB bus id: 2
    Device setup request: relevant (0)
    Data: not present ('<')
    URB sec: 1323070946
    URB usec: 615933
    URB status: Operation now in progress (-EINPROGRESS) (-115)
    URB length [bytes]: 8
    Data length [bytes]: 0
    [Response in: 46]
    [bInterfaceClass: VENDOR_SPECIFIC (0xff)]
    URB setup
        bmRequestType: 0x80
            1... .... = Direction: Device-to-host
            .00. .... = Type: Standard (0x00)
            ...0 0000 = Recipient: Device (0x00)
        bRequest: GET DESCRIPTOR (6)
        Descriptor Index: 0x00
        bDescriptorType: DEVICE (1)
        Language Id: no language specified (0x0000)
        wLength: 8

0000  80 b7 83 37 00 88 ff ff 53 02 80 4e 02 00 00 3c   ...7....S..N...<
0010  e2 75 dc 4e 00 00 00 00 fd 65 09 00 8d ff ff ff   .u.N.....e......
0020  08 00 00 00 00 00 00 00 80 06 00 01 00 00 08 00   ................
0030  00 00 00 00 00 00 00 00 00 02 00 00 00 00 00 00   ................

No.     Time        Source                Destination           Protocol Info
     46 49.029645   78.0                  host                  USB      GET DESCRIPTOR Response DEVICE[Malformed Packet]

Frame 46: 72 bytes on wire (576 bits), 72 bytes captured (576 bits)
    Arrival Time: Dec  5, 2011 08:42:26.616124000 CET
    Epoch Time: 1323070946.616124000 seconds
    [Time delta from previous captured frame: 0.000191000 seconds]
    [Time delta from previous displayed frame: 0.000191000 seconds]
    [Time since reference or first frame: 49.029645000 seconds]
    Frame Number: 46
    Frame Length: 72 bytes (576 bits)
    Capture Length: 72 bytes (576 bits)
    [Frame is marked: False]
    [Frame is ignored: False]
    [Protocols in frame: usb]
USB URB
    URB id: 0xffff88003783b780
    URB type: URB_COMPLETE ('C')
    URB transfer type: URB_CONTROL out (0x02)
    Endpoint: 0x80
    Device: 78
    URB bus id: 2
    Device setup request: not relevant ('-')
    Data: present (0)
    URB sec: 1323070946
    URB usec: 616124
    URB status: Success (0)
    URB length [bytes]: 8
    Data length [bytes]: 8
    [Request in: 45]
    [Time from request: 0.000191000 seconds]
    [bInterfaceClass: VENDOR_SPECIFIC (0xff)]
    DEVICE DESCRIPTOR
        bLength: 18
        bDescriptorType: DEVICE (1)
        bcdUSB: 0x0200
        bDeviceClass: 0
        bDeviceSubClass: 0
        bDeviceProtocol: 0
        bMaxPacketSize0: 64
[Malformed Packet: USB]
    [Expert Info (Error/Malformed): Malformed Packet (Exception occurred)]
        [Message: Malformed Packet (Exception occurred)]
        [Severity level: Error]
        [Group: Malformed]

0000  80 b7 83 37 00 88 ff ff 43 02 80 4e 02 00 2d 00   ...7....C..N..-.
0010  e2 75 dc 4e 00 00 00 00 bc 66 09 00 00 00 00 00   .u.N.....f......
0020  08 00 00 00 08 00 00 00 00 00 00 00 00 00 00 00   ................
0030  00 00 00 00 00 00 00 00 00 02 00 00 00 00 00 00   ................
0040  12 01 00 02 00 00 00 40                           .......@

No.     Time        Source                Destination           Protocol Info
     47 49.031373   host                  78.0                  USB      GET DESCRIPTOR Request CONFIGURATION

Frame 47: 64 bytes on wire (512 bits), 64 bytes captured (512 bits)
    Arrival Time: Dec  5, 2011 08:42:26.617852000 CET
    Epoch Time: 1323070946.617852000 seconds
    [Time delta from previous captured frame: 0.001728000 seconds]
    [Time delta from previous displayed frame: 0.001728000 seconds]
    [Time since reference or first frame: 49.031373000 seconds]
    Frame Number: 47
    Frame Length: 64 bytes (512 bits)
    Capture Length: 64 bytes (512 bits)
    [Frame is marked: False]
    [Frame is ignored: False]
    [Protocols in frame: usb]
USB URB
    URB id: 0xffff88003783be40
    URB type: URB_SUBMIT ('S')
    URB transfer type: URB_CONTROL out (0x02)
    Endpoint: 0x80
    Device: 78
    URB bus id: 2
    Device setup request: relevant (0)
    Data: not present ('<')
    URB sec: 1323070946
    URB usec: 617852
    URB status: Operation now in progress (-EINPROGRESS) (-115)
    URB length [bytes]: 9
    Data length [bytes]: 0
    [Response in: 48]
    [bInterfaceClass: VENDOR_SPECIFIC (0xff)]
    URB setup
        bmRequestType: 0x80
            1... .... = Direction: Device-to-host
            .00. .... = Type: Standard (0x00)
            ...0 0000 = Recipient: Device (0x00)
        bRequest: GET DESCRIPTOR (6)
        Descriptor Index: 0x00
        bDescriptorType: CONFIGURATION (2)
        Language Id: no language specified (0x0000)
        wLength: 9

0000  40 be 83 37 00 88 ff ff 53 02 80 4e 02 00 00 3c   @..7....S..N...<
0010  e2 75 dc 4e 00 00 00 00 7c 6d 09 00 8d ff ff ff   .u.N....|m......
0020  09 00 00 00 00 00 00 00 80 06 00 02 00 00 09 00   ................
0030  00 00 00 00 00 00 00 00 00 02 00 00 00 00 00 00   ................

No.     Time        Source                Destination           Protocol Info
     48 49.031593   78.0                  host                  USB      GET DESCRIPTOR Response CONFIGURATION

Frame 48: 73 bytes on wire (584 bits), 73 bytes captured (584 bits)
    Arrival Time: Dec  5, 2011 08:42:26.618072000 CET
    Epoch Time: 1323070946.618072000 seconds
    [Time delta from previous captured frame: 0.000220000 seconds]
    [Time delta from previous displayed frame: 0.000220000 seconds]
    [Time since reference or first frame: 49.031593000 seconds]
    Frame Number: 48
    Frame Length: 73 bytes (584 bits)
    Capture Length: 73 bytes (584 bits)
    [Frame is marked: False]
    [Frame is ignored: False]
    [Protocols in frame: usb]
USB URB
    URB id: 0xffff88003783be40
    URB type: URB_COMPLETE ('C')
    URB transfer type: URB_CONTROL out (0x02)
    Endpoint: 0x80
    Device: 78
    URB bus id: 2
    Device setup request: not relevant ('-')
    Data: present (0)
    URB sec: 1323070946
    URB usec: 618072
    URB status: Success (0)
    URB length [bytes]: 9
    Data length [bytes]: 9
    [Request in: 47]
    [Time from request: 0.000220000 seconds]
    [bInterfaceClass: VENDOR_SPECIFIC (0xff)]
    CONFIGURATION DESCRIPTOR
        bLength: 9
        bDescriptorType: CONFIGURATION (2)
        wTotalLength: 50
        bNumInterfaces: 1
        bConfigurationValue: 1
        iConfiguration: 0
        Configuration bmAttributes: 0x80  NOT SELF-POWERED  NO REMOTE-WAKEUP
            1... .... = Must be 1: Must be 1 for USB 1.1 and higher
            .0.. .... = Self-Powered: This device is powered from the USB bus
            ..0. .... = Remote Wakeup: This device does NOT support remote wakeup
        bMaxPower: 250  (500mA)

0000  40 be 83 37 00 88 ff ff 43 02 80 4e 02 00 2d 00   @..7....C..N..-.
0010  e2 75 dc 4e 00 00 00 00 58 6e 09 00 00 00 00 00   .u.N....Xn......
0020  09 00 00 00 09 00 00 00 00 00 00 00 00 00 00 00   ................
0030  00 00 00 00 00 00 00 00 00 02 00 00 00 00 00 00   ................
0040  09 02 32 00 01 01 00 80 fa                        ..2......

No.     Time        Source                Destination           Protocol Info
     49 49.033673   host                  78.0                  USB      GET DESCRIPTOR Request CONFIGURATION

Frame 49: 64 bytes on wire (512 bits), 64 bytes captured (512 bits)
    Arrival Time: Dec  5, 2011 08:42:26.620152000 CET
    Epoch Time: 1323070946.620152000 seconds
    [Time delta from previous captured frame: 0.002080000 seconds]
    [Time delta from previous displayed frame: 0.002080000 seconds]
    [Time since reference or first frame: 49.033673000 seconds]
    Frame Number: 49
    Frame Length: 64 bytes (512 bits)
    Capture Length: 64 bytes (512 bits)
    [Frame is marked: False]
    [Frame is ignored: False]
    [Protocols in frame: usb]
USB URB
    URB id: 0xffff88003783b780
    URB type: URB_SUBMIT ('S')
    URB transfer type: URB_CONTROL out (0x02)
    Endpoint: 0x80
    Device: 78
    URB bus id: 2
    Device setup request: relevant (0)
    Data: not present ('<')
    URB sec: 1323070946
    URB usec: 620152
    URB status: Operation now in progress (-EINPROGRESS) (-115)
    URB length [bytes]: 50
    Data length [bytes]: 0
    [Response in: 50]
    [bInterfaceClass: VENDOR_SPECIFIC (0xff)]
    URB setup
        bmRequestType: 0x80
            1... .... = Direction: Device-to-host
            .00. .... = Type: Standard (0x00)
            ...0 0000 = Recipient: Device (0x00)
        bRequest: GET DESCRIPTOR (6)
        Descriptor Index: 0x00
        bDescriptorType: CONFIGURATION (2)
        Language Id: no language specified (0x0000)
        wLength: 50

0000  80 b7 83 37 00 88 ff ff 53 02 80 4e 02 00 00 3c   ...7....S..N...<
0010  e2 75 dc 4e 00 00 00 00 78 76 09 00 8d ff ff ff   .u.N....xv......
0020  32 00 00 00 00 00 00 00 80 06 00 02 00 00 32 00   2.............2.
0030  00 00 00 00 00 00 00 00 00 02 00 00 00 00 00 00   ................

No.     Time        Source                Destination           Protocol Info
     50 49.033862   78.0                  host                  USB      GET DESCRIPTOR Response CONFIGURATION

Frame 50: 114 bytes on wire (912 bits), 114 bytes captured (912 bits)
    Arrival Time: Dec  5, 2011 08:42:26.620341000 CET
    Epoch Time: 1323070946.620341000 seconds
    [Time delta from previous captured frame: 0.000189000 seconds]
    [Time delta from previous displayed frame: 0.000189000 seconds]
    [Time since reference or first frame: 49.033862000 seconds]
    Frame Number: 50
    Frame Length: 114 bytes (912 bits)
    Capture Length: 114 bytes (912 bits)
    [Frame is marked: False]
    [Frame is ignored: False]
    [Protocols in frame: usb]
USB URB
    URB id: 0xffff88003783b780
    URB type: URB_COMPLETE ('C')
    URB transfer type: URB_CONTROL out (0x02)
    Endpoint: 0x80
    Device: 78
    URB bus id: 2
    Device setup request: not relevant ('-')
    Data: present (0)
    URB sec: 1323070946
    URB usec: 620341
    URB status: Success (0)
    URB length [bytes]: 50
    Data length [bytes]: 50
    [Request in: 49]
    [Time from request: 0.000189000 seconds]
    [bInterfaceClass: VENDOR_SPECIFIC (0xff)]
    CONFIGURATION DESCRIPTOR
        bLength: 9
        bDescriptorType: CONFIGURATION (2)
        wTotalLength: 50
        bNumInterfaces: 1
        bConfigurationValue: 1
        iConfiguration: 0
        Configuration bmAttributes: 0x80  NOT SELF-POWERED  NO REMOTE-WAKEUP
            1... .... = Must be 1: Must be 1 for USB 1.1 and higher
            .0.. .... = Self-Powered: This device is powered from the USB bus
            ..0. .... = Remote Wakeup: This device does NOT support remote wakeup
        bMaxPower: 250  (500mA)
    INTERFACE DESCRIPTOR
        bLength: 9
        bDescriptorType: INTERFACE (4)
        bInterfaceNumber: 0
        bAlternateSetting: 0
        bNumEndpoints: 0
        bInterfaceClass: VENDOR_SPECIFIC (0xff)
        bInterfaceSubClass: 0xff
        bInterfaceProtocol: 0xff
        iInterface: 0
    INTERFACE DESCRIPTOR
        bLength: 9
        bDescriptorType: INTERFACE (4)
        bInterfaceNumber: 0
        bAlternateSetting: 1
        bNumEndpoints: 1
        bInterfaceClass: VENDOR_SPECIFIC (0xff)
        bInterfaceSubClass: 0xff
        bInterfaceProtocol: 0xff
        iInterface: 0
    ENDPOINT DESCRIPTOR
        bLength: 7
        bDescriptorType: ENDPOINT (5)
        bEndpointAddress: 0x82  IN  Endpoint:2
            1... .... = Direction: IN Endpoint
            .... 0010 = Endpoint Number: 0x02
        bmAttributes: 0x05
            .... ..01 = Transfertype: Isochronous-Transfer (0x01)
            .... 01.. = Synchronisationtype: Unknown (0x01)
            ..00 .... = Behaviourtype: Data-Endpoint (0x00)
        wMaxPacketSize: 1023
        bInterval: 1
    INTERFACE DESCRIPTOR
        bLength: 9
        bDescriptorType: INTERFACE (4)
        bInterfaceNumber: 0
        bAlternateSetting: 2
        bNumEndpoints: 1
        bInterfaceClass: VENDOR_SPECIFIC (0xff)
        bInterfaceSubClass: 0xff
        bInterfaceProtocol: 0xff
        iInterface: 0
    ENDPOINT DESCRIPTOR
        bLength: 7
        bDescriptorType: ENDPOINT (5)
        bEndpointAddress: 0x82  IN  Endpoint:2
            1... .... = Direction: IN Endpoint
            .... 0010 = Endpoint Number: 0x02
        bmAttributes: 0x05
            .... ..01 = Transfertype: Isochronous-Transfer (0x01)
            .... 01.. = Synchronisationtype: Unknown (0x01)
            ..00 .... = Behaviourtype: Data-Endpoint (0x00)
        wMaxPacketSize: 5120
        bInterval: 1

0000  80 b7 83 37 00 88 ff ff 43 02 80 4e 02 00 2d 00   ...7....C..N..-.
0010  e2 75 dc 4e 00 00 00 00 35 77 09 00 00 00 00 00   .u.N....5w......
0020  32 00 00 00 32 00 00 00 00 00 00 00 00 00 00 00   2...2...........
0030  00 00 00 00 00 00 00 00 00 02 00 00 00 00 00 00   ................
0040  09 02 32 00 01 01 00 80 fa 09 04 00 00 00 ff ff   ..2.............
0050  ff 00 09 04 00 01 01 ff ff ff 00 07 05 82 05 ff   ................
0060  03 01 09 04 00 02 01 ff ff ff 00 07 05 82 05 00   ................
0070  14 01                                             ..

No.     Time        Source                Destination           Protocol Info
     69 70.778768   host                  0.0                   USB      SET ADDRESS Request

Frame 69: 64 bytes on wire (512 bits), 64 bytes captured (512 bits)
    Arrival Time: Dec  5, 2011 08:42:48.365247000 CET
    Epoch Time: 1323070968.365247000 seconds
    [Time delta from previous captured frame: 0.000014000 seconds]
    [Time delta from previous displayed frame: 21.744906000 seconds]
    [Time since reference or first frame: 70.778768000 seconds]
    Frame Number: 69
    Frame Length: 64 bytes (512 bits)
    Capture Length: 64 bytes (512 bits)
    [Frame is marked: False]
    [Frame is ignored: False]
    [Protocols in frame: usb]
USB URB
    URB id: 0xffff88012746b680
    URB type: URB_SUBMIT ('S')
    URB transfer type: URB_CONTROL out (0x02)
    Endpoint: 0x00
    Device: 0
    URB bus id: 2
    Device setup request: relevant (0)
    Data: present (0)
    URB sec: 1323070968
    URB usec: 365247
    URB status: Operation now in progress (-EINPROGRESS) (-115)
    URB length [bytes]: 0
    Data length [bytes]: 0
    [Response in: 70]
    [bInterfaceClass: Unknown (0xffff)]
    URB setup
        bmRequestType: 0x00
            0... .... = Direction: Host-to-device
            .00. .... = Type: Standard (0x00)
            ...0 0000 = Recipient: Device (0x00)
        bRequest: SET ADDRESS (5)
        Device: 78
        wIndex: 0
        wLength: 0

0000  80 b6 46 27 01 88 ff ff 53 02 00 00 02 00 00 00   ..F'....S.......
0010  f8 75 dc 4e 00 00 00 00 bf 92 05 00 8d ff ff ff   .u.N............
0020  00 00 00 00 00 00 00 00 00 05 4e 00 00 00 00 00   ..........N.....
0030  00 00 00 00 00 00 00 00 00 00 00 00 00 00 00 00   ................

No.     Time        Source                Destination           Protocol Info
     71 70.790667   host                  78.0                  USB      GET DESCRIPTOR Request DEVICE

Frame 71: 64 bytes on wire (512 bits), 64 bytes captured (512 bits)
    Arrival Time: Dec  5, 2011 08:42:48.377146000 CET
    Epoch Time: 1323070968.377146000 seconds
    [Time delta from previous captured frame: 0.011803000 seconds]
    [Time delta from previous displayed frame: 0.011899000 seconds]
    [Time since reference or first frame: 70.790667000 seconds]
    Frame Number: 71
    Frame Length: 64 bytes (512 bits)
    Capture Length: 64 bytes (512 bits)
    [Frame is marked: False]
    [Frame is ignored: False]
    [Protocols in frame: usb]
USB URB
    URB id: 0xffff88012746b680
    URB type: URB_SUBMIT ('S')
    URB transfer type: URB_CONTROL out (0x02)
    Endpoint: 0x80
    Device: 78
    URB bus id: 2
    Device setup request: relevant (0)
    Data: not present ('<')
    URB sec: 1323070968
    URB usec: 377146
    URB status: Operation now in progress (-EINPROGRESS) (-115)
    URB length [bytes]: 18
    Data length [bytes]: 0
    [Response in: 72]
    [bInterfaceClass: VENDOR_SPECIFIC (0xff)]
    URB setup
        bmRequestType: 0x80
            1... .... = Direction: Device-to-host
            .00. .... = Type: Standard (0x00)
            ...0 0000 = Recipient: Device (0x00)
        bRequest: GET DESCRIPTOR (6)
        Descriptor Index: 0x00
        bDescriptorType: DEVICE (1)
        Language Id: no language specified (0x0000)
        wLength: 18

0000  80 b6 46 27 01 88 ff ff 53 02 80 4e 02 00 00 3c   ..F'....S..N...<
0010  f8 75 dc 4e 00 00 00 00 3a c1 05 00 8d ff ff ff   .u.N....:.......
0020  12 00 00 00 00 00 00 00 80 06 00 01 00 00 12 00   ................
0030  00 00 00 00 00 00 00 00 00 02 00 00 00 00 00 00   ................

No.     Time        Source                Destination           Protocol Info
     72 70.790844   78.0                  host                  USB      GET DESCRIPTOR Response DEVICE

Frame 72: 82 bytes on wire (656 bits), 82 bytes captured (656 bits)
    Arrival Time: Dec  5, 2011 08:42:48.377323000 CET
    Epoch Time: 1323070968.377323000 seconds
    [Time delta from previous captured frame: 0.000177000 seconds]
    [Time delta from previous displayed frame: 0.000177000 seconds]
    [Time since reference or first frame: 70.790844000 seconds]
    Frame Number: 72
    Frame Length: 82 bytes (656 bits)
    Capture Length: 82 bytes (656 bits)
    [Frame is marked: False]
    [Frame is ignored: False]
    [Protocols in frame: usb]
USB URB
    URB id: 0xffff88012746b680
    URB type: URB_COMPLETE ('C')
    URB transfer type: URB_CONTROL out (0x02)
    Endpoint: 0x80
    Device: 78
    URB bus id: 2
    Device setup request: not relevant ('-')
    Data: present (0)
    URB sec: 1323070968
    URB usec: 377323
    URB status: Success (0)
    URB length [bytes]: 18
    Data length [bytes]: 18
    [Request in: 71]
    [Time from request: 0.000177000 seconds]
    [bInterfaceClass: VENDOR_SPECIFIC (0xff)]
    DEVICE DESCRIPTOR
        bLength: 18
        bDescriptorType: DEVICE (1)
        bcdUSB: 0x0200
        bDeviceClass: 0
        bDeviceSubClass: 0
        bDeviceProtocol: 0
        bMaxPacketSize0: 64
        idVendor: 0x1c88
        idProduct: 0x003c
        bcdDevice: 0x0100
        iManufacturer: 1
        iProduct: 2
        iSerialNumber: 3
        bNumConfigurations: 1

0000  80 b6 46 27 01 88 ff ff 43 02 80 4e 02 00 2d 00   ..F'....C..N..-.
0010  f8 75 dc 4e 00 00 00 00 eb c1 05 00 00 00 00 00   .u.N............
0020  12 00 00 00 12 00 00 00 00 00 00 00 00 00 00 00   ................
0030  00 00 00 00 00 00 00 00 00 02 00 00 00 00 00 00   ................
0040  12 01 00 02 00 00 00 40 88 1c 3c 00 00 01 01 02   .......@..<.....
0050  03 01                                             ..

No.     Time        Source                Destination           Protocol Info
     73 70.790870   host                  78.0                  USB      GET DESCRIPTOR Request CONFIGURATION

Frame 73: 64 bytes on wire (512 bits), 64 bytes captured (512 bits)
    Arrival Time: Dec  5, 2011 08:42:48.377349000 CET
    Epoch Time: 1323070968.377349000 seconds
    [Time delta from previous captured frame: 0.000026000 seconds]
    [Time delta from previous displayed frame: 0.000026000 seconds]
    [Time since reference or first frame: 70.790870000 seconds]
    Frame Number: 73
    Frame Length: 64 bytes (512 bits)
    Capture Length: 64 bytes (512 bits)
    [Frame is marked: False]
    [Frame is ignored: False]
    [Protocols in frame: usb]
USB URB
    URB id: 0xffff88012746b680
    URB type: URB_SUBMIT ('S')
    URB transfer type: URB_CONTROL out (0x02)
    Endpoint: 0x80
    Device: 78
    URB bus id: 2
    Device setup request: relevant (0)
    Data: not present ('<')
    URB sec: 1323070968
    URB usec: 377349
    URB status: Operation now in progress (-EINPROGRESS) (-115)
    URB length [bytes]: 50
    Data length [bytes]: 0
    [Response in: 74]
    [bInterfaceClass: VENDOR_SPECIFIC (0xff)]
    URB setup
        bmRequestType: 0x80
            1... .... = Direction: Device-to-host
            .00. .... = Type: Standard (0x00)
            ...0 0000 = Recipient: Device (0x00)
        bRequest: GET DESCRIPTOR (6)
        Descriptor Index: 0x00
        bDescriptorType: CONFIGURATION (2)
        Language Id: no language specified (0x0000)
        wLength: 50

0000  80 b6 46 27 01 88 ff ff 53 02 80 4e 02 00 00 3c   ..F'....S..N...<
0010  f8 75 dc 4e 00 00 00 00 05 c2 05 00 8d ff ff ff   .u.N............
0020  32 00 00 00 00 00 00 00 80 06 00 02 00 00 32 00   2.............2.
0030  00 00 00 00 00 00 00 00 00 02 00 00 00 00 00 00   ................

No.     Time        Source                Destination           Protocol Info
     74 70.791008   78.0                  host                  USB      GET DESCRIPTOR Response CONFIGURATION

Frame 74: 114 bytes on wire (912 bits), 114 bytes captured (912 bits)
    Arrival Time: Dec  5, 2011 08:42:48.377487000 CET
    Epoch Time: 1323070968.377487000 seconds
    [Time delta from previous captured frame: 0.000138000 seconds]
    [Time delta from previous displayed frame: 0.000138000 seconds]
    [Time since reference or first frame: 70.791008000 seconds]
    Frame Number: 74
    Frame Length: 114 bytes (912 bits)
    Capture Length: 114 bytes (912 bits)
    [Frame is marked: False]
    [Frame is ignored: False]
    [Protocols in frame: usb]
USB URB
    URB id: 0xffff88012746b680
    URB type: URB_COMPLETE ('C')
    URB transfer type: URB_CONTROL out (0x02)
    Endpoint: 0x80
    Device: 78
    URB bus id: 2
    Device setup request: not relevant ('-')
    Data: present (0)
    URB sec: 1323070968
    URB usec: 377487
    URB status: Success (0)
    URB length [bytes]: 50
    Data length [bytes]: 50
    [Request in: 73]
    [Time from request: 0.000138000 seconds]
    [bInterfaceClass: VENDOR_SPECIFIC (0xff)]
    CONFIGURATION DESCRIPTOR
        bLength: 9
        bDescriptorType: CONFIGURATION (2)
        wTotalLength: 50
        bNumInterfaces: 1
        bConfigurationValue: 1
        iConfiguration: 0
        Configuration bmAttributes: 0x80  NOT SELF-POWERED  NO REMOTE-WAKEUP
            1... .... = Must be 1: Must be 1 for USB 1.1 and higher
            .0.. .... = Self-Powered: This device is powered from the USB bus
            ..0. .... = Remote Wakeup: This device does NOT support remote wakeup
        bMaxPower: 250  (500mA)
    INTERFACE DESCRIPTOR
        bLength: 9
        bDescriptorType: INTERFACE (4)
        bInterfaceNumber: 0
        bAlternateSetting: 0
        bNumEndpoints: 0
        bInterfaceClass: VENDOR_SPECIFIC (0xff)
        bInterfaceSubClass: 0xff
        bInterfaceProtocol: 0xff
        iInterface: 0
    INTERFACE DESCRIPTOR
        bLength: 9
        bDescriptorType: INTERFACE (4)
        bInterfaceNumber: 0
        bAlternateSetting: 1
        bNumEndpoints: 1
        bInterfaceClass: VENDOR_SPECIFIC (0xff)
        bInterfaceSubClass: 0xff
        bInterfaceProtocol: 0xff
        iInterface: 0
    ENDPOINT DESCRIPTOR
        bLength: 7
        bDescriptorType: ENDPOINT (5)
        bEndpointAddress: 0x82  IN  Endpoint:2
            1... .... = Direction: IN Endpoint
            .... 0010 = Endpoint Number: 0x02
        bmAttributes: 0x05
            .... ..01 = Transfertype: Isochronous-Transfer (0x01)
            .... 01.. = Synchronisationtype: Unknown (0x01)
            ..00 .... = Behaviourtype: Data-Endpoint (0x00)
        wMaxPacketSize: 1023
        bInterval: 1
    INTERFACE DESCRIPTOR
        bLength: 9
        bDescriptorType: INTERFACE (4)
        bInterfaceNumber: 0
        bAlternateSetting: 2
        bNumEndpoints: 1
        bInterfaceClass: VENDOR_SPECIFIC (0xff)
        bInterfaceSubClass: 0xff
        bInterfaceProtocol: 0xff
        iInterface: 0
    ENDPOINT DESCRIPTOR
        bLength: 7
        bDescriptorType: ENDPOINT (5)
        bEndpointAddress: 0x82  IN  Endpoint:2
            1... .... = Direction: IN Endpoint
            .... 0010 = Endpoint Number: 0x02
        bmAttributes: 0x05
            .... ..01 = Transfertype: Isochronous-Transfer (0x01)
            .... 01.. = Synchronisationtype: Unknown (0x01)
            ..00 .... = Behaviourtype: Data-Endpoint (0x00)
        wMaxPacketSize: 5120
        bInterval: 1

0000  80 b6 46 27 01 88 ff ff 43 02 80 4e 02 00 2d 00   ..F'....C..N..-.
0010  f8 75 dc 4e 00 00 00 00 8f c2 05 00 00 00 00 00   .u.N............
0020  32 00 00 00 32 00 00 00 00 00 00 00 00 00 00 00   2...2...........
0030  00 00 00 00 00 00 00 00 00 02 00 00 00 00 00 00   ................
0040  09 02 32 00 01 01 00 80 fa 09 04 00 00 00 ff ff   ..2.............
0050  ff 00 09 04 00 01 01 ff ff ff 00 07 05 82 05 ff   ................
0060  03 01 09 04 00 02 01 ff ff ff 00 07 05 82 05 00   ................
0070  14 01                                             ..

No.     Time        Source                Destination           Protocol Info
     75 70.791031   host                  78.0                  USB      GET DESCRIPTOR Request STRING

Frame 75: 64 bytes on wire (512 bits), 64 bytes captured (512 bits)
    Arrival Time: Dec  5, 2011 08:42:48.377510000 CET
    Epoch Time: 1323070968.377510000 seconds
    [Time delta from previous captured frame: 0.000023000 seconds]
    [Time delta from previous displayed frame: 0.000023000 seconds]
    [Time since reference or first frame: 70.791031000 seconds]
    Frame Number: 75
    Frame Length: 64 bytes (512 bits)
    Capture Length: 64 bytes (512 bits)
    [Frame is marked: False]
    [Frame is ignored: False]
    [Protocols in frame: usb]
USB URB
    URB id: 0xffff88012746b680
    URB type: URB_SUBMIT ('S')
    URB transfer type: URB_CONTROL out (0x02)
    Endpoint: 0x80
    Device: 78
    URB bus id: 2
    Device setup request: relevant (0)
    Data: not present ('<')
    URB sec: 1323070968
    URB usec: 377510
    URB status: Operation now in progress (-EINPROGRESS) (-115)
    URB length [bytes]: 255
    Data length [bytes]: 0
    [Response in: 76]
    [bInterfaceClass: VENDOR_SPECIFIC (0xff)]
    URB setup
        bmRequestType: 0x80
            1... .... = Direction: Device-to-host
            .00. .... = Type: Standard (0x00)
            ...0 0000 = Recipient: Device (0x00)
        bRequest: GET DESCRIPTOR (6)
        Descriptor Index: 0x03
        bDescriptorType: STRING (3)
        Language Id: English (United States) (0x0409)
        wLength: 255

0000  80 b6 46 27 01 88 ff ff 53 02 80 4e 02 00 00 3c   ..F'....S..N...<
0010  f8 75 dc 4e 00 00 00 00 a6 c2 05 00 8d ff ff ff   .u.N............
0020  ff 00 00 00 00 00 00 00 80 06 03 03 09 04 ff 00   ................
0030  00 00 00 00 00 00 00 00 00 02 00 00 00 00 00 00   ................

No.     Time        Source                Destination           Protocol Info
     76 70.791216   78.0                  host                  USB      GET DESCRIPTOR Response STRING

Frame 76: 106 bytes on wire (848 bits), 106 bytes captured (848 bits)
    Arrival Time: Dec  5, 2011 08:42:48.377695000 CET
    Epoch Time: 1323070968.377695000 seconds
    [Time delta from previous captured frame: 0.000185000 seconds]
    [Time delta from previous displayed frame: 0.000185000 seconds]
    [Time since reference or first frame: 70.791216000 seconds]
    Frame Number: 76
    Frame Length: 106 bytes (848 bits)
    Capture Length: 106 bytes (848 bits)
    [Frame is marked: False]
    [Frame is ignored: False]
    [Protocols in frame: usb]
USB URB
    URB id: 0xffff88012746b680
    URB type: URB_COMPLETE ('C')
    URB transfer type: URB_CONTROL out (0x02)
    Endpoint: 0x80
    Device: 78
    URB bus id: 2
    Device setup request: not relevant ('-')
    Data: present (0)
    URB sec: 1323070968
    URB usec: 377695
    URB status: Success (0)
    URB length [bytes]: 42
    Data length [bytes]: 42
    [Request in: 75]
    [Time from request: 0.000185000 seconds]
    [bInterfaceClass: VENDOR_SPECIFIC (0xff)]
    STRING DESCRIPTOR
        bLength: 42
        bDescriptorType: STRING (3)
        bString: SMIGRABBER9876543210

0000  80 b6 46 27 01 88 ff ff 43 02 80 4e 02 00 2d 00   ..F'....C..N..-.
0010  f8 75 dc 4e 00 00 00 00 5f c3 05 00 00 00 00 00   .u.N...._.......
0020  2a 00 00 00 2a 00 00 00 00 00 00 00 00 00 00 00   *...*...........
0030  00 00 00 00 00 00 00 00 00 02 00 00 00 00 00 00   ................
0040  2a 03 53 00 4d 00 49 00 47 00 52 00 41 00 42 00   *.S.M.I.G.R.A.B.
0050  42 00 45 00 52 00 39 00 38 00 37 00 36 00 35 00   B.E.R.9.8.7.6.5.
0060  34 00 33 00 32 00 31 00 30 00                     4.3.2.1.0.

No.     Time        Source                Destination           Protocol Info
     77 70.791227   host                  78.0                  USB      SET CONFIGURATION Request

Frame 77: 64 bytes on wire (512 bits), 64 bytes captured (512 bits)
    Arrival Time: Dec  5, 2011 08:42:48.377706000 CET
    Epoch Time: 1323070968.377706000 seconds
    [Time delta from previous captured frame: 0.000011000 seconds]
    [Time delta from previous displayed frame: 0.000011000 seconds]
    [Time since reference or first frame: 70.791227000 seconds]
    Frame Number: 77
    Frame Length: 64 bytes (512 bits)
    Capture Length: 64 bytes (512 bits)
    [Frame is marked: False]
    [Frame is ignored: False]
    [Protocols in frame: usb]
USB URB
    URB id: 0xffff88012746b680
    URB type: URB_SUBMIT ('S')
    URB transfer type: URB_CONTROL out (0x02)
    Endpoint: 0x00
    Device: 78
    URB bus id: 2
    Device setup request: relevant (0)
    Data: present (0)
    URB sec: 1323070968
    URB usec: 377706
    URB status: Operation now in progress (-EINPROGRESS) (-115)
    URB length [bytes]: 0
    Data length [bytes]: 0
    [Response in: 78]
    [bInterfaceClass: VENDOR_SPECIFIC (0xff)]
    URB setup
        bmRequestType: 0x00
            0... .... = Direction: Host-to-device
            .00. .... = Type: Standard (0x00)
            ...0 0000 = Recipient: Device (0x00)
        bRequest: SET CONFIGURATION (9)
        bConfigurationValue: 1
        wIndex: 0
        wLength: 0

0000  80 b6 46 27 01 88 ff ff 53 02 00 4e 02 00 00 00   ..F'....S..N....
0010  f8 75 dc 4e 00 00 00 00 6a c3 05 00 8d ff ff ff   .u.N....j.......
0020  00 00 00 00 00 00 00 00 00 09 01 00 00 00 00 00   ................
0030  00 00 00 00 00 00 00 00 00 00 00 00 00 00 00 00   ................

No.     Time        Source                Destination           Protocol Info
     78 70.791383   78.0                  host                  USB      SET CONFIGURATION Response

Frame 78: 64 bytes on wire (512 bits), 64 bytes captured (512 bits)
    Arrival Time: Dec  5, 2011 08:42:48.377862000 CET
    Epoch Time: 1323070968.377862000 seconds
    [Time delta from previous captured frame: 0.000156000 seconds]
    [Time delta from previous displayed frame: 0.000156000 seconds]
    [Time since reference or first frame: 70.791383000 seconds]
    Frame Number: 78
    Frame Length: 64 bytes (512 bits)
    Capture Length: 64 bytes (512 bits)
    [Frame is marked: False]
    [Frame is ignored: False]
    [Protocols in frame: usb]
USB URB
    URB id: 0xffff88012746b680
    URB type: URB_COMPLETE ('C')
    URB transfer type: URB_CONTROL out (0x02)
    Endpoint: 0x00
    Device: 78
    URB bus id: 2
    Device setup request: not relevant ('-')
    Data: not present ('>')
    URB sec: 1323070968
    URB usec: 377862
    URB status: Success (0)
    URB length [bytes]: 0
    Data length [bytes]: 0
    [Request in: 77]
    [Time from request: 0.000156000 seconds]
    [bInterfaceClass: VENDOR_SPECIFIC (0xff)]

0000  80 b6 46 27 01 88 ff ff 43 02 00 4e 02 00 2d 3e   ..F'....C..N..->
0010  f8 75 dc 4e 00 00 00 00 06 c4 05 00 00 00 00 00   .u.N............
0020  00 00 00 00 00 00 00 00 00 00 00 00 00 00 00 00   ................
0030  00 00 00 00 00 00 00 00 00 00 00 00 00 00 00 00   ................

No.     Time        Source                Destination           Protocol Info
     97 71.037746   host                  0.0                   USB      SET ADDRESS Request

Frame 97: 64 bytes on wire (512 bits), 64 bytes captured (512 bits)
    Arrival Time: Dec  5, 2011 08:42:48.624225000 CET
    Epoch Time: 1323070968.624225000 seconds
    [Time delta from previous captured frame: 0.000023000 seconds]
    [Time delta from previous displayed frame: 0.246363000 seconds]
    [Time since reference or first frame: 71.037746000 seconds]
    Frame Number: 97
    Frame Length: 64 bytes (512 bits)
    Capture Length: 64 bytes (512 bits)
    [Frame is marked: False]
    [Frame is ignored: False]
    [Protocols in frame: usb]
USB URB
    URB id: 0xffff88012746b080
    URB type: URB_SUBMIT ('S')
    URB transfer type: URB_CONTROL out (0x02)
    Endpoint: 0x00
    Device: 0
    URB bus id: 2
    Device setup request: relevant (0)
    Data: present (0)
    URB sec: 1323070968
    URB usec: 624225
    URB status: Operation now in progress (-EINPROGRESS) (-115)
    URB length [bytes]: 0
    Data length [bytes]: 0
    [Response in: 98]
    [bInterfaceClass: Unknown (0xffff)]
    URB setup
        bmRequestType: 0x00
            0... .... = Direction: Host-to-device
            .00. .... = Type: Standard (0x00)
            ...0 0000 = Recipient: Device (0x00)
        bRequest: SET ADDRESS (5)
        Device: 78
        wIndex: 0
        wLength: 0

0000  80 b0 46 27 01 88 ff ff 53 02 00 00 02 00 00 00   ..F'....S.......
0010  f8 75 dc 4e 00 00 00 00 61 86 09 00 8d ff ff ff   .u.N....a.......
0020  00 00 00 00 00 00 00 00 00 05 4e 00 00 00 00 00   ..........N.....
0030  00 00 00 00 00 00 00 00 00 00 00 00 00 00 00 00   ................

No.     Time        Source                Destination           Protocol Info
     99 71.049677   host                  78.0                  USB      GET DESCRIPTOR Request DEVICE

Frame 99: 64 bytes on wire (512 bits), 64 bytes captured (512 bits)
    Arrival Time: Dec  5, 2011 08:42:48.636156000 CET
    Epoch Time: 1323070968.636156000 seconds
    [Time delta from previous captured frame: 0.011834000 seconds]
    [Time delta from previous displayed frame: 0.011931000 seconds]
    [Time since reference or first frame: 71.049677000 seconds]
    Frame Number: 99
    Frame Length: 64 bytes (512 bits)
    Capture Length: 64 bytes (512 bits)
    [Frame is marked: False]
    [Frame is ignored: False]
    [Protocols in frame: usb]
USB URB
    URB id: 0xffff88012746b080
    URB type: URB_SUBMIT ('S')
    URB transfer type: URB_CONTROL out (0x02)
    Endpoint: 0x80
    Device: 78
    URB bus id: 2
    Device setup request: relevant (0)
    Data: not present ('<')
    URB sec: 1323070968
    URB usec: 636156
    URB status: Operation now in progress (-EINPROGRESS) (-115)
    URB length [bytes]: 18
    Data length [bytes]: 0
    [Response in: 100]
    [bInterfaceClass: VENDOR_SPECIFIC (0xff)]
    URB setup
        bmRequestType: 0x80
            1... .... = Direction: Device-to-host
            .00. .... = Type: Standard (0x00)
            ...0 0000 = Recipient: Device (0x00)
        bRequest: GET DESCRIPTOR (6)
        Descriptor Index: 0x00
        bDescriptorType: DEVICE (1)
        Language Id: no language specified (0x0000)
        wLength: 18

0000  80 b0 46 27 01 88 ff ff 53 02 80 4e 02 00 00 3c   ..F'....S..N...<
0010  f8 75 dc 4e 00 00 00 00 fc b4 09 00 8d ff ff ff   .u.N............
0020  12 00 00 00 00 00 00 00 80 06 00 01 00 00 12 00   ................
0030  00 00 00 00 00 00 00 00 00 02 00 00 00 00 00 00   ................

No.     Time        Source                Destination           Protocol Info
    100 71.049867   78.0                  host                  USB      GET DESCRIPTOR Response DEVICE

Frame 100: 82 bytes on wire (656 bits), 82 bytes captured (656 bits)
    Arrival Time: Dec  5, 2011 08:42:48.636346000 CET
    Epoch Time: 1323070968.636346000 seconds
    [Time delta from previous captured frame: 0.000190000 seconds]
    [Time delta from previous displayed frame: 0.000190000 seconds]
    [Time since reference or first frame: 71.049867000 seconds]
    Frame Number: 100
    Frame Length: 82 bytes (656 bits)
    Capture Length: 82 bytes (656 bits)
    [Frame is marked: False]
    [Frame is ignored: False]
    [Protocols in frame: usb]
USB URB
    URB id: 0xffff88012746b080
    URB type: URB_COMPLETE ('C')
    URB transfer type: URB_CONTROL out (0x02)
    Endpoint: 0x80
    Device: 78
    URB bus id: 2
    Device setup request: not relevant ('-')
    Data: present (0)
    URB sec: 1323070968
    URB usec: 636346
    URB status: Success (0)
    URB length [bytes]: 18
    Data length [bytes]: 18
    [Request in: 99]
    [Time from request: 0.000190000 seconds]
    [bInterfaceClass: VENDOR_SPECIFIC (0xff)]
    DEVICE DESCRIPTOR
        bLength: 18
        bDescriptorType: DEVICE (1)
        bcdUSB: 0x0200
        bDeviceClass: 0
        bDeviceSubClass: 0
        bDeviceProtocol: 0
        bMaxPacketSize0: 64
        idVendor: 0x1c88
        idProduct: 0x003c
        bcdDevice: 0x0100
        iManufacturer: 1
        iProduct: 2
        iSerialNumber: 3
        bNumConfigurations: 1

0000  80 b0 46 27 01 88 ff ff 43 02 80 4e 02 00 2d 00   ..F'....C..N..-.
0010  f8 75 dc 4e 00 00 00 00 ba b5 09 00 00 00 00 00   .u.N............
0020  12 00 00 00 12 00 00 00 00 00 00 00 00 00 00 00   ................
0030  00 00 00 00 00 00 00 00 00 02 00 00 00 00 00 00   ................
0040  12 01 00 02 00 00 00 40 88 1c 3c 00 00 01 01 02   .......@..<.....
0050  03 01                                             ..

No.     Time        Source                Destination           Protocol Info
    101 71.049895   host                  78.0                  USB      GET DESCRIPTOR Request CONFIGURATION

Frame 101: 64 bytes on wire (512 bits), 64 bytes captured (512 bits)
    Arrival Time: Dec  5, 2011 08:42:48.636374000 CET
    Epoch Time: 1323070968.636374000 seconds
    [Time delta from previous captured frame: 0.000028000 seconds]
    [Time delta from previous displayed frame: 0.000028000 seconds]
    [Time since reference or first frame: 71.049895000 seconds]
    Frame Number: 101
    Frame Length: 64 bytes (512 bits)
    Capture Length: 64 bytes (512 bits)
    [Frame is marked: False]
    [Frame is ignored: False]
    [Protocols in frame: usb]
USB URB
    URB id: 0xffff88012746b080
    URB type: URB_SUBMIT ('S')
    URB transfer type: URB_CONTROL out (0x02)
    Endpoint: 0x80
    Device: 78
    URB bus id: 2
    Device setup request: relevant (0)
    Data: not present ('<')
    URB sec: 1323070968
    URB usec: 636374
    URB status: Operation now in progress (-EINPROGRESS) (-115)
    URB length [bytes]: 50
    Data length [bytes]: 0
    [Response in: 102]
    [bInterfaceClass: VENDOR_SPECIFIC (0xff)]
    URB setup
        bmRequestType: 0x80
            1... .... = Direction: Device-to-host
            .00. .... = Type: Standard (0x00)
            ...0 0000 = Recipient: Device (0x00)
        bRequest: GET DESCRIPTOR (6)
        Descriptor Index: 0x00
        bDescriptorType: CONFIGURATION (2)
        Language Id: no language specified (0x0000)
        wLength: 50

0000  80 b0 46 27 01 88 ff ff 53 02 80 4e 02 00 00 3c   ..F'....S..N...<
0010  f8 75 dc 4e 00 00 00 00 d6 b5 09 00 8d ff ff ff   .u.N............
0020  32 00 00 00 00 00 00 00 80 06 00 02 00 00 32 00   2.............2.
0030  00 00 00 00 00 00 00 00 00 02 00 00 00 00 00 00   ................

No.     Time        Source                Destination           Protocol Info
    102 71.050122   78.0                  host                  USB      GET DESCRIPTOR Response CONFIGURATION

Frame 102: 114 bytes on wire (912 bits), 114 bytes captured (912 bits)
    Arrival Time: Dec  5, 2011 08:42:48.636601000 CET
    Epoch Time: 1323070968.636601000 seconds
    [Time delta from previous captured frame: 0.000227000 seconds]
    [Time delta from previous displayed frame: 0.000227000 seconds]
    [Time since reference or first frame: 71.050122000 seconds]
    Frame Number: 102
    Frame Length: 114 bytes (912 bits)
    Capture Length: 114 bytes (912 bits)
    [Frame is marked: False]
    [Frame is ignored: False]
    [Protocols in frame: usb]
USB URB
    URB id: 0xffff88012746b080
    URB type: URB_COMPLETE ('C')
    URB transfer type: URB_CONTROL out (0x02)
    Endpoint: 0x80
    Device: 78
    URB bus id: 2
    Device setup request: not relevant ('-')
    Data: present (0)
    URB sec: 1323070968
    URB usec: 636601
    URB status: Success (0)
    URB length [bytes]: 50
    Data length [bytes]: 50
    [Request in: 101]
    [Time from request: 0.000227000 seconds]
    [bInterfaceClass: VENDOR_SPECIFIC (0xff)]
    CONFIGURATION DESCRIPTOR
        bLength: 9
        bDescriptorType: CONFIGURATION (2)
        wTotalLength: 50
        bNumInterfaces: 1
        bConfigurationValue: 1
        iConfiguration: 0
        Configuration bmAttributes: 0x80  NOT SELF-POWERED  NO REMOTE-WAKEUP
            1... .... = Must be 1: Must be 1 for USB 1.1 and higher
            .0.. .... = Self-Powered: This device is powered from the USB bus
            ..0. .... = Remote Wakeup: This device does NOT support remote wakeup
        bMaxPower: 250  (500mA)
    INTERFACE DESCRIPTOR
        bLength: 9
        bDescriptorType: INTERFACE (4)
        bInterfaceNumber: 0
        bAlternateSetting: 0
        bNumEndpoints: 0
        bInterfaceClass: VENDOR_SPECIFIC (0xff)
        bInterfaceSubClass: 0xff
        bInterfaceProtocol: 0xff
        iInterface: 0
    INTERFACE DESCRIPTOR
        bLength: 9
        bDescriptorType: INTERFACE (4)
        bInterfaceNumber: 0
        bAlternateSetting: 1
        bNumEndpoints: 1
        bInterfaceClass: VENDOR_SPECIFIC (0xff)
        bInterfaceSubClass: 0xff
        bInterfaceProtocol: 0xff
        iInterface: 0
    ENDPOINT DESCRIPTOR
        bLength: 7
        bDescriptorType: ENDPOINT (5)
        bEndpointAddress: 0x82  IN  Endpoint:2
            1... .... = Direction: IN Endpoint
            .... 0010 = Endpoint Number: 0x02
        bmAttributes: 0x05
            .... ..01 = Transfertype: Isochronous-Transfer (0x01)
            .... 01.. = Synchronisationtype: Unknown (0x01)
            ..00 .... = Behaviourtype: Data-Endpoint (0x00)
        wMaxPacketSize: 1023
        bInterval: 1
    INTERFACE DESCRIPTOR
        bLength: 9
        bDescriptorType: INTERFACE (4)
        bInterfaceNumber: 0
        bAlternateSetting: 2
        bNumEndpoints: 1
        bInterfaceClass: VENDOR_SPECIFIC (0xff)
        bInterfaceSubClass: 0xff
        bInterfaceProtocol: 0xff
        iInterface: 0
    ENDPOINT DESCRIPTOR
        bLength: 7
        bDescriptorType: ENDPOINT (5)
        bEndpointAddress: 0x82  IN  Endpoint:2
            1... .... = Direction: IN Endpoint
            .... 0010 = Endpoint Number: 0x02
        bmAttributes: 0x05
            .... ..01 = Transfertype: Isochronous-Transfer (0x01)
            .... 01.. = Synchronisationtype: Unknown (0x01)
            ..00 .... = Behaviourtype: Data-Endpoint (0x00)
        wMaxPacketSize: 5120
        bInterval: 1

0000  80 b0 46 27 01 88 ff ff 43 02 80 4e 02 00 2d 00   ..F'....C..N..-.
0010  f8 75 dc 4e 00 00 00 00 b9 b6 09 00 00 00 00 00   .u.N............
0020  32 00 00 00 32 00 00 00 00 00 00 00 00 00 00 00   2...2...........
0030  00 00 00 00 00 00 00 00 00 02 00 00 00 00 00 00   ................
0040  09 02 32 00 01 01 00 80 fa 09 04 00 00 00 ff ff   ..2.............
0050  ff 00 09 04 00 01 01 ff ff ff 00 07 05 82 05 ff   ................
0060  03 01 09 04 00 02 01 ff ff ff 00 07 05 82 05 00   ................
0070  14 01                                             ..

No.     Time        Source                Destination           Protocol Info
    103 71.050161   host                  78.0                  USB      GET DESCRIPTOR Request STRING

Frame 103: 64 bytes on wire (512 bits), 64 bytes captured (512 bits)
    Arrival Time: Dec  5, 2011 08:42:48.636640000 CET
    Epoch Time: 1323070968.636640000 seconds
    [Time delta from previous captured frame: 0.000039000 seconds]
    [Time delta from previous displayed frame: 0.000039000 seconds]
    [Time since reference or first frame: 71.050161000 seconds]
    Frame Number: 103
    Frame Length: 64 bytes (512 bits)
    Capture Length: 64 bytes (512 bits)
    [Frame is marked: False]
    [Frame is ignored: False]
    [Protocols in frame: usb]
USB URB
    URB id: 0xffff88012746b080
    URB type: URB_SUBMIT ('S')
    URB transfer type: URB_CONTROL out (0x02)
    Endpoint: 0x80
    Device: 78
    URB bus id: 2
    Device setup request: relevant (0)
    Data: not present ('<')
    URB sec: 1323070968
    URB usec: 636640
    URB status: Operation now in progress (-EINPROGRESS) (-115)
    URB length [bytes]: 255
    Data length [bytes]: 0
    [Response in: 104]
    [bInterfaceClass: VENDOR_SPECIFIC (0xff)]
    URB setup
        bmRequestType: 0x80
            1... .... = Direction: Device-to-host
            .00. .... = Type: Standard (0x00)
            ...0 0000 = Recipient: Device (0x00)
        bRequest: GET DESCRIPTOR (6)
        Descriptor Index: 0x03
        bDescriptorType: STRING (3)
        Language Id: English (United States) (0x0409)
        wLength: 255

0000  80 b0 46 27 01 88 ff ff 53 02 80 4e 02 00 00 3c   ..F'....S..N...<
0010  f8 75 dc 4e 00 00 00 00 e0 b6 09 00 8d ff ff ff   .u.N............
0020  ff 00 00 00 00 00 00 00 80 06 03 03 09 04 ff 00   ................
0030  00 00 00 00 00 00 00 00 00 02 00 00 00 00 00 00   ................

No.     Time        Source                Destination           Protocol Info
    104 71.050376   78.0                  host                  USB      GET DESCRIPTOR Response STRING

Frame 104: 106 bytes on wire (848 bits), 106 bytes captured (848 bits)
    Arrival Time: Dec  5, 2011 08:42:48.636855000 CET
    Epoch Time: 1323070968.636855000 seconds
    [Time delta from previous captured frame: 0.000215000 seconds]
    [Time delta from previous displayed frame: 0.000215000 seconds]
    [Time since reference or first frame: 71.050376000 seconds]
    Frame Number: 104
    Frame Length: 106 bytes (848 bits)
    Capture Length: 106 bytes (848 bits)
    [Frame is marked: False]
    [Frame is ignored: False]
    [Protocols in frame: usb]
USB URB
    URB id: 0xffff88012746b080
    URB type: URB_COMPLETE ('C')
    URB transfer type: URB_CONTROL out (0x02)
    Endpoint: 0x80
    Device: 78
    URB bus id: 2
    Device setup request: not relevant ('-')
    Data: present (0)
    URB sec: 1323070968
    URB usec: 636855
    URB status: Success (0)
    URB length [bytes]: 42
    Data length [bytes]: 42
    [Request in: 103]
    [Time from request: 0.000215000 seconds]
    [bInterfaceClass: VENDOR_SPECIFIC (0xff)]
    STRING DESCRIPTOR
        bLength: 42
        bDescriptorType: STRING (3)
        bString: SMIGRABBER9876543210

0000  80 b0 46 27 01 88 ff ff 43 02 80 4e 02 00 2d 00   ..F'....C..N..-.
0010  f8 75 dc 4e 00 00 00 00 b7 b7 09 00 00 00 00 00   .u.N............
0020  2a 00 00 00 2a 00 00 00 00 00 00 00 00 00 00 00   *...*...........
0030  00 00 00 00 00 00 00 00 00 02 00 00 00 00 00 00   ................
0040  2a 03 53 00 4d 00 49 00 47 00 52 00 41 00 42 00   *.S.M.I.G.R.A.B.
0050  42 00 45 00 52 00 39 00 38 00 37 00 36 00 35 00   B.E.R.9.8.7.6.5.
0060  34 00 33 00 32 00 31 00 30 00                     4.3.2.1.0.

No.     Time        Source                Destination           Protocol Info
    105 71.050437   host                  78.0                  USB      SET CONFIGURATION Request

Frame 105: 64 bytes on wire (512 bits), 64 bytes captured (512 bits)
    Arrival Time: Dec  5, 2011 08:42:48.636916000 CET
    Epoch Time: 1323070968.636916000 seconds
    [Time delta from previous captured frame: 0.000061000 seconds]
    [Time delta from previous displayed frame: 0.000061000 seconds]
    [Time since reference or first frame: 71.050437000 seconds]
    Frame Number: 105
    Frame Length: 64 bytes (512 bits)
    Capture Length: 64 bytes (512 bits)
    [Frame is marked: False]
    [Frame is ignored: False]
    [Protocols in frame: usb]
USB URB
    URB id: 0xffff88012746b080
    URB type: URB_SUBMIT ('S')
    URB transfer type: URB_CONTROL out (0x02)
    Endpoint: 0x00
    Device: 78
    URB bus id: 2
    Device setup request: relevant (0)
    Data: present (0)
    URB sec: 1323070968
    URB usec: 636916
    URB status: Operation now in progress (-EINPROGRESS) (-115)
    URB length [bytes]: 0
    Data length [bytes]: 0
    [Response in: 106]
    [bInterfaceClass: VENDOR_SPECIFIC (0xff)]
    URB setup
        bmRequestType: 0x00
            0... .... = Direction: Host-to-device
            .00. .... = Type: Standard (0x00)
            ...0 0000 = Recipient: Device (0x00)
        bRequest: SET CONFIGURATION (9)
        bConfigurationValue: 1
        wIndex: 0
        wLength: 0

0000  80 b0 46 27 01 88 ff ff 53 02 00 4e 02 00 00 00   ..F'....S..N....
0010  f8 75 dc 4e 00 00 00 00 f4 b7 09 00 8d ff ff ff   .u.N............
0020  00 00 00 00 00 00 00 00 00 09 01 00 00 00 00 00   ................
0030  00 00 00 00 00 00 00 00 00 00 00 00 00 00 00 00   ................

No.     Time        Source                Destination           Protocol Info
    106 71.050590   78.0                  host                  USB      SET CONFIGURATION Response

Frame 106: 64 bytes on wire (512 bits), 64 bytes captured (512 bits)
    Arrival Time: Dec  5, 2011 08:42:48.637069000 CET
    Epoch Time: 1323070968.637069000 seconds
    [Time delta from previous captured frame: 0.000153000 seconds]
    [Time delta from previous displayed frame: 0.000153000 seconds]
    [Time since reference or first frame: 71.050590000 seconds]
    Frame Number: 106
    Frame Length: 64 bytes (512 bits)
    Capture Length: 64 bytes (512 bits)
    [Frame is marked: False]
    [Frame is ignored: False]
    [Protocols in frame: usb]
USB URB
    URB id: 0xffff88012746b080
    URB type: URB_COMPLETE ('C')
    URB transfer type: URB_CONTROL out (0x02)
    Endpoint: 0x00
    Device: 78
    URB bus id: 2
    Device setup request: not relevant ('-')
    Data: not present ('>')
    URB sec: 1323070968
    URB usec: 637069
    URB status: Success (0)
    URB length [bytes]: 0
    Data length [bytes]: 0
    [Request in: 105]
    [Time from request: 0.000153000 seconds]
    [bInterfaceClass: VENDOR_SPECIFIC (0xff)]

0000  80 b0 46 27 01 88 ff ff 43 02 00 4e 02 00 2d 3e   ..F'....C..N..->
0010  f8 75 dc 4e 00 00 00 00 8d b8 09 00 00 00 00 00   .u.N............
0020  00 00 00 00 00 00 00 00 00 00 00 00 00 00 00 00   ................
0030  00 00 00 00 00 00 00 00 00 00 00 00 00 00 00 00   ................

No.     Time        Source                Destination           Protocol Info
    107 71.150794   host                  78.0                  USB      GET DESCRIPTOR Request DEVICE

Frame 107: 64 bytes on wire (512 bits), 64 bytes captured (512 bits)
    Arrival Time: Dec  5, 2011 08:42:48.737273000 CET
    Epoch Time: 1323070968.737273000 seconds
    [Time delta from previous captured frame: 0.100204000 seconds]
    [Time delta from previous displayed frame: 0.100204000 seconds]
    [Time since reference or first frame: 71.150794000 seconds]
    Frame Number: 107
    Frame Length: 64 bytes (512 bits)
    Capture Length: 64 bytes (512 bits)
    [Frame is marked: False]
    [Frame is ignored: False]
    [Protocols in frame: usb]
USB URB
    URB id: 0xffff88012746b080
    URB type: URB_SUBMIT ('S')
    URB transfer type: URB_CONTROL out (0x02)
    Endpoint: 0x80
    Device: 78
    URB bus id: 2
    Device setup request: relevant (0)
    Data: not present ('<')
    URB sec: 1323070968
    URB usec: 737273
    URB status: Operation now in progress (-EINPROGRESS) (-115)
    URB length [bytes]: 64
    Data length [bytes]: 0
    [Response in: 108]
    [bInterfaceClass: VENDOR_SPECIFIC (0xff)]
    URB setup
        bmRequestType: 0x80
            1... .... = Direction: Device-to-host
            .00. .... = Type: Standard (0x00)
            ...0 0000 = Recipient: Device (0x00)
        bRequest: GET DESCRIPTOR (6)
        Descriptor Index: 0x00
        bDescriptorType: DEVICE (1)
        Language Id: no language specified (0x0000)
        wLength: 64

0000  80 b0 46 27 01 88 ff ff 53 02 80 4e 02 00 00 3c   ..F'....S..N...<
0010  f8 75 dc 4e 00 00 00 00 f9 3f 0b 00 8d ff ff ff   .u.N.....?......
0020  40 00 00 00 00 00 00 00 80 06 00 01 00 00 40 00   @.............@.
0030  00 00 00 00 00 00 00 00 00 02 00 00 00 00 00 00   ................

No.     Time        Source                Destination           Protocol Info
    108 71.151007   78.0                  host                  USB      GET DESCRIPTOR Response DEVICE

Frame 108: 82 bytes on wire (656 bits), 82 bytes captured (656 bits)
    Arrival Time: Dec  5, 2011 08:42:48.737486000 CET
    Epoch Time: 1323070968.737486000 seconds
    [Time delta from previous captured frame: 0.000213000 seconds]
    [Time delta from previous displayed frame: 0.000213000 seconds]
    [Time since reference or first frame: 71.151007000 seconds]
    Frame Number: 108
    Frame Length: 82 bytes (656 bits)
    Capture Length: 82 bytes (656 bits)
    [Frame is marked: False]
    [Frame is ignored: False]
    [Protocols in frame: usb]
USB URB
    URB id: 0xffff88012746b080
    URB type: URB_COMPLETE ('C')
    URB transfer type: URB_CONTROL out (0x02)
    Endpoint: 0x80
    Device: 78
    URB bus id: 2
    Device setup request: not relevant ('-')
    Data: present (0)
    URB sec: 1323070968
    URB usec: 737486
    URB status: Success (0)
    URB length [bytes]: 18
    Data length [bytes]: 18
    [Request in: 107]
    [Time from request: 0.000213000 seconds]
    [bInterfaceClass: VENDOR_SPECIFIC (0xff)]
    DEVICE DESCRIPTOR
        bLength: 18
        bDescriptorType: DEVICE (1)
        bcdUSB: 0x0200
        bDeviceClass: 0
        bDeviceSubClass: 0
        bDeviceProtocol: 0
        bMaxPacketSize0: 64
        idVendor: 0x1c88
        idProduct: 0x003c
        bcdDevice: 0x0100
        iManufacturer: 1
        iProduct: 2
        iSerialNumber: 3
        bNumConfigurations: 1

0000  80 b0 46 27 01 88 ff ff 43 02 80 4e 02 00 2d 00   ..F'....C..N..-.
0010  f8 75 dc 4e 00 00 00 00 ce 40 0b 00 00 00 00 00   .u.N.....@......
0020  12 00 00 00 12 00 00 00 00 00 00 00 00 00 00 00   ................
0030  00 00 00 00 00 00 00 00 00 02 00 00 00 00 00 00   ................
0040  12 01 00 02 00 00 00 40 88 1c 3c 00 00 01 01 02   .......@..<.....
0050  03 01                                             ..

No.     Time        Source                Destination           Protocol Info
    127 71.371932   host                  0.0                   USB      SET ADDRESS Request

Frame 127: 64 bytes on wire (512 bits), 64 bytes captured (512 bits)
    Arrival Time: Dec  5, 2011 08:42:48.958411000 CET
    Epoch Time: 1323070968.958411000 seconds
    [Time delta from previous captured frame: 0.000051000 seconds]
    [Time delta from previous displayed frame: 0.220925000 seconds]
    [Time since reference or first frame: 71.371932000 seconds]
    Frame Number: 127
    Frame Length: 64 bytes (512 bits)
    Capture Length: 64 bytes (512 bits)
    [Frame is marked: False]
    [Frame is ignored: False]
    [Protocols in frame: usb]
USB URB
    URB id: 0xffff88012746b800
    URB type: URB_SUBMIT ('S')
    URB transfer type: URB_CONTROL out (0x02)
    Endpoint: 0x00
    Device: 0
    URB bus id: 2
    Device setup request: relevant (0)
    Data: present (0)
    URB sec: 1323070968
    URB usec: 958411
    URB status: Operation now in progress (-EINPROGRESS) (-115)
    URB length [bytes]: 0
    Data length [bytes]: 0
    [Response in: 128]
    [bInterfaceClass: Unknown (0xffff)]
    URB setup
        bmRequestType: 0x00
            0... .... = Direction: Host-to-device
            .00. .... = Type: Standard (0x00)
            ...0 0000 = Recipient: Device (0x00)
        bRequest: SET ADDRESS (5)
        Device: 78
        wIndex: 0
        wLength: 0

0000  00 b8 46 27 01 88 ff ff 53 02 00 00 02 00 00 00   ..F'....S.......
0010  f8 75 dc 4e 00 00 00 00 cb 9f 0e 00 8d ff ff ff   .u.N............
0020  00 00 00 00 00 00 00 00 00 05 4e 00 00 00 00 00   ..........N.....
0030  00 00 00 00 00 00 00 00 00 00 00 00 00 00 00 00   ................

No.     Time        Source                Destination           Protocol Info
    129 71.383618   host                  78.0                  USB      GET DESCRIPTOR Request DEVICE

Frame 129: 64 bytes on wire (512 bits), 64 bytes captured (512 bits)
    Arrival Time: Dec  5, 2011 08:42:48.970097000 CET
    Epoch Time: 1323070968.970097000 seconds
    [Time delta from previous captured frame: 0.011423000 seconds]
    [Time delta from previous displayed frame: 0.011686000 seconds]
    [Time since reference or first frame: 71.383618000 seconds]
    Frame Number: 129
    Frame Length: 64 bytes (512 bits)
    Capture Length: 64 bytes (512 bits)
    [Frame is marked: False]
    [Frame is ignored: False]
    [Protocols in frame: usb]
USB URB
    URB id: 0xffff88012746bd40
    URB type: URB_SUBMIT ('S')
    URB transfer type: URB_CONTROL out (0x02)
    Endpoint: 0x80
    Device: 78
    URB bus id: 2
    Device setup request: relevant (0)
    Data: not present ('<')
    URB sec: 1323070968
    URB usec: 970097
    URB status: Operation now in progress (-EINPROGRESS) (-115)
    URB length [bytes]: 18
    Data length [bytes]: 0
    [Response in: 130]
    [bInterfaceClass: VENDOR_SPECIFIC (0xff)]
    URB setup
        bmRequestType: 0x80
            1... .... = Direction: Device-to-host
            .00. .... = Type: Standard (0x00)
            ...0 0000 = Recipient: Device (0x00)
        bRequest: GET DESCRIPTOR (6)
        Descriptor Index: 0x00
        bDescriptorType: DEVICE (1)
        Language Id: no language specified (0x0000)
        wLength: 18

0000  40 bd 46 27 01 88 ff ff 53 02 80 4e 02 00 00 3c   @.F'....S..N...<
0010  f8 75 dc 4e 00 00 00 00 71 cd 0e 00 8d ff ff ff   .u.N....q.......
0020  12 00 00 00 00 00 00 00 80 06 00 01 00 00 12 00   ................
0030  00 00 00 00 00 00 00 00 00 02 00 00 00 00 00 00   ................

No.     Time        Source                Destination           Protocol Info
    130 71.383774   78.0                  host                  USB      GET DESCRIPTOR Response DEVICE

Frame 130: 82 bytes on wire (656 bits), 82 bytes captured (656 bits)
    Arrival Time: Dec  5, 2011 08:42:48.970253000 CET
    Epoch Time: 1323070968.970253000 seconds
    [Time delta from previous captured frame: 0.000156000 seconds]
    [Time delta from previous displayed frame: 0.000156000 seconds]
    [Time since reference or first frame: 71.383774000 seconds]
    Frame Number: 130
    Frame Length: 82 bytes (656 bits)
    Capture Length: 82 bytes (656 bits)
    [Frame is marked: False]
    [Frame is ignored: False]
    [Protocols in frame: usb]
USB URB
    URB id: 0xffff88012746bd40
    URB type: URB_COMPLETE ('C')
    URB transfer type: URB_CONTROL out (0x02)
    Endpoint: 0x80
    Device: 78
    URB bus id: 2
    Device setup request: not relevant ('-')
    Data: present (0)
    URB sec: 1323070968
    URB usec: 970253
    URB status: Success (0)
    URB length [bytes]: 18
    Data length [bytes]: 18
    [Request in: 129]
    [Time from request: 0.000156000 seconds]
    [bInterfaceClass: VENDOR_SPECIFIC (0xff)]
    DEVICE DESCRIPTOR
        bLength: 18
        bDescriptorType: DEVICE (1)
        bcdUSB: 0x0200
        bDeviceClass: 0
        bDeviceSubClass: 0
        bDeviceProtocol: 0
        bMaxPacketSize0: 64
        idVendor: 0x1c88
        idProduct: 0x003c
        bcdDevice: 0x0100
        iManufacturer: 1
        iProduct: 2
        iSerialNumber: 3
        bNumConfigurations: 1

0000  40 bd 46 27 01 88 ff ff 43 02 80 4e 02 00 2d 00   @.F'....C..N..-.
0010  f8 75 dc 4e 00 00 00 00 0d ce 0e 00 00 00 00 00   .u.N............
0020  12 00 00 00 12 00 00 00 00 00 00 00 00 00 00 00   ................
0030  00 00 00 00 00 00 00 00 00 02 00 00 00 00 00 00   ................
0040  12 01 00 02 00 00 00 40 88 1c 3c 00 00 01 01 02   .......@..<.....
0050  03 01                                             ..

No.     Time        Source                Destination           Protocol Info
    131 71.383812   host                  78.0                  USB      GET DESCRIPTOR Request CONFIGURATION

Frame 131: 64 bytes on wire (512 bits), 64 bytes captured (512 bits)
    Arrival Time: Dec  5, 2011 08:42:48.970291000 CET
    Epoch Time: 1323070968.970291000 seconds
    [Time delta from previous captured frame: 0.000038000 seconds]
    [Time delta from previous displayed frame: 0.000038000 seconds]
    [Time since reference or first frame: 71.383812000 seconds]
    Frame Number: 131
    Frame Length: 64 bytes (512 bits)
    Capture Length: 64 bytes (512 bits)
    [Frame is marked: False]
    [Frame is ignored: False]
    [Protocols in frame: usb]
USB URB
    URB id: 0xffff88012746bd40
    URB type: URB_SUBMIT ('S')
    URB transfer type: URB_CONTROL out (0x02)
    Endpoint: 0x80
    Device: 78
    URB bus id: 2
    Device setup request: relevant (0)
    Data: not present ('<')
    URB sec: 1323070968
    URB usec: 970291
    URB status: Operation now in progress (-EINPROGRESS) (-115)
    URB length [bytes]: 50
    Data length [bytes]: 0
    [Response in: 132]
    [bInterfaceClass: VENDOR_SPECIFIC (0xff)]
    URB setup
        bmRequestType: 0x80
            1... .... = Direction: Device-to-host
            .00. .... = Type: Standard (0x00)
            ...0 0000 = Recipient: Device (0x00)
        bRequest: GET DESCRIPTOR (6)
        Descriptor Index: 0x00
        bDescriptorType: CONFIGURATION (2)
        Language Id: no language specified (0x0000)
        wLength: 50

0000  40 bd 46 27 01 88 ff ff 53 02 80 4e 02 00 00 3c   @.F'....S..N...<
0010  f8 75 dc 4e 00 00 00 00 33 ce 0e 00 8d ff ff ff   .u.N....3.......
0020  32 00 00 00 00 00 00 00 80 06 00 02 00 00 32 00   2.............2.
0030  00 00 00 00 00 00 00 00 00 02 00 00 00 00 00 00   ................

No.     Time        Source                Destination           Protocol Info
    132 71.384034   78.0                  host                  USB      GET DESCRIPTOR Response CONFIGURATION

Frame 132: 114 bytes on wire (912 bits), 114 bytes captured (912 bits)
    Arrival Time: Dec  5, 2011 08:42:48.970513000 CET
    Epoch Time: 1323070968.970513000 seconds
    [Time delta from previous captured frame: 0.000222000 seconds]
    [Time delta from previous displayed frame: 0.000222000 seconds]
    [Time since reference or first frame: 71.384034000 seconds]
    Frame Number: 132
    Frame Length: 114 bytes (912 bits)
    Capture Length: 114 bytes (912 bits)
    [Frame is marked: False]
    [Frame is ignored: False]
    [Protocols in frame: usb]
USB URB
    URB id: 0xffff88012746bd40
    URB type: URB_COMPLETE ('C')
    URB transfer type: URB_CONTROL out (0x02)
    Endpoint: 0x80
    Device: 78
    URB bus id: 2
    Device setup request: not relevant ('-')
    Data: present (0)
    URB sec: 1323070968
    URB usec: 970513
    URB status: Success (0)
    URB length [bytes]: 50
    Data length [bytes]: 50
    [Request in: 131]
    [Time from request: 0.000222000 seconds]
    [bInterfaceClass: VENDOR_SPECIFIC (0xff)]
    CONFIGURATION DESCRIPTOR
        bLength: 9
        bDescriptorType: CONFIGURATION (2)
        wTotalLength: 50
        bNumInterfaces: 1
        bConfigurationValue: 1
        iConfiguration: 0
        Configuration bmAttributes: 0x80  NOT SELF-POWERED  NO REMOTE-WAKEUP
            1... .... = Must be 1: Must be 1 for USB 1.1 and higher
            .0.. .... = Self-Powered: This device is powered from the USB bus
            ..0. .... = Remote Wakeup: This device does NOT support remote wakeup
        bMaxPower: 250  (500mA)
    INTERFACE DESCRIPTOR
        bLength: 9
        bDescriptorType: INTERFACE (4)
        bInterfaceNumber: 0
        bAlternateSetting: 0
        bNumEndpoints: 0
        bInterfaceClass: VENDOR_SPECIFIC (0xff)
        bInterfaceSubClass: 0xff
        bInterfaceProtocol: 0xff
        iInterface: 0
    INTERFACE DESCRIPTOR
        bLength: 9
        bDescriptorType: INTERFACE (4)
        bInterfaceNumber: 0
        bAlternateSetting: 1
        bNumEndpoints: 1
        bInterfaceClass: VENDOR_SPECIFIC (0xff)
        bInterfaceSubClass: 0xff
        bInterfaceProtocol: 0xff
        iInterface: 0
    ENDPOINT DESCRIPTOR
        bLength: 7
        bDescriptorType: ENDPOINT (5)
        bEndpointAddress: 0x82  IN  Endpoint:2
            1... .... = Direction: IN Endpoint
            .... 0010 = Endpoint Number: 0x02
        bmAttributes: 0x05
            .... ..01 = Transfertype: Isochronous-Transfer (0x01)
            .... 01.. = Synchronisationtype: Unknown (0x01)
            ..00 .... = Behaviourtype: Data-Endpoint (0x00)
        wMaxPacketSize: 1023
        bInterval: 1
    INTERFACE DESCRIPTOR
        bLength: 9
        bDescriptorType: INTERFACE (4)
        bInterfaceNumber: 0
        bAlternateSetting: 2
        bNumEndpoints: 1
        bInterfaceClass: VENDOR_SPECIFIC (0xff)
        bInterfaceSubClass: 0xff
        bInterfaceProtocol: 0xff
        iInterface: 0
    ENDPOINT DESCRIPTOR
        bLength: 7
        bDescriptorType: ENDPOINT (5)
        bEndpointAddress: 0x82  IN  Endpoint:2
            1... .... = Direction: IN Endpoint
            .... 0010 = Endpoint Number: 0x02
        bmAttributes: 0x05
            .... ..01 = Transfertype: Isochronous-Transfer (0x01)
            .... 01.. = Synchronisationtype: Unknown (0x01)
            ..00 .... = Behaviourtype: Data-Endpoint (0x00)
        wMaxPacketSize: 5120
        bInterval: 1

0000  40 bd 46 27 01 88 ff ff 43 02 80 4e 02 00 2d 00   @.F'....C..N..-.
0010  f8 75 dc 4e 00 00 00 00 11 cf 0e 00 00 00 00 00   .u.N............
0020  32 00 00 00 32 00 00 00 00 00 00 00 00 00 00 00   2...2...........
0030  00 00 00 00 00 00 00 00 00 02 00 00 00 00 00 00   ................
0040  09 02 32 00 01 01 00 80 fa 09 04 00 00 00 ff ff   ..2.............
0050  ff 00 09 04 00 01 01 ff ff ff 00 07 05 82 05 ff   ................
0060  03 01 09 04 00 02 01 ff ff ff 00 07 05 82 05 00   ................
0070  14 01                                             ..

No.     Time        Source                Destination           Protocol Info
    133 71.384074   host                  78.0                  USB      GET DESCRIPTOR Request STRING

Frame 133: 64 bytes on wire (512 bits), 64 bytes captured (512 bits)
    Arrival Time: Dec  5, 2011 08:42:48.970553000 CET
    Epoch Time: 1323070968.970553000 seconds
    [Time delta from previous captured frame: 0.000040000 seconds]
    [Time delta from previous displayed frame: 0.000040000 seconds]
    [Time since reference or first frame: 71.384074000 seconds]
    Frame Number: 133
    Frame Length: 64 bytes (512 bits)
    Capture Length: 64 bytes (512 bits)
    [Frame is marked: False]
    [Frame is ignored: False]
    [Protocols in frame: usb]
USB URB
    URB id: 0xffff88012746bd40
    URB type: URB_SUBMIT ('S')
    URB transfer type: URB_CONTROL out (0x02)
    Endpoint: 0x80
    Device: 78
    URB bus id: 2
    Device setup request: relevant (0)
    Data: not present ('<')
    URB sec: 1323070968
    URB usec: 970553
    URB status: Operation now in progress (-EINPROGRESS) (-115)
    URB length [bytes]: 255
    Data length [bytes]: 0
    [Response in: 134]
    [bInterfaceClass: VENDOR_SPECIFIC (0xff)]
    URB setup
        bmRequestType: 0x80
            1... .... = Direction: Device-to-host
            .00. .... = Type: Standard (0x00)
            ...0 0000 = Recipient: Device (0x00)
        bRequest: GET DESCRIPTOR (6)
        Descriptor Index: 0x03
        bDescriptorType: STRING (3)
        Language Id: English (United States) (0x0409)
        wLength: 255

0000  40 bd 46 27 01 88 ff ff 53 02 80 4e 02 00 00 3c   @.F'....S..N...<
0010  f8 75 dc 4e 00 00 00 00 39 cf 0e 00 8d ff ff ff   .u.N....9.......
0020  ff 00 00 00 00 00 00 00 80 06 03 03 09 04 ff 00   ................
0030  00 00 00 00 00 00 00 00 00 02 00 00 00 00 00 00   ................

No.     Time        Source                Destination           Protocol Info
    134 71.384217   78.0                  host                  USB      GET DESCRIPTOR Response STRING

Frame 134: 106 bytes on wire (848 bits), 106 bytes captured (848 bits)
    Arrival Time: Dec  5, 2011 08:42:48.970696000 CET
    Epoch Time: 1323070968.970696000 seconds
    [Time delta from previous captured frame: 0.000143000 seconds]
    [Time delta from previous displayed frame: 0.000143000 seconds]
    [Time since reference or first frame: 71.384217000 seconds]
    Frame Number: 134
    Frame Length: 106 bytes (848 bits)
    Capture Length: 106 bytes (848 bits)
    [Frame is marked: False]
    [Frame is ignored: False]
    [Protocols in frame: usb]
USB URB
    URB id: 0xffff88012746bd40
    URB type: URB_COMPLETE ('C')
    URB transfer type: URB_CONTROL out (0x02)
    Endpoint: 0x80
    Device: 78
    URB bus id: 2
    Device setup request: not relevant ('-')
    Data: present (0)
    URB sec: 1323070968
    URB usec: 970696
    URB status: Success (0)
    URB length [bytes]: 42
    Data length [bytes]: 42
    [Request in: 133]
    [Time from request: 0.000143000 seconds]
    [bInterfaceClass: VENDOR_SPECIFIC (0xff)]
    STRING DESCRIPTOR
        bLength: 42
        bDescriptorType: STRING (3)
        bString: SMIGRABBER9876543210

0000  40 bd 46 27 01 88 ff ff 43 02 80 4e 02 00 2d 00   @.F'....C..N..-.
0010  f8 75 dc 4e 00 00 00 00 c8 cf 0e 00 00 00 00 00   .u.N............
0020  2a 00 00 00 2a 00 00 00 00 00 00 00 00 00 00 00   *...*...........
0030  00 00 00 00 00 00 00 00 00 02 00 00 00 00 00 00   ................
0040  2a 03 53 00 4d 00 49 00 47 00 52 00 41 00 42 00   *.S.M.I.G.R.A.B.
0050  42 00 45 00 52 00 39 00 38 00 37 00 36 00 35 00   B.E.R.9.8.7.6.5.
0060  34 00 33 00 32 00 31 00 30 00                     4.3.2.1.0.

No.     Time        Source                Destination           Protocol Info
    135 71.384240   host                  78.0                  USB      SET CONFIGURATION Request

Frame 135: 64 bytes on wire (512 bits), 64 bytes captured (512 bits)
    Arrival Time: Dec  5, 2011 08:42:48.970719000 CET
    Epoch Time: 1323070968.970719000 seconds
    [Time delta from previous captured frame: 0.000023000 seconds]
    [Time delta from previous displayed frame: 0.000023000 seconds]
    [Time since reference or first frame: 71.384240000 seconds]
    Frame Number: 135
    Frame Length: 64 bytes (512 bits)
    Capture Length: 64 bytes (512 bits)
    [Frame is marked: False]
    [Frame is ignored: False]
    [Protocols in frame: usb]
USB URB
    URB id: 0xffff88012746bd40
    URB type: URB_SUBMIT ('S')
    URB transfer type: URB_CONTROL out (0x02)
    Endpoint: 0x00
    Device: 78
    URB bus id: 2
    Device setup request: relevant (0)
    Data: present (0)
    URB sec: 1323070968
    URB usec: 970719
    URB status: Operation now in progress (-EINPROGRESS) (-115)
    URB length [bytes]: 0
    Data length [bytes]: 0
    [Response in: 136]
    [bInterfaceClass: VENDOR_SPECIFIC (0xff)]
    URB setup
        bmRequestType: 0x00
            0... .... = Direction: Host-to-device
            .00. .... = Type: Standard (0x00)
            ...0 0000 = Recipient: Device (0x00)
        bRequest: SET CONFIGURATION (9)
        bConfigurationValue: 1
        wIndex: 0
        wLength: 0

0000  40 bd 46 27 01 88 ff ff 53 02 00 4e 02 00 00 00   @.F'....S..N....
0010  f8 75 dc 4e 00 00 00 00 df cf 0e 00 8d ff ff ff   .u.N............
0020  00 00 00 00 00 00 00 00 00 09 01 00 00 00 00 00   ................
0030  00 00 00 00 00 00 00 00 00 00 00 00 00 00 00 00   ................

No.     Time        Source                Destination           Protocol Info
    136 71.384343   78.0                  host                  USB      SET CONFIGURATION Response

Frame 136: 64 bytes on wire (512 bits), 64 bytes captured (512 bits)
    Arrival Time: Dec  5, 2011 08:42:48.970822000 CET
    Epoch Time: 1323070968.970822000 seconds
    [Time delta from previous captured frame: 0.000103000 seconds]
    [Time delta from previous displayed frame: 0.000103000 seconds]
    [Time since reference or first frame: 71.384343000 seconds]
    Frame Number: 136
    Frame Length: 64 bytes (512 bits)
    Capture Length: 64 bytes (512 bits)
    [Frame is marked: False]
    [Frame is ignored: False]
    [Protocols in frame: usb]
USB URB
    URB id: 0xffff88012746bd40
    URB type: URB_COMPLETE ('C')
    URB transfer type: URB_CONTROL out (0x02)
    Endpoint: 0x00
    Device: 78
    URB bus id: 2
    Device setup request: not relevant ('-')
    Data: not present ('>')
    URB sec: 1323070968
    URB usec: 970822
    URB status: Success (0)
    URB length [bytes]: 0
    Data length [bytes]: 0
    [Request in: 135]
    [Time from request: 0.000103000 seconds]
    [bInterfaceClass: VENDOR_SPECIFIC (0xff)]

0000  40 bd 46 27 01 88 ff ff 43 02 00 4e 02 00 2d 3e   @.F'....C..N..->
0010  f8 75 dc 4e 00 00 00 00 46 d0 0e 00 00 00 00 00   .u.N....F.......
0020  00 00 00 00 00 00 00 00 00 00 00 00 00 00 00 00   ................
0030  00 00 00 00 00 00 00 00 00 00 00 00 00 00 00 00   ................

No.     Time        Source                Destination           Protocol Info
    137 71.484494   host                  78.0                  USB      GET DESCRIPTOR Request DEVICE

Frame 137: 64 bytes on wire (512 bits), 64 bytes captured (512 bits)
    Arrival Time: Dec  5, 2011 08:42:49.070973000 CET
    Epoch Time: 1323070969.070973000 seconds
    [Time delta from previous captured frame: 0.100151000 seconds]
    [Time delta from previous displayed frame: 0.100151000 seconds]
    [Time since reference or first frame: 71.484494000 seconds]
    Frame Number: 137
    Frame Length: 64 bytes (512 bits)
    Capture Length: 64 bytes (512 bits)
    [Frame is marked: False]
    [Frame is ignored: False]
    [Protocols in frame: usb]
USB URB
    URB id: 0xffff88012746bd40
    URB type: URB_SUBMIT ('S')
    URB transfer type: URB_CONTROL out (0x02)
    Endpoint: 0x80
    Device: 78
    URB bus id: 2
    Device setup request: relevant (0)
    Data: not present ('<')
    URB sec: 1323070969
    URB usec: 70973
    URB status: Operation now in progress (-EINPROGRESS) (-115)
    URB length [bytes]: 18
    Data length [bytes]: 0
    [Response in: 138]
    [bInterfaceClass: VENDOR_SPECIFIC (0xff)]
    URB setup
        bmRequestType: 0x80
            1... .... = Direction: Device-to-host
            .00. .... = Type: Standard (0x00)
            ...0 0000 = Recipient: Device (0x00)
        bRequest: GET DESCRIPTOR (6)
        Descriptor Index: 0x00
        bDescriptorType: DEVICE (1)
        Language Id: no language specified (0x0000)
        wLength: 18

0000  40 bd 46 27 01 88 ff ff 53 02 80 4e 02 00 00 3c   @.F'....S..N...<
0010  f9 75 dc 4e 00 00 00 00 3d 15 01 00 8d ff ff ff   .u.N....=.......
0020  12 00 00 00 00 00 00 00 80 06 00 01 00 00 12 00   ................
0030  00 00 00 00 00 00 00 00 00 02 00 00 00 00 00 00   ................

No.     Time        Source                Destination           Protocol Info
    138 71.484602   78.0                  host                  USB      GET DESCRIPTOR Response DEVICE

Frame 138: 82 bytes on wire (656 bits), 82 bytes captured (656 bits)
    Arrival Time: Dec  5, 2011 08:42:49.071081000 CET
    Epoch Time: 1323070969.071081000 seconds
    [Time delta from previous captured frame: 0.000108000 seconds]
    [Time delta from previous displayed frame: 0.000108000 seconds]
    [Time since reference or first frame: 71.484602000 seconds]
    Frame Number: 138
    Frame Length: 82 bytes (656 bits)
    Capture Length: 82 bytes (656 bits)
    [Frame is marked: False]
    [Frame is ignored: False]
    [Protocols in frame: usb]
USB URB
    URB id: 0xffff88012746bd40
    URB type: URB_COMPLETE ('C')
    URB transfer type: URB_CONTROL out (0x02)
    Endpoint: 0x80
    Device: 78
    URB bus id: 2
    Device setup request: not relevant ('-')
    Data: present (0)
    URB sec: 1323070969
    URB usec: 71081
    URB status: Success (0)
    URB length [bytes]: 18
    Data length [bytes]: 18
    [Request in: 137]
    [Time from request: 0.000108000 seconds]
    [bInterfaceClass: VENDOR_SPECIFIC (0xff)]
    DEVICE DESCRIPTOR
        bLength: 18
        bDescriptorType: DEVICE (1)
        bcdUSB: 0x0200
        bDeviceClass: 0
        bDeviceSubClass: 0
        bDeviceProtocol: 0
        bMaxPacketSize0: 64
        idVendor: 0x1c88
        idProduct: 0x003c
        bcdDevice: 0x0100
        iManufacturer: 1
        iProduct: 2
        iSerialNumber: 3
