No.     Time        Source                Destination           Protocol Info
    297 784.135636  host                  78.0                  USB      URB_CONTROL out

Frame 297: 77 bytes on wire (616 bits), 77 bytes captured (616 bits)
    Arrival Time: Dec  5, 2011 08:54:41.722115000 CET
    Epoch Time: 1323071681.722115000 seconds
    [Time delta from previous captured frame: 207.286177000 seconds]
    [Time delta from previous displayed frame: 207.286177000 seconds]
    [Time since reference or first frame: 784.135636000 seconds]
    Frame Number: 297
    Frame Length: 77 bytes (616 bits)
    Capture Length: 77 bytes (616 bits)
    [Frame is marked: True]
    [Frame is ignored: False]
    [Protocols in frame: usb]
USB URB
    URB id: 0xffff88012f7ce6c0
    URB type: URB_SUBMIT ('S')
    URB transfer type: URB_CONTROL out (0x02)
    Endpoint: 0x00
    Device: 78
    URB bus id: 2
    Device setup request: relevant (0)
    Data: present (0)
    URB sec: 1323071681
    URB usec: 722115
    URB status: Operation now in progress (-EINPROGRESS) (-115)
    URB length [bytes]: 13
    Data length [bytes]: 13
    [Response in: 298]
    [bInterfaceClass: VENDOR_SPECIFIC (0xff)]
    URB setup
        bmRequestType: 0x40
            0... .... = Direction: Host-to-device
            .10. .... = Type: Vendor (0x02)
            ...0 0000 = Recipient: Device (0x00)
        bRequest: 1
        wValue: 0x000b
        wIndex: 0
        wLength: 13
    Leftover Capture Data: 0b0020820130808924ad548000

0000  c0 e6 7c 2f 01 88 ff ff 53 02 00 4e 02 00 00 00   ..|/....S..N....
0010  c1 78 dc 4e 00 00 00 00 c3 04 0b 00 8d ff ff ff   .x.N............
0020  0d 00 00 00 0d 00 00 00 40 01 0b 00 00 00 0d 00   ........@.......
0030  00 00 00 00 00 00 00 00 00 00 00 00 00 00 00 00   ................
0040  0b 00 20 82 01 30 80 89 24 ad 54 80 00            .. ..0..$.T..

No.     Time        Source                Destination           Protocol Info
    298 784.135841  78.0                  host                  USB      URB_CONTROL out

Frame 298: 64 bytes on wire (512 bits), 64 bytes captured (512 bits)
    Arrival Time: Dec  5, 2011 08:54:41.722320000 CET
    Epoch Time: 1323071681.722320000 seconds
    [Time delta from previous captured frame: 0.000205000 seconds]
    [Time delta from previous displayed frame: 0.000205000 seconds]
    [Time since reference or first frame: 784.135841000 seconds]
    Frame Number: 298
    Frame Length: 64 bytes (512 bits)
    Capture Length: 64 bytes (512 bits)
    [Frame is marked: False]
    [Frame is ignored: False]
    [Protocols in frame: usb]
USB URB
    URB id: 0xffff88012f7ce6c0
    URB type: URB_COMPLETE ('C')
    URB transfer type: URB_CONTROL out (0x02)
    Endpoint: 0x00
    Device: 78
    URB bus id: 2
    Device setup request: not relevant ('-')
    Data: not present ('>')
    URB sec: 1323071681
    URB usec: 722320
    URB status: Success (0)
    URB length [bytes]: 13
    Data length [bytes]: 0
    [Request in: 297]
    [Time from request: 0.000205000 seconds]
    [bInterfaceClass: VENDOR_SPECIFIC (0xff)]

0000  c0 e6 7c 2f 01 88 ff ff 43 02 00 4e 02 00 2d 3e   ..|/....C..N..->
0010  c1 78 dc 4e 00 00 00 00 90 05 0b 00 00 00 00 00   .x.N............
0020  0d 00 00 00 00 00 00 00 00 00 00 00 00 00 00 00   ................
0030  00 00 00 00 00 00 00 00 00 00 00 00 00 00 00 00   ................

No.     Time        Source                Destination           Protocol Info
    299 784.139926  host                  78.0                  USB      URB_CONTROL out

Frame 299: 64 bytes on wire (512 bits), 64 bytes captured (512 bits)
    Arrival Time: Dec  5, 2011 08:54:41.726405000 CET
    Epoch Time: 1323071681.726405000 seconds
    [Time delta from previous captured frame: 0.004085000 seconds]
    [Time delta from previous displayed frame: 0.004085000 seconds]
    [Time since reference or first frame: 784.139926000 seconds]
    Frame Number: 299
    Frame Length: 64 bytes (512 bits)
    Capture Length: 64 bytes (512 bits)
    [Frame is marked: False]
    [Frame is ignored: False]
    [Protocols in frame: usb]
USB URB
    URB id: 0xffff88012de5c240
    URB type: URB_SUBMIT ('S')
    URB transfer type: URB_CONTROL out (0x02)
    Endpoint: 0x80
    Device: 78
    URB bus id: 2
    Device setup request: relevant (0)
    Data: not present ('<')
    URB sec: 1323071681
    URB usec: 726405
    URB status: Operation now in progress (-EINPROGRESS) (-115)
    URB length [bytes]: 13
    Data length [bytes]: 0
    [Response in: 300]
    [bInterfaceClass: VENDOR_SPECIFIC (0xff)]
    URB setup
        bmRequestType: 0xc0
            1... .... = Direction: Device-to-host
            .10. .... = Type: Vendor (0x02)
            ...0 0000 = Recipient: Device (0x00)
        bRequest: 1
        wValue: 0x000b
        wIndex: 0
        wLength: 13

0000  40 c2 e5 2d 01 88 ff ff 53 02 80 4e 02 00 00 3c   @..-....S..N...<
0010  c1 78 dc 4e 00 00 00 00 85 15 0b 00 8d ff ff ff   .x.N............
0020  0d 00 00 00 00 00 00 00 c0 01 0b 00 00 00 0d 00   ................
0030  00 00 00 00 00 00 00 00 00 02 00 00 00 00 00 00   ................

No.     Time        Source                Destination           Protocol Info
    300 784.140058  78.0                  host                  USB      URB_CONTROL out

Frame 300: 77 bytes on wire (616 bits), 77 bytes captured (616 bits)
    Arrival Time: Dec  5, 2011 08:54:41.726537000 CET
    Epoch Time: 1323071681.726537000 seconds
    [Time delta from previous captured frame: 0.000132000 seconds]
    [Time delta from previous displayed frame: 0.000132000 seconds]
    [Time since reference or first frame: 784.140058000 seconds]
    Frame Number: 300
    Frame Length: 77 bytes (616 bits)
    Capture Length: 77 bytes (616 bits)
    [Frame is marked: False]
    [Frame is ignored: False]
    [Protocols in frame: usb]
USB URB
    URB id: 0xffff88012de5c240
    URB type: URB_COMPLETE ('C')
    URB transfer type: URB_CONTROL out (0x02)
    Endpoint: 0x80
    Device: 78
    URB bus id: 2
    Device setup request: not relevant ('-')
    Data: present (0)
    URB sec: 1323071681
    URB usec: 726537
    URB status: Success (0)
    URB length [bytes]: 13
    Data length [bytes]: 13
    [Request in: 299]
    [Time from request: 0.000132000 seconds]
    [bInterfaceClass: VENDOR_SPECIFIC (0xff)]
    CONTROL response data

0000  40 c2 e5 2d 01 88 ff ff 43 02 80 4e 02 00 2d 00   @..-....C..N..-.
0010  c1 78 dc 4e 00 00 00 00 09 16 0b 00 00 00 00 00   .x.N............
0020  0d 00 00 00 0d 00 00 00 00 00 00 00 00 00 00 00   ................
0030  00 00 00 00 00 00 00 00 00 02 00 00 00 00 00 00   ................
0040  0b 00 20 82 01 30 80 80 24 ad 54 80 00            .. ..0..$.T..

No.     Time        Source                Destination           Protocol Info
    301 784.144229  host                  78.0                  USB      URB_CONTROL out

Frame 301: 77 bytes on wire (616 bits), 77 bytes captured (616 bits)
    Arrival Time: Dec  5, 2011 08:54:41.730708000 CET
    Epoch Time: 1323071681.730708000 seconds
    [Time delta from previous captured frame: 0.004171000 seconds]
    [Time delta from previous displayed frame: 0.004171000 seconds]
    [Time since reference or first frame: 784.144229000 seconds]
    Frame Number: 301
    Frame Length: 77 bytes (616 bits)
    Capture Length: 77 bytes (616 bits)
    [Frame is marked: False]
    [Frame is ignored: False]
    [Protocols in frame: usb]
USB URB
    URB id: 0xffff88012de5c240
    URB type: URB_SUBMIT ('S')
    URB transfer type: URB_CONTROL out (0x02)
    Endpoint: 0x00
    Device: 78
    URB bus id: 2
    Device setup request: relevant (0)
    Data: present (0)
    URB sec: 1323071681
    URB usec: 730708
    URB status: Operation now in progress (-EINPROGRESS) (-115)
    URB length [bytes]: 13
    Data length [bytes]: 13
    [Response in: 302]
    [bInterfaceClass: VENDOR_SPECIFIC (0xff)]
    URB setup
        bmRequestType: 0x40
            0... .... = Direction: Host-to-device
            .10. .... = Type: Vendor (0x02)
            ...0 0000 = Recipient: Device (0x00)
        bRequest: 1
        wValue: 0x000b
        wIndex: 0
        wLength: 13
    Leftover Capture Data: 0b00008201003411eb919cb847

0000  40 c2 e5 2d 01 88 ff ff 53 02 00 4e 02 00 00 00   @..-....S..N....
0010  c1 78 dc 4e 00 00 00 00 54 26 0b 00 8d ff ff ff   .x.N....T&......
0020  0d 00 00 00 0d 00 00 00 40 01 0b 00 00 00 0d 00   ........@.......
0030  00 00 00 00 00 00 00 00 00 00 00 00 00 00 00 00   ................
0040  0b 00 00 82 01 00 34 11 eb 91 9c b8 47            ......4.....G

No.     Time        Source                Destination           Protocol Info
    302 784.144437  78.0                  host                  USB      URB_CONTROL out

Frame 302: 64 bytes on wire (512 bits), 64 bytes captured (512 bits)
    Arrival Time: Dec  5, 2011 08:54:41.730916000 CET
    Epoch Time: 1323071681.730916000 seconds
    [Time delta from previous captured frame: 0.000208000 seconds]
    [Time delta from previous displayed frame: 0.000208000 seconds]
    [Time since reference or first frame: 784.144437000 seconds]
    Frame Number: 302
    Frame Length: 64 bytes (512 bits)
    Capture Length: 64 bytes (512 bits)
    [Frame is marked: False]
    [Frame is ignored: False]
    [Protocols in frame: usb]
USB URB
    URB id: 0xffff88012de5c240
    URB type: URB_COMPLETE ('C')
    URB transfer type: URB_CONTROL out (0x02)
    Endpoint: 0x00
    Device: 78
    URB bus id: 2
    Device setup request: not relevant ('-')
    Data: not present ('>')
    URB sec: 1323071681
    URB usec: 730916
    URB status: Success (0)
    URB length [bytes]: 13
    Data length [bytes]: 0
    [Request in: 301]
    [Time from request: 0.000208000 seconds]
    [bInterfaceClass: VENDOR_SPECIFIC (0xff)]

0000  40 c2 e5 2d 01 88 ff ff 43 02 00 4e 02 00 2d 3e   @..-....C..N..->
0010  c1 78 dc 4e 00 00 00 00 24 27 0b 00 00 00 00 00   .x.N....$'......
0020  0d 00 00 00 00 00 00 00 00 00 00 00 00 00 00 00   ................
0030  00 00 00 00 00 00 00 00 00 00 00 00 00 00 00 00   ................

No.     Time        Source                Destination           Protocol Info
    303 784.148527  host                  78.0                  USB      URB_CONTROL out

Frame 303: 77 bytes on wire (616 bits), 77 bytes captured (616 bits)
    Arrival Time: Dec  5, 2011 08:54:41.735006000 CET
    Epoch Time: 1323071681.735006000 seconds
    [Time delta from previous captured frame: 0.004090000 seconds]
    [Time delta from previous displayed frame: 0.004090000 seconds]
    [Time since reference or first frame: 784.148527000 seconds]
    Frame Number: 303
    Frame Length: 77 bytes (616 bits)
    Capture Length: 77 bytes (616 bits)
    [Frame is marked: False]
    [Frame is ignored: False]
    [Protocols in frame: usb]
USB URB
    URB id: 0xffff88012de5c240
    URB type: URB_SUBMIT ('S')
    URB transfer type: URB_CONTROL out (0x02)
    Endpoint: 0x00
    Device: 78
    URB bus id: 2
    Device setup request: relevant (0)
    Data: present (0)
    URB sec: 1323071681
    URB usec: 735006
    URB status: Operation now in progress (-EINPROGRESS) (-115)
    URB length [bytes]: 13
    Data length [bytes]: 13
    [Response in: 304]
    [bInterfaceClass: VENDOR_SPECIFIC (0xff)]
    URB setup
        bmRequestType: 0x40
            0... .... = Direction: Host-to-device
            .10. .... = Type: Vendor (0x02)
            ...0 0000 = Recipient: Device (0x00)
        bRequest: 1
        wValue: 0x000b
        wIndex: 0
        wLength: 13
    Leftover Capture Data: 0b00008201003511eb919cb847

0000  40 c2 e5 2d 01 88 ff ff 53 02 00 4e 02 00 00 00   @..-....S..N....
0010  c1 78 dc 4e 00 00 00 00 1e 37 0b 00 8d ff ff ff   .x.N.....7......
0020  0d 00 00 00 0d 00 00 00 40 01 0b 00 00 00 0d 00   ........@.......
0030  00 00 00 00 00 00 00 00 00 00 00 00 00 00 00 00   ................
0040  0b 00 00 82 01 00 35 11 eb 91 9c b8 47            ......5.....G

No.     Time        Source                Destination           Protocol Info
    304 784.148722  78.0                  host                  USB      URB_CONTROL out

Frame 304: 64 bytes on wire (512 bits), 64 bytes captured (512 bits)
    Arrival Time: Dec  5, 2011 08:54:41.735201000 CET
    Epoch Time: 1323071681.735201000 seconds
    [Time delta from previous captured frame: 0.000195000 seconds]
    [Time delta from previous displayed frame: 0.000195000 seconds]
    [Time since reference or first frame: 784.148722000 seconds]
    Frame Number: 304
    Frame Length: 64 bytes (512 bits)
    Capture Length: 64 bytes (512 bits)
    [Frame is marked: False]
    [Frame is ignored: False]
    [Protocols in frame: usb]
USB URB
    URB id: 0xffff88012de5c240
    URB type: URB_COMPLETE ('C')
    URB transfer type: URB_CONTROL out (0x02)
    Endpoint: 0x00
    Device: 78
    URB bus id: 2
    Device setup request: not relevant ('-')
    Data: not present ('>')
    URB sec: 1323071681
    URB usec: 735201
    URB status: Success (0)
    URB length [bytes]: 13
    Data length [bytes]: 0
    [Request in: 303]
    [Time from request: 0.000195000 seconds]
    [bInterfaceClass: VENDOR_SPECIFIC (0xff)]

0000  40 c2 e5 2d 01 88 ff ff 43 02 00 4e 02 00 2d 3e   @..-....C..N..->
0010  c1 78 dc 4e 00 00 00 00 e1 37 0b 00 00 00 00 00   .x.N.....7......
0020  0d 00 00 00 00 00 00 00 00 00 00 00 00 00 00 00   ................
0030  00 00 00 00 00 00 00 00 00 00 00 00 00 00 00 00   ................

No.     Time        Source                Destination           Protocol Info
    305 784.165905  host                  78.0                  USB      URB_CONTROL out

Frame 305: 77 bytes on wire (616 bits), 77 bytes captured (616 bits)
    Arrival Time: Dec  5, 2011 08:54:41.752384000 CET
    Epoch Time: 1323071681.752384000 seconds
    [Time delta from previous captured frame: 0.017183000 seconds]
    [Time delta from previous displayed frame: 0.017183000 seconds]
    [Time since reference or first frame: 784.165905000 seconds]
    Frame Number: 305
    Frame Length: 77 bytes (616 bits)
    Capture Length: 77 bytes (616 bits)
    [Frame is marked: False]
    [Frame is ignored: False]
    [Protocols in frame: usb]
USB URB
    URB id: 0xffff88012de5c240
    URB type: URB_SUBMIT ('S')
    URB transfer type: URB_CONTROL out (0x02)
    Endpoint: 0x00
    Device: 78
    URB bus id: 2
    Device setup request: relevant (0)
    Data: present (0)
    URB sec: 1323071681
    URB usec: 752384
    URB status: Operation now in progress (-EINPROGRESS) (-115)
    URB length [bytes]: 13
    Data length [bytes]: 13
    [Response in: 306]
    [bInterfaceClass: VENDOR_SPECIFIC (0xff)]
    URB setup
        bmRequestType: 0x40
            0... .... = Direction: Host-to-device
            .10. .... = Type: Vendor (0x02)
            ...0 0000 = Recipient: Device (0x00)
        bRequest: 1
        wValue: 0x000b
        wIndex: 0
        wLength: 13
    Leftover Capture Data: 0b00008201003a8022446e8008

0000  40 c2 e5 2d 01 88 ff ff 53 02 00 4e 02 00 00 00   @..-....S..N....
0010  c1 78 dc 4e 00 00 00 00 00 7b 0b 00 8d ff ff ff   .x.N.....{......
0020  0d 00 00 00 0d 00 00 00 40 01 0b 00 00 00 0d 00   ........@.......
0030  00 00 00 00 00 00 00 00 00 00 00 00 00 00 00 00   ................
0040  0b 00 00 82 01 00 3a 80 22 44 6e 80 08            ......:."Dn..

No.     Time        Source                Destination           Protocol Info
    306 784.166095  78.0                  host                  USB      URB_CONTROL out

Frame 306: 64 bytes on wire (512 bits), 64 bytes captured (512 bits)
    Arrival Time: Dec  5, 2011 08:54:41.752574000 CET
    Epoch Time: 1323071681.752574000 seconds
    [Time delta from previous captured frame: 0.000190000 seconds]
    [Time delta from previous displayed frame: 0.000190000 seconds]
    [Time since reference or first frame: 784.166095000 seconds]
    Frame Number: 306
    Frame Length: 64 bytes (512 bits)
    Capture Length: 64 bytes (512 bits)
    [Frame is marked: False]
    [Frame is ignored: False]
    [Protocols in frame: usb]
USB URB
    URB id: 0xffff88012de5c240
    URB type: URB_COMPLETE ('C')
    URB transfer type: URB_CONTROL out (0x02)
    Endpoint: 0x00
    Device: 78
    URB bus id: 2
    Device setup request: not relevant ('-')
    Data: not present ('>')
    URB sec: 1323071681
    URB usec: 752574
    URB status: Success (0)
    URB length [bytes]: 13
    Data length [bytes]: 0
    [Request in: 305]
    [Time from request: 0.000190000 seconds]
    [bInterfaceClass: VENDOR_SPECIFIC (0xff)]

0000  40 c2 e5 2d 01 88 ff ff 43 02 00 4e 02 00 2d 3e   @..-....C..N..->
0010  c1 78 dc 4e 00 00 00 00 be 7b 0b 00 00 00 00 00   .x.N.....{......
0020  0d 00 00 00 00 00 00 00 00 00 00 00 00 00 00 00   ................
0030  00 00 00 00 00 00 00 00 00 00 00 00 00 00 00 00   ................

No.     Time        Source                Destination           Protocol Info
    307 784.170241  host                  78.0                  USB      URB_CONTROL out

Frame 307: 77 bytes on wire (616 bits), 77 bytes captured (616 bits)
    Arrival Time: Dec  5, 2011 08:54:41.756720000 CET
    Epoch Time: 1323071681.756720000 seconds
    [Time delta from previous captured frame: 0.004146000 seconds]
    [Time delta from previous displayed frame: 0.004146000 seconds]
    [Time since reference or first frame: 784.170241000 seconds]
    Frame Number: 307
    Frame Length: 77 bytes (616 bits)
    Capture Length: 77 bytes (616 bits)
    [Frame is marked: False]
    [Frame is ignored: False]
    [Protocols in frame: usb]
USB URB
    URB id: 0xffff88012de5c240
    URB type: URB_SUBMIT ('S')
    URB transfer type: URB_CONTROL out (0x02)
    Endpoint: 0x00
    Device: 78
    URB bus id: 2
    Device setup request: relevant (0)
    Data: present (0)
    URB sec: 1323071681
    URB usec: 756720
    URB status: Operation now in progress (-EINPROGRESS) (-115)
    URB length [bytes]: 13
    Data length [bytes]: 13
    [Response in: 308]
    [bInterfaceClass: VENDOR_SPECIFIC (0xff)]
    URB setup
        bmRequestType: 0x40
            0... .... = Direction: Host-to-device
            .10. .... = Type: Vendor (0x02)
            ...0 0000 = Recipient: Device (0x00)
        bRequest: 1
        wValue: 0x000b
        wIndex: 0
        wLength: 13
    Leftover Capture Data: 0b00008201003b8022446e8008

0000  40 c2 e5 2d 01 88 ff ff 53 02 00 4e 02 00 00 00   @..-....S..N....
0010  c1 78 dc 4e 00 00 00 00 f0 8b 0b 00 8d ff ff ff   .x.N............
0020  0d 00 00 00 0d 00 00 00 40 01 0b 00 00 00 0d 00   ........@.......
0030  00 00 00 00 00 00 00 00 00 00 00 00 00 00 00 00   ................
0040  0b 00 00 82 01 00 3b 80 22 44 6e 80 08            ......;."Dn..

No.     Time        Source                Destination           Protocol Info
    308 784.170444  78.0                  host                  USB      URB_CONTROL out

Frame 308: 64 bytes on wire (512 bits), 64 bytes captured (512 bits)
    Arrival Time: Dec  5, 2011 08:54:41.756923000 CET
    Epoch Time: 1323071681.756923000 seconds
    [Time delta from previous captured frame: 0.000203000 seconds]
    [Time delta from previous displayed frame: 0.000203000 seconds]
    [Time since reference or first frame: 784.170444000 seconds]
    Frame Number: 308
    Frame Length: 64 bytes (512 bits)
    Capture Length: 64 bytes (512 bits)
    [Frame is marked: False]
    [Frame is ignored: False]
    [Protocols in frame: usb]
USB URB
    URB id: 0xffff88012de5c240
    URB type: URB_COMPLETE ('C')
    URB transfer type: URB_CONTROL out (0x02)
    Endpoint: 0x00
    Device: 78
    URB bus id: 2
    Device setup request: not relevant ('-')
    Data: not present ('>')
    URB sec: 1323071681
    URB usec: 756923
    URB status: Success (0)
    URB length [bytes]: 13
    Data length [bytes]: 0
    [Request in: 307]
    [Time from request: 0.000203000 seconds]
    [bInterfaceClass: VENDOR_SPECIFIC (0xff)]

0000  40 c2 e5 2d 01 88 ff ff 43 02 00 4e 02 00 2d 3e   @..-....C..N..->
0010  c1 78 dc 4e 00 00 00 00 bb 8c 0b 00 00 00 00 00   .x.N............
0020  0d 00 00 00 00 00 00 00 00 00 00 00 00 00 00 00   ................
0030  00 00 00 00 00 00 00 00 00 00 00 00 00 00 00 00   ................

No.     Time        Source                Destination           Protocol Info
    309 784.275869  host                  78.0                  USB      URB_CONTROL out

Frame 309: 77 bytes on wire (616 bits), 77 bytes captured (616 bits)
    Arrival Time: Dec  5, 2011 08:54:41.862348000 CET
    Epoch Time: 1323071681.862348000 seconds
    [Time delta from previous captured frame: 0.105425000 seconds]
    [Time delta from previous displayed frame: 0.105425000 seconds]
    [Time since reference or first frame: 784.275869000 seconds]
    Frame Number: 309
    Frame Length: 77 bytes (616 bits)
    Capture Length: 77 bytes (616 bits)
    [Frame is marked: False]
    [Frame is ignored: False]
    [Protocols in frame: usb]
USB URB
    URB id: 0xffff88012de5c240
    URB type: URB_SUBMIT ('S')
    URB transfer type: URB_CONTROL out (0x02)
    Endpoint: 0x00
    Device: 78
    URB bus id: 2
    Device setup request: relevant (0)
    Data: present (0)
    URB sec: 1323071681
    URB usec: 862348
    URB status: Operation now in progress (-EINPROGRESS) (-115)
    URB length [bytes]: 13
    Data length [bytes]: 13
    [Response in: 310]
    [bInterfaceClass: VENDOR_SPECIFIC (0xff)]
    URB setup
        bmRequestType: 0x40
            0... .... = Direction: Host-to-device
            .10. .... = Type: Vendor (0x02)
            ...0 0000 = Recipient: Device (0x00)
        bRequest: 1
        wValue: 0x000b
        wIndex: 0
        wLength: 13
    Leftover Capture Data: 0b00008201003a8022446e8008

0000  40 c2 e5 2d 01 88 ff ff 53 02 00 4e 02 00 00 00   @..-....S..N....
0010  c1 78 dc 4e 00 00 00 00 8c 28 0d 00 8d ff ff ff   .x.N.....(......
0020  0d 00 00 00 0d 00 00 00 40 01 0b 00 00 00 0d 00   ........@.......
0030  00 00 00 00 00 00 00 00 00 00 00 00 00 00 00 00   ................
0040  0b 00 00 82 01 00 3a 80 22 44 6e 80 08            ......:."Dn..

No.     Time        Source                Destination           Protocol Info
    310 784.276091  78.0                  host                  USB      URB_CONTROL out

Frame 310: 64 bytes on wire (512 bits), 64 bytes captured (512 bits)
    Arrival Time: Dec  5, 2011 08:54:41.862570000 CET
    Epoch Time: 1323071681.862570000 seconds
    [Time delta from previous captured frame: 0.000222000 seconds]
    [Time delta from previous displayed frame: 0.000222000 seconds]
    [Time since reference or first frame: 784.276091000 seconds]
    Frame Number: 310
    Frame Length: 64 bytes (512 bits)
    Capture Length: 64 bytes (512 bits)
    [Frame is marked: False]
    [Frame is ignored: False]
    [Protocols in frame: usb]
USB URB
    URB id: 0xffff88012de5c240
    URB type: URB_COMPLETE ('C')
    URB transfer type: URB_CONTROL out (0x02)
    Endpoint: 0x00
    Device: 78
    URB bus id: 2
    Device setup request: not relevant ('-')
    Data: not present ('>')
    URB sec: 1323071681
    URB usec: 862570
    URB status: Success (0)
    URB length [bytes]: 13
    Data length [bytes]: 0
    [Request in: 309]
    [Time from request: 0.000222000 seconds]
    [bInterfaceClass: VENDOR_SPECIFIC (0xff)]

0000  40 c2 e5 2d 01 88 ff ff 43 02 00 4e 02 00 2d 3e   @..-....C..N..->
0010  c1 78 dc 4e 00 00 00 00 6a 29 0d 00 00 00 00 00   .x.N....j)......
0020  0d 00 00 00 00 00 00 00 00 00 00 00 00 00 00 00   ................
0030  00 00 00 00 00 00 00 00 00 00 00 00 00 00 00 00   ................

No.     Time        Source                Destination           Protocol Info
    311 784.280282  host                  78.0                  USB      URB_CONTROL out

Frame 311: 77 bytes on wire (616 bits), 77 bytes captured (616 bits)
    Arrival Time: Dec  5, 2011 08:54:41.866761000 CET
    Epoch Time: 1323071681.866761000 seconds
    [Time delta from previous captured frame: 0.004191000 seconds]
    [Time delta from previous displayed frame: 0.004191000 seconds]
    [Time since reference or first frame: 784.280282000 seconds]
    Frame Number: 311
    Frame Length: 77 bytes (616 bits)
    Capture Length: 77 bytes (616 bits)
    [Frame is marked: False]
    [Frame is ignored: False]
    [Protocols in frame: usb]
USB URB
    URB id: 0xffff88012de5c240
    URB type: URB_SUBMIT ('S')
    URB transfer type: URB_CONTROL out (0x02)
    Endpoint: 0x00
    Device: 78
    URB bus id: 2
    Device setup request: relevant (0)
    Data: present (0)
    URB sec: 1323071681
    URB usec: 866761
    URB status: Operation now in progress (-EINPROGRESS) (-115)
    URB length [bytes]: 13
    Data length [bytes]: 13
    [Response in: 312]
    [bInterfaceClass: VENDOR_SPECIFIC (0xff)]
    URB setup
        bmRequestType: 0x40
            0... .... = Direction: Host-to-device
            .10. .... = Type: Vendor (0x02)
            ...0 0000 = Recipient: Device (0x00)
        bRequest: 1
        wValue: 0x000b
        wIndex: 0
        wLength: 13
    Leftover Capture Data: 0b00008201003b0022446e8008

0000  40 c2 e5 2d 01 88 ff ff 53 02 00 4e 02 00 00 00   @..-....S..N....
0010  c1 78 dc 4e 00 00 00 00 c9 39 0d 00 8d ff ff ff   .x.N.....9......
0020  0d 00 00 00 0d 00 00 00 40 01 0b 00 00 00 0d 00   ........@.......
0030  00 00 00 00 00 00 00 00 00 00 00 00 00 00 00 00   ................
0040  0b 00 00 82 01 00 3b 00 22 44 6e 80 08            ......;."Dn..

No.     Time        Source                Destination           Protocol Info
    312 784.280436  78.0                  host                  USB      URB_CONTROL out

Frame 312: 64 bytes on wire (512 bits), 64 bytes captured (512 bits)
    Arrival Time: Dec  5, 2011 08:54:41.866915000 CET
    Epoch Time: 1323071681.866915000 seconds
    [Time delta from previous captured frame: 0.000154000 seconds]
    [Time delta from previous displayed frame: 0.000154000 seconds]
    [Time since reference or first frame: 784.280436000 seconds]
    Frame Number: 312
    Frame Length: 64 bytes (512 bits)
    Capture Length: 64 bytes (512 bits)
    [Frame is marked: False]
    [Frame is ignored: False]
    [Protocols in frame: usb]
USB URB
    URB id: 0xffff88012de5c240
    URB type: URB_COMPLETE ('C')
    URB transfer type: URB_CONTROL out (0x02)
    Endpoint: 0x00
    Device: 78
    URB bus id: 2
    Device setup request: not relevant ('-')
    Data: not present ('>')
    URB sec: 1323071681
    URB usec: 866915
    URB status: Success (0)
    URB length [bytes]: 13
    Data length [bytes]: 0
    [Request in: 311]
    [Time from request: 0.000154000 seconds]
    [bInterfaceClass: VENDOR_SPECIFIC (0xff)]

0000  40 c2 e5 2d 01 88 ff ff 43 02 00 4e 02 00 2d 3e   @..-....C..N..->
0010  c1 78 dc 4e 00 00 00 00 63 3a 0d 00 00 00 00 00   .x.N....c:......
0020  0d 00 00 00 00 00 00 00 00 00 00 00 00 00 00 00   ................
0030  00 00 00 00 00 00 00 00 00 00 00 00 00 00 00 00   ................

No.     Time        Source                Destination           Protocol Info
    313 784.299054  host                  78.0                  USB      URB_CONTROL out

Frame 313: 77 bytes on wire (616 bits), 77 bytes captured (616 bits)
    Arrival Time: Dec  5, 2011 08:54:41.885533000 CET
    Epoch Time: 1323071681.885533000 seconds
    [Time delta from previous captured frame: 0.018618000 seconds]
    [Time delta from previous displayed frame: 0.018618000 seconds]
    [Time since reference or first frame: 784.299054000 seconds]
    Frame Number: 313
    Frame Length: 77 bytes (616 bits)
    Capture Length: 77 bytes (616 bits)
    [Frame is marked: False]
    [Frame is ignored: False]
    [Protocols in frame: usb]
USB URB
    URB id: 0xffff88012de5c240
    URB type: URB_SUBMIT ('S')
    URB transfer type: URB_CONTROL out (0x02)
    Endpoint: 0x00
    Device: 78
    URB bus id: 2
    Device setup request: relevant (0)
    Data: present (0)
    URB sec: 1323071681
    URB usec: 885533
    URB status: Operation now in progress (-EINPROGRESS) (-115)
    URB length [bytes]: 13
    Data length [bytes]: 13
    [Response in: 314]
    [bInterfaceClass: VENDOR_SPECIFIC (0xff)]
    URB setup
        bmRequestType: 0x40
            0... .... = Direction: Host-to-device
            .10. .... = Type: Vendor (0x02)
            ...0 0000 = Recipient: Device (0x00)
        bRequest: 1
        wValue: 0x000b
        wIndex: 0
        wLength: 13
    Leftover Capture Data: 0b00008201174000000000005c

0000  40 c2 e5 2d 01 88 ff ff 53 02 00 4e 02 00 00 00   @..-....S..N....
0010  c1 78 dc 4e 00 00 00 00 1d 83 0d 00 8d ff ff ff   .x.N............
0020  0d 00 00 00 0d 00 00 00 40 01 0b 00 00 00 0d 00   ........@.......
0030  00 00 00 00 00 00 00 00 00 00 00 00 00 00 00 00   ................
0040  0b 00 00 82 01 17 40 00 00 00 00 00 5c            ......@.....\

No.     Time        Source                Destination           Protocol Info
    314 784.299186  78.0                  host                  USB      URB_CONTROL out

Frame 314: 64 bytes on wire (512 bits), 64 bytes captured (512 bits)
    Arrival Time: Dec  5, 2011 08:54:41.885665000 CET
    Epoch Time: 1323071681.885665000 seconds
    [Time delta from previous captured frame: 0.000132000 seconds]
    [Time delta from previous displayed frame: 0.000132000 seconds]
    [Time since reference or first frame: 784.299186000 seconds]
    Frame Number: 314
    Frame Length: 64 bytes (512 bits)
    Capture Length: 64 bytes (512 bits)
    [Frame is marked: False]
    [Frame is ignored: False]
    [Protocols in frame: usb]
USB URB
    URB id: 0xffff88012de5c240
    URB type: URB_COMPLETE ('C')
    URB transfer type: URB_CONTROL out (0x02)
    Endpoint: 0x00
    Device: 78
    URB bus id: 2
    Device setup request: not relevant ('-')
    Data: not present ('>')
    URB sec: 1323071681
    URB usec: 885665
    URB status: Success (0)
    URB length [bytes]: 13
    Data length [bytes]: 0
    [Request in: 313]
    [Time from request: 0.000132000 seconds]
    [bInterfaceClass: VENDOR_SPECIFIC (0xff)]

0000  40 c2 e5 2d 01 88 ff ff 43 02 00 4e 02 00 2d 3e   @..-....C..N..->
0010  c1 78 dc 4e 00 00 00 00 a1 83 0d 00 00 00 00 00   .x.N............
0020  0d 00 00 00 00 00 00 00 00 00 00 00 00 00 00 00   ................
0030  00 00 00 00 00 00 00 00 00 00 00 00 00 00 00 00   ................

No.     Time        Source                Destination           Protocol Info
    315 784.304366  host                  78.0                  USB      URB_CONTROL out

Frame 315: 77 bytes on wire (616 bits), 77 bytes captured (616 bits)
    Arrival Time: Dec  5, 2011 08:54:41.890845000 CET
    Epoch Time: 1323071681.890845000 seconds
    [Time delta from previous captured frame: 0.005180000 seconds]
    [Time delta from previous displayed frame: 0.005180000 seconds]
    [Time since reference or first frame: 784.304366000 seconds]
    Frame Number: 315
    Frame Length: 77 bytes (616 bits)
    Capture Length: 77 bytes (616 bits)
    [Frame is marked: False]
    [Frame is ignored: False]
    [Protocols in frame: usb]
USB URB
    URB id: 0xffff88012de5c240
    URB type: URB_SUBMIT ('S')
    URB transfer type: URB_CONTROL out (0x02)
    Endpoint: 0x00
    Device: 78
    URB bus id: 2
    Device setup request: relevant (0)
    Data: present (0)
    URB sec: 1323071681
    URB usec: 890845
    URB status: Operation now in progress (-EINPROGRESS) (-115)
    URB length [bytes]: 13
    Data length [bytes]: 13
    [Response in: 316]
    [bInterfaceClass: VENDOR_SPECIFIC (0xff)]
    URB setup
        bmRequestType: 0x40
            0... .... = Direction: Host-to-device
            .10. .... = Type: Vendor (0x02)
            ...0 0000 = Recipient: Device (0x00)
        bRequest: 1
        wValue: 0x000b
        wIndex: 0
        wLength: 13
    Leftover Capture Data: 0b00008201003a80ec4b2fb97e

0000  40 c2 e5 2d 01 88 ff ff 53 02 00 4e 02 00 00 00   @..-....S..N....
0010  c1 78 dc 4e 00 00 00 00 dd 97 0d 00 8d ff ff ff   .x.N............
0020  0d 00 00 00 0d 00 00 00 40 01 0b 00 00 00 0d 00   ........@.......
0030  00 00 00 00 00 00 00 00 00 00 00 00 00 00 00 00   ................
0040  0b 00 00 82 01 00 3a 80 ec 4b 2f b9 7e            ......:..K/.~

No.     Time        Source                Destination           Protocol Info
    316 784.304663  78.0                  host                  USB      URB_CONTROL out

Frame 316: 64 bytes on wire (512 bits), 64 bytes captured (512 bits)
    Arrival Time: Dec  5, 2011 08:54:41.891142000 CET
    Epoch Time: 1323071681.891142000 seconds
    [Time delta from previous captured frame: 0.000297000 seconds]
    [Time delta from previous displayed frame: 0.000297000 seconds]
    [Time since reference or first frame: 784.304663000 seconds]
    Frame Number: 316
    Frame Length: 64 bytes (512 bits)
    Capture Length: 64 bytes (512 bits)
    [Frame is marked: False]
    [Frame is ignored: False]
    [Protocols in frame: usb]
USB URB
    URB id: 0xffff88012de5c240
    URB type: URB_COMPLETE ('C')
    URB transfer type: URB_CONTROL out (0x02)
    Endpoint: 0x00
    Device: 78
    URB bus id: 2
    Device setup request: not relevant ('-')
    Data: not present ('>')
    URB sec: 1323071681
    URB usec: 891142
    URB status: Success (0)
    URB length [bytes]: 13
    Data length [bytes]: 0
    [Request in: 315]
    [Time from request: 0.000297000 seconds]
    [bInterfaceClass: VENDOR_SPECIFIC (0xff)]

0000  40 c2 e5 2d 01 88 ff ff 43 02 00 4e 02 00 2d 3e   @..-....C..N..->
0010  c1 78 dc 4e 00 00 00 00 06 99 0d 00 00 00 00 00   .x.N............
0020  0d 00 00 00 00 00 00 00 00 00 00 00 00 00 00 00   ................
0030  00 00 00 00 00 00 00 00 00 00 00 00 00 00 00 00   ................

No.     Time        Source                Destination           Protocol Info
    317 784.308813  host                  78.0                  USB      URB_CONTROL out

Frame 317: 77 bytes on wire (616 bits), 77 bytes captured (616 bits)
    Arrival Time: Dec  5, 2011 08:54:41.895292000 CET
    Epoch Time: 1323071681.895292000 seconds
    [Time delta from previous captured frame: 0.004150000 seconds]
    [Time delta from previous displayed frame: 0.004150000 seconds]
    [Time since reference or first frame: 784.308813000 seconds]
    Frame Number: 317
    Frame Length: 77 bytes (616 bits)
    Capture Length: 77 bytes (616 bits)
    [Frame is marked: False]
    [Frame is ignored: False]
    [Protocols in frame: usb]
USB URB
    URB id: 0xffff88012de5c240
    URB type: URB_SUBMIT ('S')
    URB transfer type: URB_CONTROL out (0x02)
    Endpoint: 0x00
    Device: 78
    URB bus id: 2
    Device setup request: relevant (0)
    Data: present (0)
    URB sec: 1323071681
    URB usec: 895292
    URB status: Operation now in progress (-EINPROGRESS) (-115)
    URB length [bytes]: 13
    Data length [bytes]: 13
    [Response in: 318]
    [bInterfaceClass: VENDOR_SPECIFIC (0xff)]
    URB setup
        bmRequestType: 0x40
            0... .... = Direction: Host-to-device
            .10. .... = Type: Vendor (0x02)
            ...0 0000 = Recipient: Device (0x00)
        bRequest: 1
        wValue: 0x000b
        wIndex: 0
        wLength: 13
    Leftover Capture Data: 0b00008201003b00ec4b2fb97e

0000  40 c2 e5 2d 01 88 ff ff 53 02 00 4e 02 00 00 00   @..-....S..N....
0010  c1 78 dc 4e 00 00 00 00 3c a9 0d 00 8d ff ff ff   .x.N....<.......
0020  0d 00 00 00 0d 00 00 00 40 01 0b 00 00 00 0d 00   ........@.......
0030  00 00 00 00 00 00 00 00 00 00 00 00 00 00 00 00   ................
0040  0b 00 00 82 01 00 3b 00 ec 4b 2f b9 7e            ......;..K/.~

No.     Time        Source                Destination           Protocol Info
    318 784.308979  78.0                  host                  USB      URB_CONTROL out

Frame 318: 64 bytes on wire (512 bits), 64 bytes captured (512 bits)
    Arrival Time: Dec  5, 2011 08:54:41.895458000 CET
    Epoch Time: 1323071681.895458000 seconds
    [Time delta from previous captured frame: 0.000166000 seconds]
    [Time delta from previous displayed frame: 0.000166000 seconds]
    [Time since reference or first frame: 784.308979000 seconds]
    Frame Number: 318
    Frame Length: 64 bytes (512 bits)
    Capture Length: 64 bytes (512 bits)
    [Frame is marked: False]
    [Frame is ignored: False]
    [Protocols in frame: usb]
USB URB
    URB id: 0xffff88012de5c240
    URB type: URB_COMPLETE ('C')
    URB transfer type: URB_CONTROL out (0x02)
    Endpoint: 0x00
    Device: 78
    URB bus id: 2
    Device setup request: not relevant ('-')
    Data: not present ('>')
    URB sec: 1323071681
    URB usec: 895458
    URB status: Success (0)
    URB length [bytes]: 13
    Data length [bytes]: 0
    [Request in: 317]
    [Time from request: 0.000166000 seconds]
    [bInterfaceClass: VENDOR_SPECIFIC (0xff)]

0000  40 c2 e5 2d 01 88 ff ff 43 02 00 4e 02 00 2d 3e   @..-....C..N..->
0010  c1 78 dc 4e 00 00 00 00 e2 a9 0d 00 00 00 00 00   .x.N............
0020  0d 00 00 00 00 00 00 00 00 00 00 00 00 00 00 00   ................
0030  00 00 00 00 00 00 00 00 00 00 00 00 00 00 00 00   ................

No.     Time        Source                Destination           Protocol Info
    319 784.313172  host                  78.0                  USB      URB_CONTROL out

Frame 319: 77 bytes on wire (616 bits), 77 bytes captured (616 bits)
    Arrival Time: Dec  5, 2011 08:54:41.899651000 CET
    Epoch Time: 1323071681.899651000 seconds
    [Time delta from previous captured frame: 0.004193000 seconds]
    [Time delta from previous displayed frame: 0.004193000 seconds]
    [Time since reference or first frame: 784.313172000 seconds]
    Frame Number: 319
    Frame Length: 77 bytes (616 bits)
    Capture Length: 77 bytes (616 bits)
    [Frame is marked: False]
    [Frame is ignored: False]
    [Protocols in frame: usb]
USB URB
    URB id: 0xffff88012de5c240
    URB type: URB_SUBMIT ('S')
    URB transfer type: URB_CONTROL out (0x02)
    Endpoint: 0x00
    Device: 78
    URB bus id: 2
    Device setup request: relevant (0)
    Data: present (0)
    URB sec: 1323071681
    URB usec: 899651
    URB status: Operation now in progress (-EINPROGRESS) (-115)
    URB length [bytes]: 13
    Data length [bytes]: 13
    [Response in: 320]
    [bInterfaceClass: VENDOR_SPECIFIC (0xff)]
    URB setup
        bmRequestType: 0x40
            0... .... = Direction: Host-to-device
            .10. .... = Type: Vendor (0x02)
            ...0 0000 = Recipient: Device (0x00)
        bRequest: 1
        wValue: 0x000b
        wIndex: 0
        wLength: 13
    Leftover Capture Data: 0b00008201003401ec4b2fb97e

0000  40 c2 e5 2d 01 88 ff ff 53 02 00 4e 02 00 00 00   @..-....S..N....
0010  c1 78 dc 4e 00 00 00 00 43 ba 0d 00 8d ff ff ff   .x.N....C.......
0020  0d 00 00 00 0d 00 00 00 40 01 0b 00 00 00 0d 00   ........@.......
0030  00 00 00 00 00 00 00 00 00 00 00 00 00 00 00 00   ................
0040  0b 00 00 82 01 00 34 01 ec 4b 2f b9 7e            ......4..K/.~

No.     Time        Source                Destination           Protocol Info
    320 784.313382  78.0                  host                  USB      URB_CONTROL out

Frame 320: 64 bytes on wire (512 bits), 64 bytes captured (512 bits)
    Arrival Time: Dec  5, 2011 08:54:41.899861000 CET
    Epoch Time: 1323071681.899861000 seconds
    [Time delta from previous captured frame: 0.000210000 seconds]
    [Time delta from previous displayed frame: 0.000210000 seconds]
    [Time since reference or first frame: 784.313382000 seconds]
    Frame Number: 320
    Frame Length: 64 bytes (512 bits)
    Capture Length: 64 bytes (512 bits)
    [Frame is marked: False]
    [Frame is ignored: False]
    [Protocols in frame: usb]
USB URB
    URB id: 0xffff88012de5c240
    URB type: URB_COMPLETE ('C')
    URB transfer type: URB_CONTROL out (0x02)
    Endpoint: 0x00
    Device: 78
    URB bus id: 2
    Device setup request: not relevant ('-')
    Data: not present ('>')
    URB sec: 1323071681
    URB usec: 899861
    URB status: Success (0)
    URB length [bytes]: 13
    Data length [bytes]: 0
    [Request in: 319]
    [Time from request: 0.000210000 seconds]
    [bInterfaceClass: VENDOR_SPECIFIC (0xff)]

0000  40 c2 e5 2d 01 88 ff ff 43 02 00 4e 02 00 2d 3e   @..-....C..N..->
0010  c1 78 dc 4e 00 00 00 00 15 bb 0d 00 00 00 00 00   .x.N............
0020  0d 00 00 00 00 00 00 00 00 00 00 00 00 00 00 00   ................
0030  00 00 00 00 00 00 00 00 00 00 00 00 00 00 00 00   ................

No.     Time        Source                Destination           Protocol Info
    321 784.317501  host                  78.0                  USB      URB_CONTROL out

Frame 321: 77 bytes on wire (616 bits), 77 bytes captured (616 bits)
    Arrival Time: Dec  5, 2011 08:54:41.903980000 CET
    Epoch Time: 1323071681.903980000 seconds
    [Time delta from previous captured frame: 0.004119000 seconds]
    [Time delta from previous displayed frame: 0.004119000 seconds]
    [Time since reference or first frame: 784.317501000 seconds]
    Frame Number: 321
    Frame Length: 77 bytes (616 bits)
    Capture Length: 77 bytes (616 bits)
    [Frame is marked: False]
    [Frame is ignored: False]
    [Protocols in frame: usb]
USB URB
    URB id: 0xffff88012f7ce6c0
    URB type: URB_SUBMIT ('S')
    URB transfer type: URB_CONTROL out (0x02)
    Endpoint: 0x00
    Device: 78
    URB bus id: 2
    Device setup request: relevant (0)
    Data: present (0)
    URB sec: 1323071681
    URB usec: 903980
    URB status: Operation now in progress (-EINPROGRESS) (-115)
    URB length [bytes]: 13
    Data length [bytes]: 13
    [Response in: 322]
    [bInterfaceClass: VENDOR_SPECIFIC (0xff)]
    URB setup
        bmRequestType: 0x40
            0... .... = Direction: Host-to-device
            .10. .... = Type: Vendor (0x02)
            ...0 0000 = Recipient: Device (0x00)
        bRequest: 1
        wValue: 0x000b
        wIndex: 0
        wLength: 13
    Leftover Capture Data: 0b00008201003500ec4b2fb97e

0000  c0 e6 7c 2f 01 88 ff ff 53 02 00 4e 02 00 00 00   ..|/....S..N....
0010  c1 78 dc 4e 00 00 00 00 2c cb 0d 00 8d ff ff ff   .x.N....,.......
0020  0d 00 00 00 0d 00 00 00 40 01 0b 00 00 00 0d 00   ........@.......
0030  00 00 00 00 00 00 00 00 00 00 00 00 00 00 00 00   ................
0040  0b 00 00 82 01 00 35 00 ec 4b 2f b9 7e            ......5..K/.~

No.     Time        Source                Destination           Protocol Info
    322 784.317688  78.0                  host                  USB      URB_CONTROL out

Frame 322: 64 bytes on wire (512 bits), 64 bytes captured (512 bits)
    Arrival Time: Dec  5, 2011 08:54:41.904167000 CET
    Epoch Time: 1323071681.904167000 seconds
    [Time delta from previous captured frame: 0.000187000 seconds]
    [Time delta from previous displayed frame: 0.000187000 seconds]
    [Time since reference or first frame: 784.317688000 seconds]
    Frame Number: 322
    Frame Length: 64 bytes (512 bits)
    Capture Length: 64 bytes (512 bits)
    [Frame is marked: False]
    [Frame is ignored: False]
    [Protocols in frame: usb]
USB URB
    URB id: 0xffff88012f7ce6c0
    URB type: URB_COMPLETE ('C')
    URB transfer type: URB_CONTROL out (0x02)
    Endpoint: 0x00
    Device: 78
    URB bus id: 2
    Device setup request: not relevant ('-')
    Data: not present ('>')
    URB sec: 1323071681
    URB usec: 904167
    URB status: Success (0)
    URB length [bytes]: 13
    Data length [bytes]: 0
    [Request in: 321]
    [Time from request: 0.000187000 seconds]
    [bInterfaceClass: VENDOR_SPECIFIC (0xff)]

0000  c0 e6 7c 2f 01 88 ff ff 43 02 00 4e 02 00 2d 3e   ..|/....C..N..->
0010  c1 78 dc 4e 00 00 00 00 e7 cb 0d 00 00 00 00 00   .x.N............
0020  0d 00 00 00 00 00 00 00 00 00 00 00 00 00 00 00   ................
0030  00 00 00 00 00 00 00 00 00 00 00 00 00 00 00 00   ................

No.     Time        Source                Destination           Protocol Info
    323 784.737725  host                  78.0                  USB      URB_CONTROL out

Frame 323: 77 bytes on wire (616 bits), 77 bytes captured (616 bits)
    Arrival Time: Dec  5, 2011 08:54:42.324204000 CET
    Epoch Time: 1323071682.324204000 seconds
    [Time delta from previous captured frame: 0.420037000 seconds]
    [Time delta from previous displayed frame: 0.420037000 seconds]
    [Time since reference or first frame: 784.737725000 seconds]
    Frame Number: 323
    Frame Length: 77 bytes (616 bits)
    Capture Length: 77 bytes (616 bits)
    [Frame is marked: False]
    [Frame is ignored: False]
    [Protocols in frame: usb]
USB URB
    URB id: 0xffff88012f7ce6c0
    URB type: URB_SUBMIT ('S')
    URB transfer type: URB_CONTROL out (0x02)
    Endpoint: 0x00
    Device: 78
    URB bus id: 2
    Device setup request: relevant (0)
    Data: present (0)
    URB sec: 1323071682
    URB usec: 324204
    URB status: Operation now in progress (-EINPROGRESS) (-115)
    URB length [bytes]: 13
    Data length [bytes]: 13
    [Response in: 324]
    [bInterfaceClass: VENDOR_SPECIFIC (0xff)]
    URB setup
        bmRequestType: 0x40
            0... .... = Direction: Host-to-device
            .10. .... = Type: Vendor (0x02)
            ...0 0000 = Recipient: Device (0x00)
        bRequest: 1
        wValue: 0x000b
        wIndex: 0
        wLength: 13
    Leftover Capture Data: 0b0020820130808924ad548000

0000  c0 e6 7c 2f 01 88 ff ff 53 02 00 4e 02 00 00 00   ..|/....S..N....
0010  c2 78 dc 4e 00 00 00 00 6c f2 04 00 8d ff ff ff   .x.N....l.......
0020  0d 00 00 00 0d 00 00 00 40 01 0b 00 00 00 0d 00   ........@.......
0030  00 00 00 00 00 00 00 00 00 00 00 00 00 00 00 00   ................
0040  0b 00 20 82 01 30 80 89 24 ad 54 80 00            .. ..0..$.T..

No.     Time        Source                Destination           Protocol Info
    324 784.737809  78.0                  host                  USB      URB_CONTROL out

Frame 324: 64 bytes on wire (512 bits), 64 bytes captured (512 bits)
    Arrival Time: Dec  5, 2011 08:54:42.324288000 CET
    Epoch Time: 1323071682.324288000 seconds
    [Time delta from previous captured frame: 0.000084000 seconds]
    [Time delta from previous displayed frame: 0.000084000 seconds]
    [Time since reference or first frame: 784.737809000 seconds]
    Frame Number: 324
    Frame Length: 64 bytes (512 bits)
    Capture Length: 64 bytes (512 bits)
    [Frame is marked: False]
    [Frame is ignored: False]
    [Protocols in frame: usb]
USB URB
    URB id: 0xffff88012f7ce6c0
    URB type: URB_COMPLETE ('C')
    URB transfer type: URB_CONTROL out (0x02)
    Endpoint: 0x00
    Device: 78
    URB bus id: 2
    Device setup request: not relevant ('-')
    Data: not present ('>')
    URB sec: 1323071682
    URB usec: 324288
    URB status: Success (0)
    URB length [bytes]: 13
    Data length [bytes]: 0
    [Request in: 323]
    [Time from request: 0.000084000 seconds]
    [bInterfaceClass: VENDOR_SPECIFIC (0xff)]

0000  c0 e6 7c 2f 01 88 ff ff 43 02 00 4e 02 00 2d 3e   ..|/....C..N..->
0010  c2 78 dc 4e 00 00 00 00 c0 f2 04 00 00 00 00 00   .x.N............
0020  0d 00 00 00 00 00 00 00 00 00 00 00 00 00 00 00   ................
0030  00 00 00 00 00 00 00 00 00 00 00 00 00 00 00 00   ................

No.     Time        Source                Destination           Protocol Info
    325 784.742168  host                  78.0                  USB      URB_CONTROL out

Frame 325: 64 bytes on wire (512 bits), 64 bytes captured (512 bits)
    Arrival Time: Dec  5, 2011 08:54:42.328647000 CET
    Epoch Time: 1323071682.328647000 seconds
    [Time delta from previous captured frame: 0.004359000 seconds]
    [Time delta from previous displayed frame: 0.004359000 seconds]
    [Time since reference or first frame: 784.742168000 seconds]
    Frame Number: 325
    Frame Length: 64 bytes (512 bits)
    Capture Length: 64 bytes (512 bits)
    [Frame is marked: False]
    [Frame is ignored: False]
    [Protocols in frame: usb]
USB URB
    URB id: 0xffff88012746b080
    URB type: URB_SUBMIT ('S')
    URB transfer type: URB_CONTROL out (0x02)
    Endpoint: 0x80
    Device: 78
    URB bus id: 2
    Device setup request: relevant (0)
    Data: not present ('<')
    URB sec: 1323071682
    URB usec: 328647
    URB status: Operation now in progress (-EINPROGRESS) (-115)
    URB length [bytes]: 13
    Data length [bytes]: 0
    [Response in: 326]
    [bInterfaceClass: VENDOR_SPECIFIC (0xff)]
    URB setup
        bmRequestType: 0xc0
            1... .... = Direction: Device-to-host
            .10. .... = Type: Vendor (0x02)
            ...0 0000 = Recipient: Device (0x00)
        bRequest: 1
        wValue: 0x000b
        wIndex: 0
        wLength: 13

0000  80 b0 46 27 01 88 ff ff 53 02 80 4e 02 00 00 3c   ..F'....S..N...<
0010  c2 78 dc 4e 00 00 00 00 c7 03 05 00 8d ff ff ff   .x.N............
0020  0d 00 00 00 00 00 00 00 c0 01 0b 00 00 00 0d 00   ................
0030  00 00 00 00 00 00 00 00 00 02 00 00 00 00 00 00   ................

No.     Time        Source                Destination           Protocol Info
    326 784.742327  78.0                  host                  USB      URB_CONTROL out

Frame 326: 77 bytes on wire (616 bits), 77 bytes captured (616 bits)
    Arrival Time: Dec  5, 2011 08:54:42.328806000 CET
    Epoch Time: 1323071682.328806000 seconds
    [Time delta from previous captured frame: 0.000159000 seconds]
    [Time delta from previous displayed frame: 0.000159000 seconds]
    [Time since reference or first frame: 784.742327000 seconds]
    Frame Number: 326
    Frame Length: 77 bytes (616 bits)
    Capture Length: 77 bytes (616 bits)
    [Frame is marked: False]
    [Frame is ignored: False]
    [Protocols in frame: usb]
USB URB
    URB id: 0xffff88012746b080
    URB type: URB_COMPLETE ('C')
    URB transfer type: URB_CONTROL out (0x02)
    Endpoint: 0x80
    Device: 78
    URB bus id: 2
    Device setup request: not relevant ('-')
    Data: present (0)
    URB sec: 1323071682
    URB usec: 328806
    URB status: Success (0)
    URB length [bytes]: 13
    Data length [bytes]: 13
    [Request in: 325]
    [Time from request: 0.000159000 seconds]
    [bInterfaceClass: VENDOR_SPECIFIC (0xff)]
    CONTROL response data

0000  80 b0 46 27 01 88 ff ff 43 02 80 4e 02 00 2d 00   ..F'....C..N..-.
0010  c2 78 dc 4e 00 00 00 00 66 04 05 00 00 00 00 00   .x.N....f.......
0020  0d 00 00 00 0d 00 00 00 00 00 00 00 00 00 00 00   ................
0030  00 00 00 00 00 00 00 00 00 02 00 00 00 00 00 00   ................
0040  0b 00 20 82 01 30 80 80 24 ad 54 80 00            .. ..0..$.T..

No.     Time        Source                Destination           Protocol Info
    327 784.746589  host                  78.0                  USB      URB_CONTROL out

Frame 327: 77 bytes on wire (616 bits), 77 bytes captured (616 bits)
    Arrival Time: Dec  5, 2011 08:54:42.333068000 CET
    Epoch Time: 1323071682.333068000 seconds
    [Time delta from previous captured frame: 0.004262000 seconds]
    [Time delta from previous displayed frame: 0.004262000 seconds]
    [Time since reference or first frame: 784.746589000 seconds]
    Frame Number: 327
    Frame Length: 77 bytes (616 bits)
    Capture Length: 77 bytes (616 bits)
    [Frame is marked: False]
    [Frame is ignored: False]
    [Protocols in frame: usb]
USB URB
    URB id: 0xffff88012746b080
    URB type: URB_SUBMIT ('S')
    URB transfer type: URB_CONTROL out (0x02)
    Endpoint: 0x00
    Device: 78
    URB bus id: 2
    Device setup request: relevant (0)
    Data: present (0)
    URB sec: 1323071682
    URB usec: 333068
    URB status: Operation now in progress (-EINPROGRESS) (-115)
    URB length [bytes]: 13
    Data length [bytes]: 13
    [Response in: 328]
    [bInterfaceClass: VENDOR_SPECIFIC (0xff)]
    URB setup
        bmRequestType: 0x40
            0... .... = Direction: Host-to-device
            .10. .... = Type: Vendor (0x02)
            ...0 0000 = Recipient: Device (0x00)
        bRequest: 1
        wValue: 0x000b
        wIndex: 0
        wLength: 13
    Leftover Capture Data: 0b00008201003411eb919cb847

0000  80 b0 46 27 01 88 ff ff 53 02 00 4e 02 00 00 00   ..F'....S..N....
0010  c2 78 dc 4e 00 00 00 00 0c 15 05 00 8d ff ff ff   .x.N............
0020  0d 00 00 00 0d 00 00 00 40 01 0b 00 00 00 0d 00   ........@.......
0030  00 00 00 00 00 00 00 00 00 00 00 00 00 00 00 00   ................
0040  0b 00 00 82 01 00 34 11 eb 91 9c b8 47            ......4.....G

No.     Time        Source                Destination           Protocol Info
    328 784.746703  78.0                  host                  USB      URB_CONTROL out

Frame 328: 64 bytes on wire (512 bits), 64 bytes captured (512 bits)
    Arrival Time: Dec  5, 2011 08:54:42.333182000 CET
    Epoch Time: 1323071682.333182000 seconds
    [Time delta from previous captured frame: 0.000114000 seconds]
    [Time delta from previous displayed frame: 0.000114000 seconds]
    [Time since reference or first frame: 784.746703000 seconds]
    Frame Number: 328
    Frame Length: 64 bytes (512 bits)
    Capture Length: 64 bytes (512 bits)
    [Frame is marked: False]
    [Frame is ignored: False]
    [Protocols in frame: usb]
USB URB
    URB id: 0xffff88012746b080
    URB type: URB_COMPLETE ('C')
    URB transfer type: URB_CONTROL out (0x02)
    Endpoint: 0x00
    Device: 78
    URB bus id: 2
    Device setup request: not relevant ('-')
    Data: not present ('>')
    URB sec: 1323071682
    URB usec: 333182
    URB status: Success (0)
    URB length [bytes]: 13
    Data length [bytes]: 0
    [Request in: 327]
    [Time from request: 0.000114000 seconds]
    [bInterfaceClass: VENDOR_SPECIFIC (0xff)]

0000  80 b0 46 27 01 88 ff ff 43 02 00 4e 02 00 2d 3e   ..F'....C..N..->
0010  c2 78 dc 4e 00 00 00 00 7e 15 05 00 00 00 00 00   .x.N....~.......
0020  0d 00 00 00 00 00 00 00 00 00 00 00 00 00 00 00   ................
0030  00 00 00 00 00 00 00 00 00 00 00 00 00 00 00 00   ................

No.     Time        Source                Destination           Protocol Info
    329 784.750862  host                  78.0                  USB      URB_CONTROL out

Frame 329: 77 bytes on wire (616 bits), 77 bytes captured (616 bits)
    Arrival Time: Dec  5, 2011 08:54:42.337341000 CET
    Epoch Time: 1323071682.337341000 seconds
    [Time delta from previous captured frame: 0.004159000 seconds]
    [Time delta from previous displayed frame: 0.004159000 seconds]
    [Time since reference or first frame: 784.750862000 seconds]
    Frame Number: 329
    Frame Length: 77 bytes (616 bits)
    Capture Length: 77 bytes (616 bits)
    [Frame is marked: False]
    [Frame is ignored: False]
    [Protocols in frame: usb]
USB URB
    URB id: 0xffff88012de5c240
    URB type: URB_SUBMIT ('S')
    URB transfer type: URB_CONTROL out (0x02)
    Endpoint: 0x00
    Device: 78
    URB bus id: 2
    Device setup request: relevant (0)
    Data: present (0)
    URB sec: 1323071682
    URB usec: 337341
    URB status: Operation now in progress (-EINPROGRESS) (-115)
    URB length [bytes]: 13
    Data length [bytes]: 13
    [Response in: 330]
    [bInterfaceClass: VENDOR_SPECIFIC (0xff)]
    URB setup
        bmRequestType: 0x40
            0... .... = Direction: Host-to-device
            .10. .... = Type: Vendor (0x02)
            ...0 0000 = Recipient: Device (0x00)
        bRequest: 1
        wValue: 0x000b
        wIndex: 0
        wLength: 13
    Leftover Capture Data: 0b00008201003511eb919cb847

0000  40 c2 e5 2d 01 88 ff ff 53 02 00 4e 02 00 00 00   @..-....S..N....
0010  c2 78 dc 4e 00 00 00 00 bd 25 05 00 8d ff ff ff   .x.N.....%......
0020  0d 00 00 00 0d 00 00 00 40 01 0b 00 00 00 0d 00   ........@.......
0030  00 00 00 00 00 00 00 00 00 00 00 00 00 00 00 00   ................
0040  0b 00 00 82 01 00 35 11 eb 91 9c b8 47            ......5.....G

No.     Time        Source                Destination           Protocol Info
    330 784.751099  78.0                  host                  USB      URB_CONTROL out

Frame 330: 64 bytes on wire (512 bits), 64 bytes captured (512 bits)
    Arrival Time: Dec  5, 2011 08:54:42.337578000 CET
    Epoch Time: 1323071682.337578000 seconds
    [Time delta from previous captured frame: 0.000237000 seconds]
    [Time delta from previous displayed frame: 0.000237000 seconds]
    [Time since reference or first frame: 784.751099000 seconds]
    Frame Number: 330
    Frame Length: 64 bytes (512 bits)
    Capture Length: 64 bytes (512 bits)
    [Frame is marked: False]
    [Frame is ignored: False]
    [Protocols in frame: usb]
USB URB
    URB id: 0xffff88012de5c240
    URB type: URB_COMPLETE ('C')
    URB transfer type: URB_CONTROL out (0x02)
    Endpoint: 0x00
    Device: 78
    URB bus id: 2
    Device setup request: not relevant ('-')
    Data: not present ('>')
    URB sec: 1323071682
    URB usec: 337578
    URB status: Success (0)
    URB length [bytes]: 13
    Data length [bytes]: 0
    [Request in: 329]
    [Time from request: 0.000237000 seconds]
    [bInterfaceClass: VENDOR_SPECIFIC (0xff)]

0000  40 c2 e5 2d 01 88 ff ff 43 02 00 4e 02 00 2d 3e   @..-....C..N..->
0010  c2 78 dc 4e 00 00 00 00 aa 26 05 00 00 00 00 00   .x.N.....&......
0020  0d 00 00 00 00 00 00 00 00 00 00 00 00 00 00 00   ................
0030  00 00 00 00 00 00 00 00 00 00 00 00 00 00 00 00   ................

No.     Time        Source                Destination           Protocol Info
    331 784.759704  host                  78.0                  USB      URB_CONTROL out

Frame 331: 77 bytes on wire (616 bits), 77 bytes captured (616 bits)
    Arrival Time: Dec  5, 2011 08:54:42.346183000 CET
    Epoch Time: 1323071682.346183000 seconds
    [Time delta from previous captured frame: 0.008605000 seconds]
    [Time delta from previous displayed frame: 0.008605000 seconds]
    [Time since reference or first frame: 784.759704000 seconds]
    Frame Number: 331
    Frame Length: 77 bytes (616 bits)
    Capture Length: 77 bytes (616 bits)
    [Frame is marked: False]
    [Frame is ignored: False]
    [Protocols in frame: usb]
USB URB
    URB id: 0xffff88012de5c240
    URB type: URB_SUBMIT ('S')
    URB transfer type: URB_CONTROL out (0x02)
    Endpoint: 0x00
    Device: 78
    URB bus id: 2
    Device setup request: relevant (0)
    Data: present (0)
    URB sec: 1323071682
    URB usec: 346183
    URB status: Operation now in progress (-EINPROGRESS) (-115)
    URB length [bytes]: 13
    Data length [bytes]: 13
    [Response in: 332]
    [bInterfaceClass: VENDOR_SPECIFIC (0xff)]
    URB setup
        bmRequestType: 0x40
            0... .... = Direction: Host-to-device
            .10. .... = Type: Vendor (0x02)
            ...0 0000 = Recipient: Device (0x00)
        bRequest: 1
        wValue: 0x000b
        wIndex: 0
        wLength: 13
    Leftover Capture Data: 0b00008201003a8022446e8008

0000  40 c2 e5 2d 01 88 ff ff 53 02 00 4e 02 00 00 00   @..-....S..N....
0010  c2 78 dc 4e 00 00 00 00 47 48 05 00 8d ff ff ff   .x.N....GH......
0020  0d 00 00 00 0d 00 00 00 40 01 0b 00 00 00 0d 00   ........@.......
0030  00 00 00 00 00 00 00 00 00 00 00 00 00 00 00 00   ................
0040  0b 00 00 82 01 00 3a 80 22 44 6e 80 08            ......:."Dn..

No.     Time        Source                Destination           Protocol Info
    332 784.759852  78.0                  host                  USB      URB_CONTROL out

Frame 332: 64 bytes on wire (512 bits), 64 bytes captured (512 bits)
    Arrival Time: Dec  5, 2011 08:54:42.346331000 CET
    Epoch Time: 1323071682.346331000 seconds
    [Time delta from previous captured frame: 0.000148000 seconds]
    [Time delta from previous displayed frame: 0.000148000 seconds]
    [Time since reference or first frame: 784.759852000 seconds]
    Frame Number: 332
    Frame Length: 64 bytes (512 bits)
    Capture Length: 64 bytes (512 bits)
    [Frame is marked: False]
    [Frame is ignored: False]
    [Protocols in frame: usb]
USB URB
    URB id: 0xffff88012de5c240
    URB type: URB_COMPLETE ('C')
    URB transfer type: URB_CONTROL out (0x02)
    Endpoint: 0x00
    Device: 78
    URB bus id: 2
    Device setup request: not relevant ('-')
    Data: not present ('>')
    URB sec: 1323071682
    URB usec: 346331
    URB status: Success (0)
    URB length [bytes]: 13
    Data length [bytes]: 0
    [Request in: 331]
    [Time from request: 0.000148000 seconds]
    [bInterfaceClass: VENDOR_SPECIFIC (0xff)]

0000  40 c2 e5 2d 01 88 ff ff 43 02 00 4e 02 00 2d 3e   @..-....C..N..->
0010  c2 78 dc 4e 00 00 00 00 db 48 05 00 00 00 00 00   .x.N.....H......
0020  0d 00 00 00 00 00 00 00 00 00 00 00 00 00 00 00   ................
0030  00 00 00 00 00 00 00 00 00 00 00 00 00 00 00 00   ................

No.     Time        Source                Destination           Protocol Info
    333 784.764041  host                  78.0                  USB      URB_CONTROL out

Frame 333: 77 bytes on wire (616 bits), 77 bytes captured (616 bits)
    Arrival Time: Dec  5, 2011 08:54:42.350520000 CET
    Epoch Time: 1323071682.350520000 seconds
    [Time delta from previous captured frame: 0.004189000 seconds]
    [Time delta from previous displayed frame: 0.004189000 seconds]
    [Time since reference or first frame: 784.764041000 seconds]
    Frame Number: 333
    Frame Length: 77 bytes (616 bits)
    Capture Length: 77 bytes (616 bits)
    [Frame is marked: False]
    [Frame is ignored: False]
    [Protocols in frame: usb]
USB URB
    URB id: 0xffff88012de5c240
    URB type: URB_SUBMIT ('S')
    URB transfer type: URB_CONTROL out (0x02)
    Endpoint: 0x00
    Device: 78
    URB bus id: 2
    Device setup request: relevant (0)
    Data: present (0)
    URB sec: 1323071682
    URB usec: 350520
    URB status: Operation now in progress (-EINPROGRESS) (-115)
    URB length [bytes]: 13
    Data length [bytes]: 13
    [Response in: 334]
    [bInterfaceClass: VENDOR_SPECIFIC (0xff)]
    URB setup
        bmRequestType: 0x40
            0... .... = Direction: Host-to-device
            .10. .... = Type: Vendor (0x02)
            ...0 0000 = Recipient: Device (0x00)
        bRequest: 1
        wValue: 0x000b
        wIndex: 0
        wLength: 13
    Leftover Capture Data: 0b00008201003b8022446e8008

0000  40 c2 e5 2d 01 88 ff ff 53 02 00 4e 02 00 00 00   @..-....S..N....
0010  c2 78 dc 4e 00 00 00 00 38 59 05 00 8d ff ff ff   .x.N....8Y......
0020  0d 00 00 00 0d 00 00 00 40 01 0b 00 00 00 0d 00   ........@.......
0030  00 00 00 00 00 00 00 00 00 00 00 00 00 00 00 00   ................
0040  0b 00 00 82 01 00 3b 80 22 44 6e 80 08            ......;."Dn..

No.     Time        Source                Destination           Protocol Info
    334 784.764234  78.0                  host                  USB      URB_CONTROL out

Frame 334: 64 bytes on wire (512 bits), 64 bytes captured (512 bits)
    Arrival Time: Dec  5, 2011 08:54:42.350713000 CET
    Epoch Time: 1323071682.350713000 seconds
    [Time delta from previous captured frame: 0.000193000 seconds]
    [Time delta from previous displayed frame: 0.000193000 seconds]
    [Time since reference or first frame: 784.764234000 seconds]
    Frame Number: 334
    Frame Length: 64 bytes (512 bits)
    Capture Length: 64 bytes (512 bits)
    [Frame is marked: False]
    [Frame is ignored: False]
    [Protocols in frame: usb]
USB URB
    URB id: 0xffff88012de5c240
    URB type: URB_COMPLETE ('C')
    URB transfer type: URB_CONTROL out (0x02)
    Endpoint: 0x00
    Device: 78
    URB bus id: 2
    Device setup request: not relevant ('-')
    Data: not present ('>')
    URB sec: 1323071682
    URB usec: 350713
    URB status: Success (0)
    URB length [bytes]: 13
    Data length [bytes]: 0
    [Request in: 333]
    [Time from request: 0.000193000 seconds]
    [bInterfaceClass: VENDOR_SPECIFIC (0xff)]

0000  40 c2 e5 2d 01 88 ff ff 43 02 00 4e 02 00 2d 3e   @..-....C..N..->
0010  c2 78 dc 4e 00 00 00 00 f9 59 05 00 00 00 00 00   .x.N.....Y......
0020  0d 00 00 00 00 00 00 00 00 00 00 00 00 00 00 00   ................
0030  00 00 00 00 00 00 00 00 00 00 00 00 00 00 00 00   ................

No.     Time        Source                Destination           Protocol Info
    335 784.868862  host                  78.0                  USB      URB_CONTROL out

Frame 335: 77 bytes on wire (616 bits), 77 bytes captured (616 bits)
    Arrival Time: Dec  5, 2011 08:54:42.455341000 CET
    Epoch Time: 1323071682.455341000 seconds
    [Time delta from previous captured frame: 0.104628000 seconds]
    [Time delta from previous displayed frame: 0.104628000 seconds]
    [Time since reference or first frame: 784.868862000 seconds]
    Frame Number: 335
    Frame Length: 77 bytes (616 bits)
    Capture Length: 77 bytes (616 bits)
    [Frame is marked: False]
    [Frame is ignored: False]
    [Protocols in frame: usb]
USB URB
    URB id: 0xffff88012de5c240
    URB type: URB_SUBMIT ('S')
    URB transfer type: URB_CONTROL out (0x02)
    Endpoint: 0x00
    Device: 78
    URB bus id: 2
    Device setup request: relevant (0)
    Data: present (0)
    URB sec: 1323071682
    URB usec: 455341
    URB status: Operation now in progress (-EINPROGRESS) (-115)
    URB length [bytes]: 13
    Data length [bytes]: 13
    [Response in: 336]
    [bInterfaceClass: VENDOR_SPECIFIC (0xff)]
    URB setup
        bmRequestType: 0x40
            0... .... = Direction: Host-to-device
            .10. .... = Type: Vendor (0x02)
            ...0 0000 = Recipient: Device (0x00)
        bRequest: 1
        wValue: 0x000b
        wIndex: 0
        wLength: 13
    Leftover Capture Data: 0b00008201003a8022446e8008

0000  40 c2 e5 2d 01 88 ff ff 53 02 00 4e 02 00 00 00   @..-....S..N....
0010  c2 78 dc 4e 00 00 00 00 ad f2 06 00 8d ff ff ff   .x.N............
0020  0d 00 00 00 0d 00 00 00 40 01 0b 00 00 00 0d 00   ........@.......
0030  00 00 00 00 00 00 00 00 00 00 00 00 00 00 00 00   ................
0040  0b 00 00 82 01 00 3a 80 22 44 6e 80 08            ......:."Dn..

No.     Time        Source                Destination           Protocol Info
    336 784.869076  78.0                  host                  USB      URB_CONTROL out

Frame 336: 64 bytes on wire (512 bits), 64 bytes captured (512 bits)
    Arrival Time: Dec  5, 2011 08:54:42.455555000 CET
    Epoch Time: 1323071682.455555000 seconds
    [Time delta from previous captured frame: 0.000214000 seconds]
    [Time delta from previous displayed frame: 0.000214000 seconds]
    [Time since reference or first frame: 784.869076000 seconds]
    Frame Number: 336
    Frame Length: 64 bytes (512 bits)
    Capture Length: 64 bytes (512 bits)
    [Frame is marked: False]
    [Frame is ignored: False]
    [Protocols in frame: usb]
USB URB
    URB id: 0xffff88012de5c240
    URB type: URB_COMPLETE ('C')
    URB transfer type: URB_CONTROL out (0x02)
    Endpoint: 0x00
    Device: 78
    URB bus id: 2
    Device setup request: not relevant ('-')
    Data: not present ('>')
    URB sec: 1323071682
    URB usec: 455555
    URB status: Success (0)
    URB length [bytes]: 13
    Data length [bytes]: 0
    [Request in: 335]
    [Time from request: 0.000214000 seconds]
    [bInterfaceClass: VENDOR_SPECIFIC (0xff)]

0000  40 c2 e5 2d 01 88 ff ff 43 02 00 4e 02 00 2d 3e   @..-....C..N..->
0010  c2 78 dc 4e 00 00 00 00 83 f3 06 00 00 00 00 00   .x.N............
0020  0d 00 00 00 00 00 00 00 00 00 00 00 00 00 00 00   ................
0030  00 00 00 00 00 00 00 00 00 00 00 00 00 00 00 00   ................

No.     Time        Source                Destination           Protocol Info
    337 784.873234  host                  78.0                  USB      URB_CONTROL out

Frame 337: 77 bytes on wire (616 bits), 77 bytes captured (616 bits)
    Arrival Time: Dec  5, 2011 08:54:42.459713000 CET
    Epoch Time: 1323071682.459713000 seconds
    [Time delta from previous captured frame: 0.004158000 seconds]
    [Time delta from previous displayed frame: 0.004158000 seconds]
    [Time since reference or first frame: 784.873234000 seconds]
    Frame Number: 337
    Frame Length: 77 bytes (616 bits)
    Capture Length: 77 bytes (616 bits)
    [Frame is marked: False]
    [Frame is ignored: False]
    [Protocols in frame: usb]
USB URB
    URB id: 0xffff88012de5c240
    URB type: URB_SUBMIT ('S')
    URB transfer type: URB_CONTROL out (0x02)
    Endpoint: 0x00
    Device: 78
    URB bus id: 2
    Device setup request: relevant (0)
    Data: present (0)
    URB sec: 1323071682
    URB usec: 459713
    URB status: Operation now in progress (-EINPROGRESS) (-115)
    URB length [bytes]: 13
    Data length [bytes]: 13
    [Response in: 338]
    [bInterfaceClass: VENDOR_SPECIFIC (0xff)]
    URB setup
        bmRequestType: 0x40
            0... .... = Direction: Host-to-device
            .10. .... = Type: Vendor (0x02)
            ...0 0000 = Recipient: Device (0x00)
        bRequest: 1
        wValue: 0x000b
        wIndex: 0
        wLength: 13
    Leftover Capture Data: 0b00008201003b0022446e8008

0000  40 c2 e5 2d 01 88 ff ff 53 02 00 4e 02 00 00 00   @..-....S..N....
0010  c2 78 dc 4e 00 00 00 00 c1 03 07 00 8d ff ff ff   .x.N............
0020  0d 00 00 00 0d 00 00 00 40 01 0b 00 00 00 0d 00   ........@.......
0030  00 00 00 00 00 00 00 00 00 00 00 00 00 00 00 00   ................
0040  0b 00 00 82 01 00 3b 00 22 44 6e 80 08            ......;."Dn..

No.     Time        Source                Destination           Protocol Info
    338 784.873454  78.0                  host                  USB      URB_CONTROL out

Frame 338: 64 bytes on wire (512 bits), 64 bytes captured (512 bits)
    Arrival Time: Dec  5, 2011 08:54:42.459933000 CET
    Epoch Time: 1323071682.459933000 seconds
    [Time delta from previous captured frame: 0.000220000 seconds]
    [Time delta from previous displayed frame: 0.000220000 seconds]
    [Time since reference or first frame: 784.873454000 seconds]
    Frame Number: 338
    Frame Length: 64 bytes (512 bits)
    Capture Length: 64 bytes (512 bits)
    [Frame is marked: False]
    [Frame is ignored: False]
    [Protocols in frame: usb]
USB URB
    URB id: 0xffff88012de5c240
    URB type: URB_COMPLETE ('C')
    URB transfer type: URB_CONTROL out (0x02)
    Endpoint: 0x00
    Device: 78
    URB bus id: 2
    Device setup request: not relevant ('-')
    Data: not present ('>')
    URB sec: 1323071682
    URB usec: 459933
    URB status: Success (0)
    URB length [bytes]: 13
    Data length [bytes]: 0
    [Request in: 337]
    [Time from request: 0.000220000 seconds]
    [bInterfaceClass: VENDOR_SPECIFIC (0xff)]

0000  40 c2 e5 2d 01 88 ff ff 43 02 00 4e 02 00 2d 3e   @..-....C..N..->
0010  c2 78 dc 4e 00 00 00 00 9d 04 07 00 00 00 00 00   .x.N............
0020  0d 00 00 00 00 00 00 00 00 00 00 00 00 00 00 00   ................
0030  00 00 00 00 00 00 00 00 00 00 00 00 00 00 00 00   ................

No.     Time        Source                Destination           Protocol Info
    339 784.890805  host                  78.0                  USB      URB_CONTROL out

Frame 339: 77 bytes on wire (616 bits), 77 bytes captured (616 bits)
    Arrival Time: Dec  5, 2011 08:54:42.477284000 CET
    Epoch Time: 1323071682.477284000 seconds
    [Time delta from previous captured frame: 0.017351000 seconds]
    [Time delta from previous displayed frame: 0.017351000 seconds]
    [Time since reference or first frame: 784.890805000 seconds]
    Frame Number: 339
    Frame Length: 77 bytes (616 bits)
    Capture Length: 77 bytes (616 bits)
    [Frame is marked: False]
    [Frame is ignored: False]
    [Protocols in frame: usb]
USB URB
    URB id: 0xffff88012de5c240
    URB type: URB_SUBMIT ('S')
    URB transfer type: URB_CONTROL out (0x02)
    Endpoint: 0x00
    Device: 78
    URB bus id: 2
    Device setup request: relevant (0)
    Data: present (0)
    URB sec: 1323071682
    URB usec: 477284
    URB status: Operation now in progress (-EINPROGRESS) (-115)
    URB length [bytes]: 13
    Data length [bytes]: 13
    [Response in: 340]
    [bInterfaceClass: VENDOR_SPECIFIC (0xff)]
    URB setup
        bmRequestType: 0x40
            0... .... = Direction: Host-to-device
            .10. .... = Type: Vendor (0x02)
            ...0 0000 = Recipient: Device (0x00)
        bRequest: 1
        wValue: 0x000b
        wIndex: 0
        wLength: 13
    Leftover Capture Data: 0b00008201174000000000005c

0000  40 c2 e5 2d 01 88 ff ff 53 02 00 4e 02 00 00 00   @..-....S..N....
0010  c2 78 dc 4e 00 00 00 00 64 48 07 00 8d ff ff ff   .x.N....dH......
0020  0d 00 00 00 0d 00 00 00 40 01 0b 00 00 00 0d 00   ........@.......
0030  00 00 00 00 00 00 00 00 00 00 00 00 00 00 00 00   ................
0040  0b 00 00 82 01 17 40 00 00 00 00 00 5c            ......@.....\

No.     Time        Source                Destination           Protocol Info
    340 784.890971  78.0                  host                  USB      URB_CONTROL out

Frame 340: 64 bytes on wire (512 bits), 64 bytes captured (512 bits)
    Arrival Time: Dec  5, 2011 08:54:42.477450000 CET
    Epoch Time: 1323071682.477450000 seconds
    [Time delta from previous captured frame: 0.000166000 seconds]
    [Time delta from previous displayed frame: 0.000166000 seconds]
    [Time since reference or first frame: 784.890971000 seconds]
    Frame Number: 340
    Frame Length: 64 bytes (512 bits)
    Capture Length: 64 bytes (512 bits)
    [Frame is marked: False]
    [Frame is ignored: False]
    [Protocols in frame: usb]
USB URB
    URB id: 0xffff88012de5c240
    URB type: URB_COMPLETE ('C')
    URB transfer type: URB_CONTROL out (0x02)
    Endpoint: 0x00
    Device: 78
    URB bus id: 2
    Device setup request: not relevant ('-')
    Data: not present ('>')
    URB sec: 1323071682
    URB usec: 477450
    URB status: Success (0)
    URB length [bytes]: 13
    Data length [bytes]: 0
    [Request in: 339]
    [Time from request: 0.000166000 seconds]
    [bInterfaceClass: VENDOR_SPECIFIC (0xff)]

0000  40 c2 e5 2d 01 88 ff ff 43 02 00 4e 02 00 2d 3e   @..-....C..N..->
0010  c2 78 dc 4e 00 00 00 00 0a 49 07 00 00 00 00 00   .x.N.....I......
0020  0d 00 00 00 00 00 00 00 00 00 00 00 00 00 00 00   ................
0030  00 00 00 00 00 00 00 00 00 00 00 00 00 00 00 00   ................

No.     Time        Source                Destination           Protocol Info
    341 784.895202  host                  78.0                  USB      URB_CONTROL out

Frame 341: 77 bytes on wire (616 bits), 77 bytes captured (616 bits)
    Arrival Time: Dec  5, 2011 08:54:42.481681000 CET
    Epoch Time: 1323071682.481681000 seconds
    [Time delta from previous captured frame: 0.004231000 seconds]
    [Time delta from previous displayed frame: 0.004231000 seconds]
    [Time since reference or first frame: 784.895202000 seconds]
    Frame Number: 341
    Frame Length: 77 bytes (616 bits)
    Capture Length: 77 bytes (616 bits)
    [Frame is marked: False]
    [Frame is ignored: False]
    [Protocols in frame: usb]
USB URB
    URB id: 0xffff88012de5c240
    URB type: URB_SUBMIT ('S')
    URB transfer type: URB_CONTROL out (0x02)
    Endpoint: 0x00
    Device: 78
    URB bus id: 2
    Device setup request: relevant (0)
    Data: present (0)
    URB sec: 1323071682
    URB usec: 481681
    URB status: Operation now in progress (-EINPROGRESS) (-115)
    URB length [bytes]: 13
    Data length [bytes]: 13
    [Response in: 342]
    [bInterfaceClass: VENDOR_SPECIFIC (0xff)]
    URB setup
        bmRequestType: 0x40
            0... .... = Direction: Host-to-device
            .10. .... = Type: Vendor (0x02)
            ...0 0000 = Recipient: Device (0x00)
        bRequest: 1
        wValue: 0x000b
        wIndex: 0
        wLength: 13
    Leftover Capture Data: 0b00008201003a80ec4b2fb97e

0000  40 c2 e5 2d 01 88 ff ff 53 02 00 4e 02 00 00 00   @..-....S..N....
0010  c2 78 dc 4e 00 00 00 00 91 59 07 00 8d ff ff ff   .x.N.....Y......
0020  0d 00 00 00 0d 00 00 00 40 01 0b 00 00 00 0d 00   ........@.......
0030  00 00 00 00 00 00 00 00 00 00 00 00 00 00 00 00   ................
0040  0b 00 00 82 01 00 3a 80 ec 4b 2f b9 7e            ......:..K/.~

No.     Time        Source                Destination           Protocol Info
    342 784.895343  78.0                  host                  USB      URB_CONTROL out

Frame 342: 64 bytes on wire (512 bits), 64 bytes captured (512 bits)
    Arrival Time: Dec  5, 2011 08:54:42.481822000 CET
    Epoch Time: 1323071682.481822000 seconds
    [Time delta from previous captured frame: 0.000141000 seconds]
    [Time delta from previous displayed frame: 0.000141000 seconds]
    [Time since reference or first frame: 784.895343000 seconds]
    Frame Number: 342
    Frame Length: 64 bytes (512 bits)
    Capture Length: 64 bytes (512 bits)
    [Frame is marked: False]
    [Frame is ignored: False]
    [Protocols in frame: usb]
USB URB
    URB id: 0xffff88012de5c240
    URB type: URB_COMPLETE ('C')
    URB transfer type: URB_CONTROL out (0x02)
    Endpoint: 0x00
    Device: 78
    URB bus id: 2
    Device setup request: not relevant ('-')
    Data: not present ('>')
    URB sec: 1323071682
    URB usec: 481822
    URB status: Success (0)
    URB length [bytes]: 13
    Data length [bytes]: 0
    [Request in: 341]
    [Time from request: 0.000141000 seconds]
    [bInterfaceClass: VENDOR_SPECIFIC (0xff)]

0000  40 c2 e5 2d 01 88 ff ff 43 02 00 4e 02 00 2d 3e   @..-....C..N..->
0010  c2 78 dc 4e 00 00 00 00 1e 5a 07 00 00 00 00 00   .x.N.....Z......
0020  0d 00 00 00 00 00 00 00 00 00 00 00 00 00 00 00   ................
0030  00 00 00 00 00 00 00 00 00 00 00 00 00 00 00 00   ................

No.     Time        Source                Destination           Protocol Info
    343 784.899796  host                  78.0                  USB      URB_CONTROL out

Frame 343: 77 bytes on wire (616 bits), 77 bytes captured (616 bits)
    Arrival Time: Dec  5, 2011 08:54:42.486275000 CET
    Epoch Time: 1323071682.486275000 seconds
    [Time delta from previous captured frame: 0.004453000 seconds]
    [Time delta from previous displayed frame: 0.004453000 seconds]
    [Time since reference or first frame: 784.899796000 seconds]
    Frame Number: 343
    Frame Length: 77 bytes (616 bits)
    Capture Length: 77 bytes (616 bits)
    [Frame is marked: False]
    [Frame is ignored: False]
    [Protocols in frame: usb]
USB URB
    URB id: 0xffff88012de5c240
    URB type: URB_SUBMIT ('S')
    URB transfer type: URB_CONTROL out (0x02)
    Endpoint: 0x00
    Device: 78
    URB bus id: 2
    Device setup request: relevant (0)
    Data: present (0)
    URB sec: 1323071682
    URB usec: 486275
    URB status: Operation now in progress (-EINPROGRESS) (-115)
    URB length [bytes]: 13
    Data length [bytes]: 13
    [Response in: 344]
    [bInterfaceClass: VENDOR_SPECIFIC (0xff)]
    URB setup
        bmRequestType: 0x40
            0... .... = Direction: Host-to-device
            .10. .... = Type: Vendor (0x02)
            ...0 0000 = Recipient: Device (0x00)
        bRequest: 1
        wValue: 0x000b
        wIndex: 0
        wLength: 13
    Leftover Capture Data: 0b00008201003b00ec4b2fb97e

0000  40 c2 e5 2d 01 88 ff ff 53 02 00 4e 02 00 00 00   @..-....S..N....
0010  c2 78 dc 4e 00 00 00 00 83 6b 07 00 8d ff ff ff   .x.N.....k......
0020  0d 00 00 00 0d 00 00 00 40 01 0b 00 00 00 0d 00   ........@.......
0030  00 00 00 00 00 00 00 00 00 00 00 00 00 00 00 00   ................
0040  0b 00 00 82 01 00 3b 00 ec 4b 2f b9 7e            ......;..K/.~

No.     Time        Source                Destination           Protocol Info
    344 784.899956  78.0                  host                  USB      URB_CONTROL out

Frame 344: 64 bytes on wire (512 bits), 64 bytes captured (512 bits)
    Arrival Time: Dec  5, 2011 08:54:42.486435000 CET
    Epoch Time: 1323071682.486435000 seconds
    [Time delta from previous captured frame: 0.000160000 seconds]
    [Time delta from previous displayed frame: 0.000160000 seconds]
    [Time since reference or first frame: 784.899956000 seconds]
    Frame Number: 344
    Frame Length: 64 bytes (512 bits)
    Capture Length: 64 bytes (512 bits)
    [Frame is marked: False]
    [Frame is ignored: False]
    [Protocols in frame: usb]
USB URB
    URB id: 0xffff88012de5c240
    URB type: URB_COMPLETE ('C')
    URB transfer type: URB_CONTROL out (0x02)
    Endpoint: 0x00
    Device: 78
    URB bus id: 2
    Device setup request: not relevant ('-')
    Data: not present ('>')
    URB sec: 1323071682
    URB usec: 486435
    URB status: Success (0)
    URB length [bytes]: 13
    Data length [bytes]: 0
    [Request in: 343]
    [Time from request: 0.000160000 seconds]
    [bInterfaceClass: VENDOR_SPECIFIC (0xff)]

0000  40 c2 e5 2d 01 88 ff ff 43 02 00 4e 02 00 2d 3e   @..-....C..N..->
0010  c2 78 dc 4e 00 00 00 00 23 6c 07 00 00 00 00 00   .x.N....#l......
0020  0d 00 00 00 00 00 00 00 00 00 00 00 00 00 00 00   ................
0030  00 00 00 00 00 00 00 00 00 00 00 00 00 00 00 00   ................

No.     Time        Source                Destination           Protocol Info
    345 784.904141  host                  78.0                  USB      URB_CONTROL out

Frame 345: 77 bytes on wire (616 bits), 77 bytes captured (616 bits)
    Arrival Time: Dec  5, 2011 08:54:42.490620000 CET
    Epoch Time: 1323071682.490620000 seconds
    [Time delta from previous captured frame: 0.004185000 seconds]
    [Time delta from previous displayed frame: 0.004185000 seconds]
    [Time since reference or first frame: 784.904141000 seconds]
    Frame Number: 345
    Frame Length: 77 bytes (616 bits)
    Capture Length: 77 bytes (616 bits)
    [Frame is marked: False]
    [Frame is ignored: False]
    [Protocols in frame: usb]
USB URB
    URB id: 0xffff88012de5c240
    URB type: URB_SUBMIT ('S')
    URB transfer type: URB_CONTROL out (0x02)
    Endpoint: 0x00
    Device: 78
    URB bus id: 2
    Device setup request: relevant (0)
    Data: present (0)
    URB sec: 1323071682
    URB usec: 490620
    URB status: Operation now in progress (-EINPROGRESS) (-115)
    URB length [bytes]: 13
    Data length [bytes]: 13
    [Response in: 346]
    [bInterfaceClass: VENDOR_SPECIFIC (0xff)]
    URB setup
        bmRequestType: 0x40
            0... .... = Direction: Host-to-device
            .10. .... = Type: Vendor (0x02)
            ...0 0000 = Recipient: Device (0x00)
        bRequest: 1
        wValue: 0x000b
        wIndex: 0
        wLength: 13
    Leftover Capture Data: 0b00008201003401ec4b2fb97e

0000  40 c2 e5 2d 01 88 ff ff 53 02 00 4e 02 00 00 00   @..-....S..N....
0010  c2 78 dc 4e 00 00 00 00 7c 7c 07 00 8d ff ff ff   .x.N....||......
0020  0d 00 00 00 0d 00 00 00 40 01 0b 00 00 00 0d 00   ........@.......
0030  00 00 00 00 00 00 00 00 00 00 00 00 00 00 00 00   ................
0040  0b 00 00 82 01 00 34 01 ec 4b 2f b9 7e            ......4..K/.~

No.     Time        Source                Destination           Protocol Info
    346 784.904341  78.0                  host                  USB      URB_CONTROL out

Frame 346: 64 bytes on wire (512 bits), 64 bytes captured (512 bits)
    Arrival Time: Dec  5, 2011 08:54:42.490820000 CET
    Epoch Time: 1323071682.490820000 seconds
    [Time delta from previous captured frame: 0.000200000 seconds]
    [Time delta from previous displayed frame: 0.000200000 seconds]
    [Time since reference or first frame: 784.904341000 seconds]
    Frame Number: 346
    Frame Length: 64 bytes (512 bits)
    Capture Length: 64 bytes (512 bits)
    [Frame is marked: False]
    [Frame is ignored: False]
    [Protocols in frame: usb]
USB URB
    URB id: 0xffff88012de5c240
    URB type: URB_COMPLETE ('C')
    URB transfer type: URB_CONTROL out (0x02)
    Endpoint: 0x00
    Device: 78
    URB bus id: 2
    Device setup request: not relevant ('-')
    Data: not present ('>')
    URB sec: 1323071682
    URB usec: 490820
    URB status: Success (0)
    URB length [bytes]: 13
    Data length [bytes]: 0
    [Request in: 345]
    [Time from request: 0.000200000 seconds]
    [bInterfaceClass: VENDOR_SPECIFIC (0xff)]

0000  40 c2 e5 2d 01 88 ff ff 43 02 00 4e 02 00 2d 3e   @..-....C..N..->
0010  c2 78 dc 4e 00 00 00 00 44 7d 07 00 00 00 00 00   .x.N....D}......
0020  0d 00 00 00 00 00 00 00 00 00 00 00 00 00 00 00   ................
0030  00 00 00 00 00 00 00 00 00 00 00 00 00 00 00 00   ................

No.     Time        Source                Destination           Protocol Info
    347 784.908541  host                  78.0                  USB      URB_CONTROL out

Frame 347: 77 bytes on wire (616 bits), 77 bytes captured (616 bits)
    Arrival Time: Dec  5, 2011 08:54:42.495020000 CET
    Epoch Time: 1323071682.495020000 seconds
    [Time delta from previous captured frame: 0.004200000 seconds]
    [Time delta from previous displayed frame: 0.004200000 seconds]
    [Time since reference or first frame: 784.908541000 seconds]
    Frame Number: 347
    Frame Length: 77 bytes (616 bits)
    Capture Length: 77 bytes (616 bits)
    [Frame is marked: False]
    [Frame is ignored: False]
    [Protocols in frame: usb]
USB URB
    URB id: 0xffff88012de5c240
    URB type: URB_SUBMIT ('S')
    URB transfer type: URB_CONTROL out (0x02)
    Endpoint: 0x00
    Device: 78
    URB bus id: 2
    Device setup request: relevant (0)
    Data: present (0)
    URB sec: 1323071682
    URB usec: 495020
    URB status: Operation now in progress (-EINPROGRESS) (-115)
    URB length [bytes]: 13
    Data length [bytes]: 13
    [Response in: 348]
    [bInterfaceClass: VENDOR_SPECIFIC (0xff)]
    URB setup
        bmRequestType: 0x40
            0... .... = Direction: Host-to-device
            .10. .... = Type: Vendor (0x02)
            ...0 0000 = Recipient: Device (0x00)
        bRequest: 1
        wValue: 0x000b
        wIndex: 0
        wLength: 13
    Leftover Capture Data: 0b00008201003500ec4b2fb97e

0000  40 c2 e5 2d 01 88 ff ff 53 02 00 4e 02 00 00 00   @..-....S..N....
0010  c2 78 dc 4e 00 00 00 00 ac 8d 07 00 8d ff ff ff   .x.N............
0020  0d 00 00 00 0d 00 00 00 40 01 0b 00 00 00 0d 00   ........@.......
0030  00 00 00 00 00 00 00 00 00 00 00 00 00 00 00 00   ................
0040  0b 00 00 82 01 00 35 00 ec 4b 2f b9 7e            ......5..K/.~

No.     Time        Source                Destination           Protocol Info
    348 784.908706  78.0                  host                  USB      URB_CONTROL out

Frame 348: 64 bytes on wire (512 bits), 64 bytes captured (512 bits)
    Arrival Time: Dec  5, 2011 08:54:42.495185000 CET
    Epoch Time: 1323071682.495185000 seconds
    [Time delta from previous captured frame: 0.000165000 seconds]
    [Time delta from previous displayed frame: 0.000165000 seconds]
    [Time since reference or first frame: 784.908706000 seconds]
    Frame Number: 348
    Frame Length: 64 bytes (512 bits)
    Capture Length: 64 bytes (512 bits)
    [Frame is marked: False]
    [Frame is ignored: False]
    [Protocols in frame: usb]
USB URB
    URB id: 0xffff88012de5c240
    URB type: URB_COMPLETE ('C')
    URB transfer type: URB_CONTROL out (0x02)
    Endpoint: 0x00
    Device: 78
    URB bus id: 2
    Device setup request: not relevant ('-')
    Data: not present ('>')
    URB sec: 1323071682
    URB usec: 495185
    URB status: Success (0)
    URB length [bytes]: 13
    Data length [bytes]: 0
    [Request in: 347]
    [Time from request: 0.000165000 seconds]
    [bInterfaceClass: VENDOR_SPECIFIC (0xff)]

0000  40 c2 e5 2d 01 88 ff ff 43 02 00 4e 02 00 2d 3e   @..-....C..N..->
0010  c2 78 dc 4e 00 00 00 00 51 8e 07 00 00 00 00 00   .x.N....Q.......
0020  0d 00 00 00 00 00 00 00 00 00 00 00 00 00 00 00   ................
0030  00 00 00 00 00 00 00 00 00 00 00 00 00 00 00 00   ................

No.     Time        Source                Destination           Protocol Info
    349 785.230160  host                  78.0                  USB      URB_CONTROL out

Frame 349: 77 bytes on wire (616 bits), 77 bytes captured (616 bits)
    Arrival Time: Dec  5, 2011 08:54:42.816639000 CET
    Epoch Time: 1323071682.816639000 seconds
    [Time delta from previous captured frame: 0.321454000 seconds]
    [Time delta from previous displayed frame: 0.321454000 seconds]
    [Time since reference or first frame: 785.230160000 seconds]
    Frame Number: 349
    Frame Length: 77 bytes (616 bits)
    Capture Length: 77 bytes (616 bits)
    [Frame is marked: False]
    [Frame is ignored: False]
    [Protocols in frame: usb]
USB URB
    URB id: 0xffff88012de5c240
    URB type: URB_SUBMIT ('S')
    URB transfer type: URB_CONTROL out (0x02)
    Endpoint: 0x00
    Device: 78
    URB bus id: 2
    Device setup request: relevant (0)
    Data: present (0)
    URB sec: 1323071682
    URB usec: 816639
    URB status: Operation now in progress (-EINPROGRESS) (-115)
    URB length [bytes]: 13
    Data length [bytes]: 13
    [Response in: 350]
    [bInterfaceClass: VENDOR_SPECIFIC (0xff)]
    URB setup
        bmRequestType: 0x40
            0... .... = Direction: Host-to-device
            .10. .... = Type: Vendor (0x02)
            ...0 0000 = Recipient: Device (0x00)
        bRequest: 1
        wValue: 0x000b
        wIndex: 0
        wLength: 13
    Leftover Capture Data: 0b0020820130808924ad548000

0000  40 c2 e5 2d 01 88 ff ff 53 02 00 4e 02 00 00 00   @..-....S..N....
0010  c2 78 dc 4e 00 00 00 00 ff 75 0c 00 8d ff ff ff   .x.N.....u......
0020  0d 00 00 00 0d 00 00 00 40 01 0b 00 00 00 0d 00   ........@.......
0030  00 00 00 00 00 00 00 00 00 00 00 00 00 00 00 00   ................
0040  0b 00 20 82 01 30 80 89 24 ad 54 80 00            .. ..0..$.T..

No.     Time        Source                Destination           Protocol Info
    350 785.230354  78.0                  host                  USB      URB_CONTROL out

Frame 350: 64 bytes on wire (512 bits), 64 bytes captured (512 bits)
    Arrival Time: Dec  5, 2011 08:54:42.816833000 CET
    Epoch Time: 1323071682.816833000 seconds
    [Time delta from previous captured frame: 0.000194000 seconds]
    [Time delta from previous displayed frame: 0.000194000 seconds]
    [Time since reference or first frame: 785.230354000 seconds]
    Frame Number: 350
    Frame Length: 64 bytes (512 bits)
    Capture Length: 64 bytes (512 bits)
    [Frame is marked: False]
    [Frame is ignored: False]
    [Protocols in frame: usb]
USB URB
    URB id: 0xffff88012de5c240
    URB type: URB_COMPLETE ('C')
    URB transfer type: URB_CONTROL out (0x02)
    Endpoint: 0x00
    Device: 78
    URB bus id: 2
    Device setup request: not relevant ('-')
    Data: not present ('>')
    URB sec: 1323071682
    URB usec: 816833
    URB status: Success (0)
    URB length [bytes]: 13
    Data length [bytes]: 0
    [Request in: 349]
    [Time from request: 0.000194000 seconds]
    [bInterfaceClass: VENDOR_SPECIFIC (0xff)]

0000  40 c2 e5 2d 01 88 ff ff 43 02 00 4e 02 00 2d 3e   @..-....C..N..->
0010  c2 78 dc 4e 00 00 00 00 c1 76 0c 00 00 00 00 00   .x.N.....v......
0020  0d 00 00 00 00 00 00 00 00 00 00 00 00 00 00 00   ................
0030  00 00 00 00 00 00 00 00 00 00 00 00 00 00 00 00   ................

No.     Time        Source                Destination           Protocol Info
    351 785.234527  host                  78.0                  USB      URB_CONTROL out

Frame 351: 64 bytes on wire (512 bits), 64 bytes captured (512 bits)
    Arrival Time: Dec  5, 2011 08:54:42.821006000 CET
    Epoch Time: 1323071682.821006000 seconds
    [Time delta from previous captured frame: 0.004173000 seconds]
    [Time delta from previous displayed frame: 0.004173000 seconds]
    [Time since reference or first frame: 785.234527000 seconds]
    Frame Number: 351
    Frame Length: 64 bytes (512 bits)
    Capture Length: 64 bytes (512 bits)
    [Frame is marked: False]
    [Frame is ignored: False]
    [Protocols in frame: usb]
USB URB
    URB id: 0xffff88012de5c240
    URB type: URB_SUBMIT ('S')
    URB transfer type: URB_CONTROL out (0x02)
    Endpoint: 0x80
    Device: 78
    URB bus id: 2
    Device setup request: relevant (0)
    Data: not present ('<')
    URB sec: 1323071682
    URB usec: 821006
    URB status: Operation now in progress (-EINPROGRESS) (-115)
    URB length [bytes]: 13
    Data length [bytes]: 0
    [Response in: 352]
    [bInterfaceClass: VENDOR_SPECIFIC (0xff)]
    URB setup
        bmRequestType: 0xc0
            1... .... = Direction: Device-to-host
            .10. .... = Type: Vendor (0x02)
            ...0 0000 = Recipient: Device (0x00)
        bRequest: 1
        wValue: 0x000b
        wIndex: 0
        wLength: 13

0000  40 c2 e5 2d 01 88 ff ff 53 02 80 4e 02 00 00 3c   @..-....S..N...<
0010  c2 78 dc 4e 00 00 00 00 0e 87 0c 00 8d ff ff ff   .x.N............
0020  0d 00 00 00 00 00 00 00 c0 01 0b 00 00 00 0d 00   ................
0030  00 00 00 00 00 00 00 00 00 02 00 00 00 00 00 00   ................

No.     Time        Source                Destination           Protocol Info
    352 785.234721  78.0                  host                  USB      URB_CONTROL out

Frame 352: 77 bytes on wire (616 bits), 77 bytes captured (616 bits)
    Arrival Time: Dec  5, 2011 08:54:42.821200000 CET
    Epoch Time: 1323071682.821200000 seconds
    [Time delta from previous captured frame: 0.000194000 seconds]
    [Time delta from previous displayed frame: 0.000194000 seconds]
    [Time since reference or first frame: 785.234721000 seconds]
    Frame Number: 352
    Frame Length: 77 bytes (616 bits)
    Capture Length: 77 bytes (616 bits)
    [Frame is marked: False]
    [Frame is ignored: False]
    [Protocols in frame: usb]
USB URB
    URB id: 0xffff88012de5c240
    URB type: URB_COMPLETE ('C')
    URB transfer type: URB_CONTROL out (0x02)
    Endpoint: 0x80
    Device: 78
    URB bus id: 2
    Device setup request: not relevant ('-')
    Data: present (0)
    URB sec: 1323071682
    URB usec: 821200
    URB status: Success (0)
    URB length [bytes]: 13
    Data length [bytes]: 13
    [Request in: 351]
    [Time from request: 0.000194000 seconds]
    [bInterfaceClass: VENDOR_SPECIFIC (0xff)]
    CONTROL response data

0000  40 c2 e5 2d 01 88 ff ff 43 02 80 4e 02 00 2d 00   @..-....C..N..-.
0010  c2 78 dc 4e 00 00 00 00 d0 87 0c 00 00 00 00 00   .x.N............
0020  0d 00 00 00 0d 00 00 00 00 00 00 00 00 00 00 00   ................
0030  00 00 00 00 00 00 00 00 00 02 00 00 00 00 00 00   ................
0040  0b 00 20 82 01 30 80 80 24 ad 54 80 00            .. ..0..$.T..

No.     Time        Source                Destination           Protocol Info
    353 785.238966  host                  78.0                  USB      URB_CONTROL out

Frame 353: 77 bytes on wire (616 bits), 77 bytes captured (616 bits)
    Arrival Time: Dec  5, 2011 08:54:42.825445000 CET
    Epoch Time: 1323071682.825445000 seconds
    [Time delta from previous captured frame: 0.004245000 seconds]
    [Time delta from previous displayed frame: 0.004245000 seconds]
    [Time since reference or first frame: 785.238966000 seconds]
    Frame Number: 353
    Frame Length: 77 bytes (616 bits)
    Capture Length: 77 bytes (616 bits)
    [Frame is marked: False]
    [Frame is ignored: False]
    [Protocols in frame: usb]
USB URB
    URB id: 0xffff88012de5c240
    URB type: URB_SUBMIT ('S')
    URB transfer type: URB_CONTROL out (0x02)
    Endpoint: 0x00
    Device: 78
    URB bus id: 2
    Device setup request: relevant (0)
    Data: present (0)
    URB sec: 1323071682
    URB usec: 825445
    URB status: Operation now in progress (-EINPROGRESS) (-115)
    URB length [bytes]: 13
    Data length [bytes]: 13
    [Response in: 354]
    [bInterfaceClass: VENDOR_SPECIFIC (0xff)]
    URB setup
        bmRequestType: 0x40
            0... .... = Direction: Host-to-device
            .10. .... = Type: Vendor (0x02)
            ...0 0000 = Recipient: Device (0x00)
        bRequest: 1
        wValue: 0x000b
        wIndex: 0
        wLength: 13
    Leftover Capture Data: 0b00008201003411eb919cb847

0000  40 c2 e5 2d 01 88 ff ff 53 02 00 4e 02 00 00 00   @..-....S..N....
0010  c2 78 dc 4e 00 00 00 00 65 98 0c 00 8d ff ff ff   .x.N....e.......
0020  0d 00 00 00 0d 00 00 00 40 01 0b 00 00 00 0d 00   ........@.......
0030  00 00 00 00 00 00 00 00 00 00 00 00 00 00 00 00   ................
0040  0b 00 00 82 01 00 34 11 eb 91 9c b8 47            ......4.....G

No.     Time        Source                Destination           Protocol Info
    354 785.239207  78.0                  host                  USB      URB_CONTROL out

Frame 354: 64 bytes on wire (512 bits), 64 bytes captured (512 bits)
    Arrival Time: Dec  5, 2011 08:54:42.825686000 CET
    Epoch Time: 1323071682.825686000 seconds
    [Time delta from previous captured frame: 0.000241000 seconds]
    [Time delta from previous displayed frame: 0.000241000 seconds]
    [Time since reference or first frame: 785.239207000 seconds]
    Frame Number: 354
    Frame Length: 64 bytes (512 bits)
    Capture Length: 64 bytes (512 bits)
    [Frame is marked: False]
    [Frame is ignored: False]
    [Protocols in frame: usb]
USB URB
    URB id: 0xffff88012de5c240
    URB type: URB_COMPLETE ('C')
    URB transfer type: URB_CONTROL out (0x02)
    Endpoint: 0x00
    Device: 78
    URB bus id: 2
    Device setup request: not relevant ('-')
    Data: not present ('>')
    URB sec: 1323071682
    URB usec: 825686
    URB status: Success (0)
    URB length [bytes]: 13
    Data length [bytes]: 0
    [Request in: 353]
    [Time from request: 0.000241000 seconds]
    [bInterfaceClass: VENDOR_SPECIFIC (0xff)]

0000  40 c2 e5 2d 01 88 ff ff 43 02 00 4e 02 00 2d 3e   @..-....C..N..->
0010  c2 78 dc 4e 00 00 00 00 56 99 0c 00 00 00 00 00   .x.N....V.......
0020  0d 00 00 00 00 00 00 00 00 00 00 00 00 00 00 00   ................
0030  00 00 00 00 00 00 00 00 00 00 00 00 00 00 00 00   ................

No.     Time        Source                Destination           Protocol Info
    355 785.243630  host                  78.0                  USB      URB_CONTROL out

Frame 355: 77 bytes on wire (616 bits), 77 bytes captured (616 bits)
    Arrival Time: Dec  5, 2011 08:54:42.830109000 CET
    Epoch Time: 1323071682.830109000 seconds
    [Time delta from previous captured frame: 0.004423000 seconds]
    [Time delta from previous displayed frame: 0.004423000 seconds]
    [Time since reference or first frame: 785.243630000 seconds]
    Frame Number: 355
    Frame Length: 77 bytes (616 bits)
    Capture Length: 77 bytes (616 bits)
    [Frame is marked: False]
    [Frame is ignored: False]
    [Protocols in frame: usb]
USB URB
    URB id: 0xffff88012de5c240
    URB type: URB_SUBMIT ('S')
    URB transfer type: URB_CONTROL out (0x02)
    Endpoint: 0x00
    Device: 78
    URB bus id: 2
    Device setup request: relevant (0)
    Data: present (0)
    URB sec: 1323071682
    URB usec: 830109
    URB status: Operation now in progress (-EINPROGRESS) (-115)
    URB length [bytes]: 13
    Data length [bytes]: 13
    [Response in: 356]
    [bInterfaceClass: VENDOR_SPECIFIC (0xff)]
    URB setup
        bmRequestType: 0x40
            0... .... = Direction: Host-to-device
            .10. .... = Type: Vendor (0x02)
            ...0 0000 = Recipient: Device (0x00)
        bRequest: 1
        wValue: 0x000b
        wIndex: 0
        wLength: 13
    Leftover Capture Data: 0b00008201003511eb919cb847

0000  40 c2 e5 2d 01 88 ff ff 53 02 00 4e 02 00 00 00   @..-....S..N....
0010  c2 78 dc 4e 00 00 00 00 9d aa 0c 00 8d ff ff ff   .x.N............
0020  0d 00 00 00 0d 00 00 00 40 01 0b 00 00 00 0d 00   ........@.......
0030  00 00 00 00 00 00 00 00 00 00 00 00 00 00 00 00   ................
0040  0b 00 00 82 01 00 35 11 eb 91 9c b8 47            ......5.....G

No.     Time        Source                Destination           Protocol Info
    356 785.243853  78.0                  host                  USB      URB_CONTROL out

Frame 356: 64 bytes on wire (512 bits), 64 bytes captured (512 bits)
    Arrival Time: Dec  5, 2011 08:54:42.830332000 CET
    Epoch Time: 1323071682.830332000 seconds
